{
	"data": {
		"bytecode": {
			"linkReferences": {},
			"object": "608060405234801561001057600080fd5b506101e1806100206000396000f3fe608060405234801561001057600080fd5b506004361061002b5760003560e01c806333adb13614610030575b600080fd5b61004a600480360381019061004591906100d2565b610065565b60405161005c9695949392919061011d565b60405180910390f35b600080600080600080600087891190506000888a1090506000898b1015905060008a8c1115905060008b8d14905060008c8e141590508585858585859b509b509b509b509b509b505050505050509295509295509295565b6000813590506100cc81610194565b92915050565b600080604083850312156100e557600080fd5b60006100f3858286016100bd565b9250506020610104858286016100bd565b9150509250929050565b6101178161017e565b82525050565b600060c082019050610132600083018961010e565b61013f602083018861010e565b61014c604083018761010e565b610159606083018661010e565b610166608083018561010e565b61017360a083018461010e565b979650505050505050565b60008115159050919050565b6000819050919050565b61019d8161018a565b81146101a857600080fd5b5056fea2646970667358221220493f9a3ba61ee05504815ca5ebcf6ea9438aa8891d39ad312e4034df2683777164736f6c63430008000033",
			"opcodes": "PUSH1 0x80 PUSH1 0x40 MSTORE CALLVALUE DUP1 ISZERO PUSH2 0x10 JUMPI PUSH1 0x0 DUP1 REVERT JUMPDEST POP PUSH2 0x1E1 DUP1 PUSH2 0x20 PUSH1 0x0 CODECOPY PUSH1 0x0 RETURN INVALID PUSH1 0x80 PUSH1 0x40 MSTORE CALLVALUE DUP1 ISZERO PUSH2 0x10 JUMPI PUSH1 0x0 DUP1 REVERT JUMPDEST POP PUSH1 0x4 CALLDATASIZE LT PUSH2 0x2B JUMPI PUSH1 0x0 CALLDATALOAD PUSH1 0xE0 SHR DUP1 PUSH4 0x33ADB136 EQ PUSH2 0x30 JUMPI JUMPDEST PUSH1 0x0 DUP1 REVERT JUMPDEST PUSH2 0x4A PUSH1 0x4 DUP1 CALLDATASIZE SUB DUP2 ADD SWAP1 PUSH2 0x45 SWAP2 SWAP1 PUSH2 0xD2 JUMP JUMPDEST PUSH2 0x65 JUMP JUMPDEST PUSH1 0x40 MLOAD PUSH2 0x5C SWAP7 SWAP6 SWAP5 SWAP4 SWAP3 SWAP2 SWAP1 PUSH2 0x11D JUMP JUMPDEST PUSH1 0x40 MLOAD DUP1 SWAP2 SUB SWAP1 RETURN JUMPDEST PUSH1 0x0 DUP1 PUSH1 0x0 DUP1 PUSH1 0x0 DUP1 PUSH1 0x0 DUP8 DUP10 GT SWAP1 POP PUSH1 0x0 DUP9 DUP11 LT SWAP1 POP PUSH1 0x0 DUP10 DUP12 LT ISZERO SWAP1 POP PUSH1 0x0 DUP11 DUP13 GT ISZERO SWAP1 POP PUSH1 0x0 DUP12 DUP14 EQ SWAP1 POP PUSH1 0x0 DUP13 DUP15 EQ ISZERO SWAP1 POP DUP6 DUP6 DUP6 DUP6 DUP6 DUP6 SWAP12 POP SWAP12 POP SWAP12 POP SWAP12 POP SWAP12 POP SWAP12 POP POP POP POP POP POP POP SWAP3 SWAP6 POP SWAP3 SWAP6 POP SWAP3 SWAP6 JUMP JUMPDEST PUSH1 0x0 DUP2 CALLDATALOAD SWAP1 POP PUSH2 0xCC DUP2 PUSH2 0x194 JUMP JUMPDEST SWAP3 SWAP2 POP POP JUMP JUMPDEST PUSH1 0x0 DUP1 PUSH1 0x40 DUP4 DUP6 SUB SLT ISZERO PUSH2 0xE5 JUMPI PUSH1 0x0 DUP1 REVERT JUMPDEST PUSH1 0x0 PUSH2 0xF3 DUP6 DUP3 DUP7 ADD PUSH2 0xBD JUMP JUMPDEST SWAP3 POP POP PUSH1 0x20 PUSH2 0x104 DUP6 DUP3 DUP7 ADD PUSH2 0xBD JUMP JUMPDEST SWAP2 POP POP SWAP3 POP SWAP3 SWAP1 POP JUMP JUMPDEST PUSH2 0x117 DUP2 PUSH2 0x17E JUMP JUMPDEST DUP3 MSTORE POP POP JUMP JUMPDEST PUSH1 0x0 PUSH1 0xC0 DUP3 ADD SWAP1 POP PUSH2 0x132 PUSH1 0x0 DUP4 ADD DUP10 PUSH2 0x10E JUMP JUMPDEST PUSH2 0x13F PUSH1 0x20 DUP4 ADD DUP9 PUSH2 0x10E JUMP JUMPDEST PUSH2 0x14C PUSH1 0x40 DUP4 ADD DUP8 PUSH2 0x10E JUMP JUMPDEST PUSH2 0x159 PUSH1 0x60 DUP4 ADD DUP7 PUSH2 0x10E JUMP JUMPDEST PUSH2 0x166 PUSH1 0x80 DUP4 ADD DUP6 PUSH2 0x10E JUMP JUMPDEST PUSH2 0x173 PUSH1 0xA0 DUP4 ADD DUP5 PUSH2 0x10E JUMP JUMPDEST SWAP8 SWAP7 POP POP POP POP POP POP POP JUMP JUMPDEST PUSH1 0x0 DUP2 ISZERO ISZERO SWAP1 POP SWAP2 SWAP1 POP JUMP JUMPDEST PUSH1 0x0 DUP2 SWAP1 POP SWAP2 SWAP1 POP JUMP JUMPDEST PUSH2 0x19D DUP2 PUSH2 0x18A JUMP JUMPDEST DUP2 EQ PUSH2 0x1A8 JUMPI PUSH1 0x0 DUP1 REVERT JUMPDEST POP JUMP INVALID LOG2 PUSH5 0x6970667358 0x22 SLT KECCAK256 0x49 EXTCODEHASH SWAP11 EXTCODESIZE 0xA6 0x1E 0xE0 SSTORE DIV DUP2 0x5C 0xA5 0xEB 0xCF PUSH15 0xA9438AA8891D39AD312E4034DF2683 PUSH24 0x7164736F6C63430008000033000000000000000000000000 "
		},
		"gasEstimates": {
			"creation": {
				"codeDepositCost": "96200",
				"executionCost": "147",
				"totalCost": "96347"
			},
			"external": {
				"comparisonoper(uint256,uint256)": "infinite"
			}
		},
		"methodIdentifiers": {
			"comparisonoper(uint256,uint256)": "33adb136"
		}
	},
	"abi": [
		{
			"inputs": [
				{
					"internalType": "uint256",
					"name": "a",
					"type": "uint256"
				},
				{
					"internalType": "uint256",
					"name": "b",
					"type": "uint256"
				}
			],
			"name": "comparisonoper",
			"outputs": [
				{
					"internalType": "bool",
					"name": "",
					"type": "bool"
				},
				{
					"internalType": "bool",
					"name": "",
					"type": "bool"
				},
				{
					"internalType": "bool",
					"name": "",
					"type": "bool"
				},
				{
					"internalType": "bool",
					"name": "",
					"type": "bool"
				},
				{
					"internalType": "bool",
					"name": "",
					"type": "bool"
				},
				{
					"internalType": "bool",
					"name": "",
					"type": "bool"
				}
			],
			"stateMutability": "pure",
			"type": "function"
		}
	]
}