{
	"data": {
		"bytecode": {
			"linkReferences": {},
			"object": "608060405234801561001057600080fd5b506101e3806100206000396000f3fe608060405234801561001057600080fd5b50600436106100365760003560e01c806361bc221a1461003b5780636abbb3b414610059575b600080fd5b610043610075565b60405161005091906100f9565b60405180910390f35b610073600480360381019061006e91906100c1565b61007b565b005b60005481565b600080819055505b8060005410156100a95760008081548092919061009f9061011e565b9190505550610083565b50565b6000813590506100bb81610196565b92915050565b6000602082840312156100d357600080fd5b60006100e1848285016100ac565b91505092915050565b6100f381610114565b82525050565b600060208201905061010e60008301846100ea565b92915050565b6000819050919050565b600061012982610114565b91507fffffffffffffffffffffffffffffffffffffffffffffffffffffffffffffffff82141561015c5761015b610167565b5b600182019050919050565b7f4e487b7100000000000000000000000000000000000000000000000000000000600052601160045260246000fd5b61019f81610114565b81146101aa57600080fd5b5056fea2646970667358221220f62cf4b02740942f65fcb3d8bb89cc2b26f9a4f9c39eccad9936f057ebc6b55664736f6c63430008000033",
			"opcodes": "PUSH1 0x80 PUSH1 0x40 MSTORE CALLVALUE DUP1 ISZERO PUSH2 0x10 JUMPI PUSH1 0x0 DUP1 REVERT JUMPDEST POP PUSH2 0x1E3 DUP1 PUSH2 0x20 PUSH1 0x0 CODECOPY PUSH1 0x0 RETURN INVALID PUSH1 0x80 PUSH1 0x40 MSTORE CALLVALUE DUP1 ISZERO PUSH2 0x10 JUMPI PUSH1 0x0 DUP1 REVERT JUMPDEST POP PUSH1 0x4 CALLDATASIZE LT PUSH2 0x36 JUMPI PUSH1 0x0 CALLDATALOAD PUSH1 0xE0 SHR DUP1 PUSH4 0x61BC221A EQ PUSH2 0x3B JUMPI DUP1 PUSH4 0x6ABBB3B4 EQ PUSH2 0x59 JUMPI JUMPDEST PUSH1 0x0 DUP1 REVERT JUMPDEST PUSH2 0x43 PUSH2 0x75 JUMP JUMPDEST PUSH1 0x40 MLOAD PUSH2 0x50 SWAP2 SWAP1 PUSH2 0xF9 JUMP JUMPDEST PUSH1 0x40 MLOAD DUP1 SWAP2 SUB SWAP1 RETURN JUMPDEST PUSH2 0x73 PUSH1 0x4 DUP1 CALLDATASIZE SUB DUP2 ADD SWAP1 PUSH2 0x6E SWAP2 SWAP1 PUSH2 0xC1 JUMP JUMPDEST PUSH2 0x7B JUMP JUMPDEST STOP JUMPDEST PUSH1 0x0 SLOAD DUP2 JUMP JUMPDEST PUSH1 0x0 DUP1 DUP2 SWAP1 SSTORE POP JUMPDEST DUP1 PUSH1 0x0 SLOAD LT ISZERO PUSH2 0xA9 JUMPI PUSH1 0x0 DUP1 DUP2 SLOAD DUP1 SWAP3 SWAP2 SWAP1 PUSH2 0x9F SWAP1 PUSH2 0x11E JUMP JUMPDEST SWAP2 SWAP1 POP SSTORE POP PUSH2 0x83 JUMP JUMPDEST POP JUMP JUMPDEST PUSH1 0x0 DUP2 CALLDATALOAD SWAP1 POP PUSH2 0xBB DUP2 PUSH2 0x196 JUMP JUMPDEST SWAP3 SWAP2 POP POP JUMP JUMPDEST PUSH1 0x0 PUSH1 0x20 DUP3 DUP5 SUB SLT ISZERO PUSH2 0xD3 JUMPI PUSH1 0x0 DUP1 REVERT JUMPDEST PUSH1 0x0 PUSH2 0xE1 DUP5 DUP3 DUP6 ADD PUSH2 0xAC JUMP JUMPDEST SWAP2 POP POP SWAP3 SWAP2 POP POP JUMP JUMPDEST PUSH2 0xF3 DUP2 PUSH2 0x114 JUMP JUMPDEST DUP3 MSTORE POP POP JUMP JUMPDEST PUSH1 0x0 PUSH1 0x20 DUP3 ADD SWAP1 POP PUSH2 0x10E PUSH1 0x0 DUP4 ADD DUP5 PUSH2 0xEA JUMP JUMPDEST SWAP3 SWAP2 POP POP JUMP JUMPDEST PUSH1 0x0 DUP2 SWAP1 POP SWAP2 SWAP1 POP JUMP JUMPDEST PUSH1 0x0 PUSH2 0x129 DUP3 PUSH2 0x114 JUMP JUMPDEST SWAP2 POP PUSH32 0xFFFFFFFFFFFFFFFFFFFFFFFFFFFFFFFFFFFFFFFFFFFFFFFFFFFFFFFFFFFFFFFF DUP3 EQ ISZERO PUSH2 0x15C JUMPI PUSH2 0x15B PUSH2 0x167 JUMP JUMPDEST JUMPDEST PUSH1 0x1 DUP3 ADD SWAP1 POP SWAP2 SWAP1 POP JUMP JUMPDEST PUSH32 0x4E487B7100000000000000000000000000000000000000000000000000000000 PUSH1 0x0 MSTORE PUSH1 0x11 PUSH1 0x4 MSTORE PUSH1 0x24 PUSH1 0x0 REVERT JUMPDEST PUSH2 0x19F DUP2 PUSH2 0x114 JUMP JUMPDEST DUP2 EQ PUSH2 0x1AA JUMPI PUSH1 0x0 DUP1 REVERT JUMPDEST POP JUMP INVALID LOG2 PUSH5 0x6970667358 0x22 SLT KECCAK256 0xF6 0x2C DELEGATECALL 0xB0 0x27 BLOCKHASH SWAP5 0x2F PUSH6 0xFCB3D8BB89CC 0x2B 0x26 0xF9 LOG4 0xF9 0xC3 SWAP15 0xCC 0xAD SWAP10 CALLDATASIZE CREATE JUMPI 0xEB 0xC6 0xB5 JUMP PUSH5 0x736F6C6343 STOP ADDMOD STOP STOP CALLER "
		},
		"gasEstimates": {
			"creation": {
				"codeDepositCost": "96600",
				"executionCost": "147",
				"totalCost": "96747"
			},
			"external": {
				"counter()": "1107",
				"incrementCounter(uint256)": "infinite"
			}
		},
		"methodIdentifiers": {
			"counter()": "61bc221a",
			"incrementCounter(uint256)": "6abbb3b4"
		}
	},
	"abi": [
		{
			"inputs": [],
			"name": "counter",
			"outputs": [
				{
					"internalType": "uint256",
					"name": "",
					"type": "uint256"
				}
			],
			"stateMutability": "view",
			"type": "function"
		},
		{
			"inputs": [
				{
					"internalType": "uint256",
					"name": "target",
					"type": "uint256"
				}
			],
			"name": "incrementCounter",
			"outputs": [],
			"stateMutability": "nonpayable",
			"type": "function"
		}
	]
}