{
	"pratical_no 2./Logical_oprator.sol": {
		"logical": {
			"abi": [
				{
					"inputs": [
						{
							"internalType": "bool",
							"name": "a",
							"type": "bool"
						},
						{
							"internalType": "bool",
							"name": "b",
							"type": "bool"
						}
					],
					"name": "logicaloperator",
					"outputs": [
						{
							"internalType": "bool",
							"name": "",
							"type": "bool"
						},
						{
							"internalType": "bool",
							"name": "",
							"type": "bool"
						},
						{
							"internalType": "bool",
							"name": "",
							"type": "bool"
						}
					],
					"stateMutability": "pure",
					"type": "function"
				}
			],
			"devdoc": {
				"kind": "dev",
				"methods": {},
				"version": 1
			},
			"evm": {
				"assembly": "    /* \"pratical_no 2./Logical_oprator.sol\":66:362  contract logical {\r... */\n  mstore(0x40, 0x80)\n  callvalue\n  dup1\n  iszero\n  tag_1\n  jumpi\n  0x00\n  dup1\n  revert\ntag_1:\n  pop\n  dataSize(sub_0)\n  dup1\n  dataOffset(sub_0)\n  0x00\n  codecopy\n  0x00\n  return\nstop\n\nsub_0: assembly {\n        /* \"pratical_no 2./Logical_oprator.sol\":66:362  contract logical {\r... */\n      mstore(0x40, 0x80)\n      callvalue\n      dup1\n      iszero\n      tag_1\n      jumpi\n      0x00\n      dup1\n      revert\n    tag_1:\n      pop\n      jumpi(tag_2, lt(calldatasize, 0x04))\n      shr(0xe0, calldataload(0x00))\n      dup1\n      0x7b377207\n      eq\n      tag_3\n      jumpi\n    tag_2:\n      0x00\n      dup1\n      revert\n        /* \"pratical_no 2./Logical_oprator.sol\":89:359  function logicaloperator (bool a , bool b) public pure returns (bool, bool, bool) {\r... */\n    tag_3:\n      tag_4\n      0x04\n      dup1\n      calldatasize\n      sub\n      dup2\n      add\n      swap1\n      tag_5\n      swap2\n      swap1\n      tag_6\n      jump\t// in\n    tag_5:\n      tag_7\n      jump\t// in\n    tag_4:\n      mload(0x40)\n      tag_8\n      swap4\n      swap3\n      swap2\n      swap1\n      tag_9\n      jump\t// in\n    tag_8:\n      mload(0x40)\n      dup1\n      swap2\n      sub\n      swap1\n      return\n    tag_7:\n        /* \"pratical_no 2./Logical_oprator.sol\":153:157  bool */\n      0x00\n        /* \"pratical_no 2./Logical_oprator.sol\":159:163  bool */\n      dup1\n        /* \"pratical_no 2./Logical_oprator.sol\":165:169  bool */\n      0x00\n        /* \"pratical_no 2./Logical_oprator.sol\":192:207  bool logicaland */\n      dup1\n        /* \"pratical_no 2./Logical_oprator.sol\":210:211  a */\n      dup6\n        /* \"pratical_no 2./Logical_oprator.sol\":210:216  a && b */\n      dup1\n      iszero\n      tag_11\n      jumpi\n      pop\n        /* \"pratical_no 2./Logical_oprator.sol\":215:216  b */\n      dup5\n        /* \"pratical_no 2./Logical_oprator.sol\":210:216  a && b */\n    tag_11:\n        /* \"pratical_no 2./Logical_oprator.sol\":192:216  bool logicaland = a && b */\n      swap1\n      pop\n        /* \"pratical_no 2./Logical_oprator.sol\":239:253  bool logicalor */\n      0x00\n        /* \"pratical_no 2./Logical_oprator.sol\":256:257  a */\n      dup7\n        /* \"pratical_no 2./Logical_oprator.sol\":256:262  a || b */\n      dup1\n      tag_12\n      jumpi\n      pop\n        /* \"pratical_no 2./Logical_oprator.sol\":261:262  b */\n      dup6\n        /* \"pratical_no 2./Logical_oprator.sol\":256:262  a || b */\n    tag_12:\n        /* \"pratical_no 2./Logical_oprator.sol\":239:262  bool logicalor = a || b */\n      swap1\n      pop\n        /* \"pratical_no 2./Logical_oprator.sol\":286:301  bool logicalnot */\n      0x00\n        /* \"pratical_no 2./Logical_oprator.sol\":305:306  b */\n      dup7\n        /* \"pratical_no 2./Logical_oprator.sol\":304:306  !b */\n      iszero\n        /* \"pratical_no 2./Logical_oprator.sol\":286:306  bool logicalnot = !b */\n      swap1\n      pop\n        /* \"pratical_no 2./Logical_oprator.sol\":321:331  logicaland */\n      dup3\n        /* \"pratical_no 2./Logical_oprator.sol\":333:342  logicalor */\n      dup3\n        /* \"pratical_no 2./Logical_oprator.sol\":344:354  logicalnot */\n      dup3\n        /* \"pratical_no 2./Logical_oprator.sol\":313:355  return (logicaland, logicalor, logicalnot) */\n      swap6\n      pop\n      swap6\n      pop\n      swap6\n      pop\n      pop\n      pop\n      pop\n        /* \"pratical_no 2./Logical_oprator.sol\":89:359  function logicaloperator (bool a , bool b) public pure returns (bool, bool, bool) {\r... */\n      swap3\n      pop\n      swap3\n      pop\n      swap3\n      jump\t// out\n        /* \"#utility.yul\":7:140   */\n    tag_14:\n      0x00\n        /* \"#utility.yul\":88:94   */\n      dup2\n        /* \"#utility.yul\":75:95   */\n      calldataload\n        /* \"#utility.yul\":66:95   */\n      swap1\n      pop\n        /* \"#utility.yul\":104:134   */\n      tag_16\n        /* \"#utility.yul\":128:133   */\n      dup2\n        /* \"#utility.yul\":104:134   */\n      tag_17\n      jump\t// in\n    tag_16:\n        /* \"#utility.yul\":56:140   */\n      swap3\n      swap2\n      pop\n      pop\n      jump\t// out\n        /* \"#utility.yul\":146:541   */\n    tag_6:\n      0x00\n      dup1\n        /* \"#utility.yul\":265:267   */\n      0x40\n        /* \"#utility.yul\":253:262   */\n      dup4\n        /* \"#utility.yul\":244:251   */\n      dup6\n        /* \"#utility.yul\":240:263   */\n      sub\n        /* \"#utility.yul\":236:268   */\n      slt\n        /* \"#utility.yul\":233:235   */\n      iszero\n      tag_19\n      jumpi\n        /* \"#utility.yul\":281:282   */\n      0x00\n        /* \"#utility.yul\":278:279   */\n      dup1\n        /* \"#utility.yul\":271:283   */\n      revert\n        /* \"#utility.yul\":233:235   */\n    tag_19:\n        /* \"#utility.yul\":324:325   */\n      0x00\n        /* \"#utility.yul\":349:399   */\n      tag_20\n        /* \"#utility.yul\":391:398   */\n      dup6\n        /* \"#utility.yul\":382:388   */\n      dup3\n        /* \"#utility.yul\":371:380   */\n      dup7\n        /* \"#utility.yul\":367:389   */\n      add\n        /* \"#utility.yul\":349:399   */\n      tag_14\n      jump\t// in\n    tag_20:\n        /* \"#utility.yul\":339:399   */\n      swap3\n      pop\n        /* \"#utility.yul\":295:409   */\n      pop\n        /* \"#utility.yul\":448:450   */\n      0x20\n        /* \"#utility.yul\":474:524   */\n      tag_21\n        /* \"#utility.yul\":516:523   */\n      dup6\n        /* \"#utility.yul\":507:513   */\n      dup3\n        /* \"#utility.yul\":496:505   */\n      dup7\n        /* \"#utility.yul\":492:514   */\n      add\n        /* \"#utility.yul\":474:524   */\n      tag_14\n      jump\t// in\n    tag_21:\n        /* \"#utility.yul\":464:524   */\n      swap2\n      pop\n        /* \"#utility.yul\":419:534   */\n      pop\n        /* \"#utility.yul\":223:541   */\n      swap3\n      pop\n      swap3\n      swap1\n      pop\n      jump\t// out\n        /* \"#utility.yul\":547:656   */\n    tag_22:\n        /* \"#utility.yul\":628:649   */\n      tag_24\n        /* \"#utility.yul\":643:648   */\n      dup2\n        /* \"#utility.yul\":628:649   */\n      tag_25\n      jump\t// in\n    tag_24:\n        /* \"#utility.yul\":623:626   */\n      dup3\n        /* \"#utility.yul\":616:650   */\n      mstore\n        /* \"#utility.yul\":606:656   */\n      pop\n      pop\n      jump\t// out\n        /* \"#utility.yul\":662:1068   */\n    tag_9:\n      0x00\n        /* \"#utility.yul\":831:833   */\n      0x60\n        /* \"#utility.yul\":820:829   */\n      dup3\n        /* \"#utility.yul\":816:834   */\n      add\n        /* \"#utility.yul\":808:834   */\n      swap1\n      pop\n        /* \"#utility.yul\":844:909   */\n      tag_27\n        /* \"#utility.yul\":906:907   */\n      0x00\n        /* \"#utility.yul\":895:904   */\n      dup4\n        /* \"#utility.yul\":891:908   */\n      add\n        /* \"#utility.yul\":882:888   */\n      dup7\n        /* \"#utility.yul\":844:909   */\n      tag_22\n      jump\t// in\n    tag_27:\n        /* \"#utility.yul\":919:985   */\n      tag_28\n        /* \"#utility.yul\":981:983   */\n      0x20\n        /* \"#utility.yul\":970:979   */\n      dup4\n        /* \"#utility.yul\":966:984   */\n      add\n        /* \"#utility.yul\":957:963   */\n      dup6\n        /* \"#utility.yul\":919:985   */\n      tag_22\n      jump\t// in\n    tag_28:\n        /* \"#utility.yul\":995:1061   */\n      tag_29\n        /* \"#utility.yul\":1057:1059   */\n      0x40\n        /* \"#utility.yul\":1046:1055   */\n      dup4\n        /* \"#utility.yul\":1042:1060   */\n      add\n        /* \"#utility.yul\":1033:1039   */\n      dup5\n        /* \"#utility.yul\":995:1061   */\n      tag_22\n      jump\t// in\n    tag_29:\n        /* \"#utility.yul\":798:1068   */\n      swap5\n      swap4\n      pop\n      pop\n      pop\n      pop\n      jump\t// out\n        /* \"#utility.yul\":1074:1164   */\n    tag_25:\n      0x00\n        /* \"#utility.yul\":1151:1156   */\n      dup2\n        /* \"#utility.yul\":1144:1157   */\n      iszero\n        /* \"#utility.yul\":1137:1158   */\n      iszero\n        /* \"#utility.yul\":1126:1158   */\n      swap1\n      pop\n        /* \"#utility.yul\":1116:1164   */\n      swap2\n      swap1\n      pop\n      jump\t// out\n        /* \"#utility.yul\":1170:1286   */\n    tag_17:\n        /* \"#utility.yul\":1240:1261   */\n      tag_32\n        /* \"#utility.yul\":1255:1260   */\n      dup2\n        /* \"#utility.yul\":1240:1261   */\n      tag_25\n      jump\t// in\n    tag_32:\n        /* \"#utility.yul\":1233:1238   */\n      dup2\n        /* \"#utility.yul\":1230:1262   */\n      eq\n        /* \"#utility.yul\":1220:1222   */\n      tag_33\n      jumpi\n        /* \"#utility.yul\":1276:1277   */\n      0x00\n        /* \"#utility.yul\":1273:1274   */\n      dup1\n        /* \"#utility.yul\":1266:1278   */\n      revert\n        /* \"#utility.yul\":1220:1222   */\n    tag_33:\n        /* \"#utility.yul\":1210:1286   */\n      pop\n      jump\t// out\n\n    auxdata: 0xa26469706673582212209fa3bb7e82fe418511032d62892c4685034405b2f9d8eeb5e18a80a30e2d541364736f6c63430008000033\n}\n",
				"bytecode": {
					"linkReferences": {},
					"object": "608060405234801561001057600080fd5b5061018a806100206000396000f3fe608060405234801561001057600080fd5b506004361061002b5760003560e01c80637b37720714610030575b600080fd5b61004a600480360381019061004591906100af565b610062565b604051610059939291906100fa565b60405180910390f35b6000806000808580156100725750845b90506000868061007f5750855b90506000861590508282829550955095505050509250925092565b6000813590506100a98161013d565b92915050565b600080604083850312156100c257600080fd5b60006100d08582860161009a565b92505060206100e18582860161009a565b9150509250929050565b6100f481610131565b82525050565b600060608201905061010f60008301866100eb565b61011c60208301856100eb565b61012960408301846100eb565b949350505050565b60008115159050919050565b61014681610131565b811461015157600080fd5b5056fea26469706673582212209fa3bb7e82fe418511032d62892c4685034405b2f9d8eeb5e18a80a30e2d541364736f6c63430008000033",
					"opcodes": "PUSH1 0x80 PUSH1 0x40 MSTORE CALLVALUE DUP1 ISZERO PUSH2 0x10 JUMPI PUSH1 0x0 DUP1 REVERT JUMPDEST POP PUSH2 0x18A DUP1 PUSH2 0x20 PUSH1 0x0 CODECOPY PUSH1 0x0 RETURN INVALID PUSH1 0x80 PUSH1 0x40 MSTORE CALLVALUE DUP1 ISZERO PUSH2 0x10 JUMPI PUSH1 0x0 DUP1 REVERT JUMPDEST POP PUSH1 0x4 CALLDATASIZE LT PUSH2 0x2B JUMPI PUSH1 0x0 CALLDATALOAD PUSH1 0xE0 SHR DUP1 PUSH4 0x7B377207 EQ PUSH2 0x30 JUMPI JUMPDEST PUSH1 0x0 DUP1 REVERT JUMPDEST PUSH2 0x4A PUSH1 0x4 DUP1 CALLDATASIZE SUB DUP2 ADD SWAP1 PUSH2 0x45 SWAP2 SWAP1 PUSH2 0xAF JUMP JUMPDEST PUSH2 0x62 JUMP JUMPDEST PUSH1 0x40 MLOAD PUSH2 0x59 SWAP4 SWAP3 SWAP2 SWAP1 PUSH2 0xFA JUMP JUMPDEST PUSH1 0x40 MLOAD DUP1 SWAP2 SUB SWAP1 RETURN JUMPDEST PUSH1 0x0 DUP1 PUSH1 0x0 DUP1 DUP6 DUP1 ISZERO PUSH2 0x72 JUMPI POP DUP5 JUMPDEST SWAP1 POP PUSH1 0x0 DUP7 DUP1 PUSH2 0x7F JUMPI POP DUP6 JUMPDEST SWAP1 POP PUSH1 0x0 DUP7 ISZERO SWAP1 POP DUP3 DUP3 DUP3 SWAP6 POP SWAP6 POP SWAP6 POP POP POP POP SWAP3 POP SWAP3 POP SWAP3 JUMP JUMPDEST PUSH1 0x0 DUP2 CALLDATALOAD SWAP1 POP PUSH2 0xA9 DUP2 PUSH2 0x13D JUMP JUMPDEST SWAP3 SWAP2 POP POP JUMP JUMPDEST PUSH1 0x0 DUP1 PUSH1 0x40 DUP4 DUP6 SUB SLT ISZERO PUSH2 0xC2 JUMPI PUSH1 0x0 DUP1 REVERT JUMPDEST PUSH1 0x0 PUSH2 0xD0 DUP6 DUP3 DUP7 ADD PUSH2 0x9A JUMP JUMPDEST SWAP3 POP POP PUSH1 0x20 PUSH2 0xE1 DUP6 DUP3 DUP7 ADD PUSH2 0x9A JUMP JUMPDEST SWAP2 POP POP SWAP3 POP SWAP3 SWAP1 POP JUMP JUMPDEST PUSH2 0xF4 DUP2 PUSH2 0x131 JUMP JUMPDEST DUP3 MSTORE POP POP JUMP JUMPDEST PUSH1 0x0 PUSH1 0x60 DUP3 ADD SWAP1 POP PUSH2 0x10F PUSH1 0x0 DUP4 ADD DUP7 PUSH2 0xEB JUMP JUMPDEST PUSH2 0x11C PUSH1 0x20 DUP4 ADD DUP6 PUSH2 0xEB JUMP JUMPDEST PUSH2 0x129 PUSH1 0x40 DUP4 ADD DUP5 PUSH2 0xEB JUMP JUMPDEST SWAP5 SWAP4 POP POP POP POP JUMP JUMPDEST PUSH1 0x0 DUP2 ISZERO ISZERO SWAP1 POP SWAP2 SWAP1 POP JUMP JUMPDEST PUSH2 0x146 DUP2 PUSH2 0x131 JUMP JUMPDEST DUP2 EQ PUSH2 0x151 JUMPI PUSH1 0x0 DUP1 REVERT JUMPDEST POP JUMP INVALID LOG2 PUSH5 0x6970667358 0x22 SLT KECCAK256 SWAP16 LOG3 0xBB PUSH31 0x82FE418511032D62892C4685034405B2F9D8EEB5E18A80A30E2D541364736F PUSH13 0x63430008000033000000000000 "
				},
				"gasEstimates": {
					"creation": {
						"codeDepositCost": "78800",
						"executionCost": "129",
						"totalCost": "78929"
					},
					"external": {
						"logicaloperator(bool,bool)": "infinite"
					}
				},
				"methodIdentifiers": {
					"logicaloperator(bool,bool)": "7b377207"
				}
			},
			"storageLayout": {
				"storage": [],
				"types": null
			},
			"userdoc": {
				"kind": "user",
				"methods": {},
				"version": 1
			}
		}
	}
}