{
	"pratical_no 2./Betwise_oprator.sol": {
		"SolidityTest": {
			"abi": [
				{
					"inputs": [],
					"name": "a",
					"outputs": [
						{
							"internalType": "uint16",
							"name": "",
							"type": "uint16"
						}
					],
					"stateMutability": "view",
					"type": "function"
				},
				{
					"inputs": [],
					"name": "and",
					"outputs": [
						{
							"internalType": "uint16",
							"name": "",
							"type": "uint16"
						}
					],
					"stateMutability": "view",
					"type": "function"
				},
				{
					"inputs": [],
					"name": "b",
					"outputs": [
						{
							"internalType": "uint16",
							"name": "",
							"type": "uint16"
						}
					],
					"stateMutability": "view",
					"type": "function"
				},
				{
					"inputs": [],
					"name": "leftshift",
					"outputs": [
						{
							"internalType": "uint16",
							"name": "",
							"type": "uint16"
						}
					],
					"stateMutability": "view",
					"type": "function"
				},
				{
					"inputs": [],
					"name": "not",
					"outputs": [
						{
							"internalType": "uint16",
							"name": "",
							"type": "uint16"
						}
					],
					"stateMutability": "view",
					"type": "function"
				},
				{
					"inputs": [],
					"name": "or",
					"outputs": [
						{
							"internalType": "uint16",
							"name": "",
							"type": "uint16"
						}
					],
					"stateMutability": "view",
					"type": "function"
				},
				{
					"inputs": [],
					"name": "rightshift",
					"outputs": [
						{
							"internalType": "uint16",
							"name": "",
							"type": "uint16"
						}
					],
					"stateMutability": "view",
					"type": "function"
				},
				{
					"inputs": [],
					"name": "xor",
					"outputs": [
						{
							"internalType": "uint16",
							"name": "",
							"type": "uint16"
						}
					],
					"stateMutability": "view",
					"type": "function"
				}
			],
			"devdoc": {
				"kind": "dev",
				"methods": {},
				"version": 1
			},
			"evm": {
				"assembly": "    /* \"pratical_no 2./Betwise_oprator.sol\":68:365  contract SolidityTest {\r... */\n  mstore(0x40, 0x80)\n    /* \"pratical_no 2./Betwise_oprator.sol\":117:119  20 */\n  0x14\n    /* \"pratical_no 2./Betwise_oprator.sol\":99:119  uint16 public a = 20 */\n  0x00\n  dup1\n  0x0100\n  exp\n  dup2\n  sload\n  dup2\n  0xffff\n  mul\n  not\n  and\n  swap1\n  dup4\n  0xffff\n  and\n  mul\n  or\n  swap1\n  sstore\n  pop\n    /* \"pratical_no 2./Betwise_oprator.sol\":141:143  10 */\n  0x0a\n    /* \"pratical_no 2./Betwise_oprator.sol\":123:143  uint16 public b = 10 */\n  0x00\n  exp(0x0100, 0x02)\n  dup2\n  sload\n  dup2\n  0xffff\n  mul\n  not\n  and\n  swap1\n  dup4\n  0xffff\n  and\n  mul\n  or\n  swap1\n  sstore\n  pop\n    /* \"pratical_no 2./Betwise_oprator.sol\":176:177  b */\n  0x00\n  0x02\n  swap1\n  sload\n  swap1\n  0x0100\n  exp\n  swap1\n  div\n  0xffff\n  and\n    /* \"pratical_no 2./Betwise_oprator.sol\":172:173  a */\n  0x00\n  dup1\n  sload\n  swap1\n  0x0100\n  exp\n  swap1\n  div\n  0xffff\n  and\n    /* \"pratical_no 2./Betwise_oprator.sol\":172:177  a & b */\n  and\n    /* \"pratical_no 2./Betwise_oprator.sol\":152:177  uint16 public and = a & b */\n  0x00\n  exp(0x0100, 0x04)\n  dup2\n  sload\n  dup2\n  0xffff\n  mul\n  not\n  and\n  swap1\n  dup4\n  0xffff\n  and\n  mul\n  or\n  swap1\n  sstore\n  pop\n    /* \"pratical_no 2./Betwise_oprator.sol\":209:210  b */\n  0x00\n  0x02\n  swap1\n  sload\n  swap1\n  0x0100\n  exp\n  swap1\n  div\n  0xffff\n  and\n    /* \"pratical_no 2./Betwise_oprator.sol\":205:206  a */\n  0x00\n  dup1\n  sload\n  swap1\n  0x0100\n  exp\n  swap1\n  div\n  0xffff\n  and\n    /* \"pratical_no 2./Betwise_oprator.sol\":205:210  a | b */\n  or\n    /* \"pratical_no 2./Betwise_oprator.sol\":186:210  uint16 public or = a | b */\n  0x00\n  exp(0x0100, 0x06)\n  dup2\n  sload\n  dup2\n  0xffff\n  mul\n  not\n  and\n  swap1\n  dup4\n  0xffff\n  and\n  mul\n  or\n  swap1\n  sstore\n  pop\n    /* \"pratical_no 2./Betwise_oprator.sol\":243:244  b */\n  0x00\n  0x02\n  swap1\n  sload\n  swap1\n  0x0100\n  exp\n  swap1\n  div\n  0xffff\n  and\n    /* \"pratical_no 2./Betwise_oprator.sol\":239:240  a */\n  0x00\n  dup1\n  sload\n  swap1\n  0x0100\n  exp\n  swap1\n  div\n  0xffff\n  and\n    /* \"pratical_no 2./Betwise_oprator.sol\":239:244  a ^ b */\n  xor\n    /* \"pratical_no 2./Betwise_oprator.sol\":219:244  uint16 public xor = a ^ b */\n  0x00\n  exp(0x0100, 0x08)\n  dup2\n  sload\n  dup2\n  0xffff\n  mul\n  not\n  and\n  swap1\n  dup4\n  0xffff\n  and\n  mul\n  or\n  swap1\n  sstore\n  pop\n    /* \"pratical_no 2./Betwise_oprator.sol\":283:284  b */\n  0x00\n  0x02\n  swap1\n  sload\n  swap1\n  0x0100\n  exp\n  swap1\n  div\n  0xffff\n  and\n    /* \"pratical_no 2./Betwise_oprator.sol\":278:284  a << b */\n  0xffff\n  and\n    /* \"pratical_no 2./Betwise_oprator.sol\":278:279  a */\n  0x00\n  dup1\n  sload\n  swap1\n  0x0100\n  exp\n  swap1\n  div\n  0xffff\n  and\n    /* \"pratical_no 2./Betwise_oprator.sol\":278:284  a << b */\n  0xffff\n  and\n  swap1\n  shl\n    /* \"pratical_no 2./Betwise_oprator.sol\":252:284  uint16 public leftshift = a << b */\n  0x00\n  exp(0x0100, 0x0a)\n  dup2\n  sload\n  dup2\n  0xffff\n  mul\n  not\n  and\n  swap1\n  dup4\n  0xffff\n  and\n  mul\n  or\n  swap1\n  sstore\n  pop\n    /* \"pratical_no 2./Betwise_oprator.sol\":325:326  b */\n  0x00\n  0x02\n  swap1\n  sload\n  swap1\n  0x0100\n  exp\n  swap1\n  div\n  0xffff\n  and\n    /* \"pratical_no 2./Betwise_oprator.sol\":320:326  a >> b */\n  0xffff\n  and\n    /* \"pratical_no 2./Betwise_oprator.sol\":320:321  a */\n  0x00\n  dup1\n  sload\n  swap1\n  0x0100\n  exp\n  swap1\n  div\n  0xffff\n  and\n    /* \"pratical_no 2./Betwise_oprator.sol\":320:326  a >> b */\n  0xffff\n  and\n  swap1\n  shr\n    /* \"pratical_no 2./Betwise_oprator.sol\":293:326  uint16 public rightshift = a >> b */\n  0x00\n  exp(0x0100, 0x0c)\n  dup2\n  sload\n  dup2\n  0xffff\n  mul\n  not\n  and\n  swap1\n  dup4\n  0xffff\n  and\n  mul\n  or\n  swap1\n  sstore\n  pop\n    /* \"pratical_no 2./Betwise_oprator.sol\":356:357  a */\n  0x00\n  dup1\n  sload\n  swap1\n  0x0100\n  exp\n  swap1\n  div\n  0xffff\n  and\n    /* \"pratical_no 2./Betwise_oprator.sol\":355:357  ~a */\n  not\n    /* \"pratical_no 2./Betwise_oprator.sol\":335:357  uint16 public not = ~a */\n  0x00\n  exp(0x0100, 0x0e)\n  dup2\n  sload\n  dup2\n  0xffff\n  mul\n  not\n  and\n  swap1\n  dup4\n  0xffff\n  and\n  mul\n  or\n  swap1\n  sstore\n  pop\n    /* \"pratical_no 2./Betwise_oprator.sol\":68:365  contract SolidityTest {\r... */\n  callvalue\n  dup1\n  iszero\n  tag_1\n  jumpi\n  0x00\n  dup1\n  revert\ntag_1:\n  pop\n  dataSize(sub_0)\n  dup1\n  dataOffset(sub_0)\n  0x00\n  codecopy\n  0x00\n  return\nstop\n\nsub_0: assembly {\n        /* \"pratical_no 2./Betwise_oprator.sol\":68:365  contract SolidityTest {\r... */\n      mstore(0x40, 0x80)\n      callvalue\n      dup1\n      iszero\n      tag_1\n      jumpi\n      0x00\n      dup1\n      revert\n    tag_1:\n      pop\n      jumpi(tag_2, lt(calldatasize, 0x04))\n      shr(0xe0, calldataload(0x00))\n      dup1\n      0x2e13bd10\n      gt\n      tag_11\n      jumpi\n      dup1\n      0x2e13bd10\n      eq\n      tag_7\n      jumpi\n      dup1\n      0x4df7e3d0\n      eq\n      tag_8\n      jumpi\n      dup1\n      0x5ada0c68\n      eq\n      tag_9\n      jumpi\n      dup1\n      0x9542f2e0\n      eq\n      tag_10\n      jumpi\n      jump(tag_2)\n    tag_11:\n      dup1\n      0x0dbe671f\n      eq\n      tag_3\n      jumpi\n      dup1\n      0x1eab7977\n      eq\n      tag_4\n      jumpi\n      dup1\n      0x26912c48\n      eq\n      tag_5\n      jumpi\n      dup1\n      0x2d5e74d8\n      eq\n      tag_6\n      jumpi\n    tag_2:\n      0x00\n      dup1\n      revert\n        /* \"pratical_no 2./Betwise_oprator.sol\":99:119  uint16 public a = 20 */\n    tag_3:\n      tag_12\n      tag_13\n      jump\t// in\n    tag_12:\n      mload(0x40)\n      tag_14\n      swap2\n      swap1\n      tag_15\n      jump\t// in\n    tag_14:\n      mload(0x40)\n      dup1\n      swap2\n      sub\n      swap1\n      return\n        /* \"pratical_no 2./Betwise_oprator.sol\":252:284  uint16 public leftshift = a << b */\n    tag_4:\n      tag_16\n      tag_17\n      jump\t// in\n    tag_16:\n      mload(0x40)\n      tag_18\n      swap2\n      swap1\n      tag_15\n      jump\t// in\n    tag_18:\n      mload(0x40)\n      dup1\n      swap2\n      sub\n      swap1\n      return\n        /* \"pratical_no 2./Betwise_oprator.sol\":293:326  uint16 public rightshift = a >> b */\n    tag_5:\n      tag_19\n      tag_20\n      jump\t// in\n    tag_19:\n      mload(0x40)\n      tag_21\n      swap2\n      swap1\n      tag_15\n      jump\t// in\n    tag_21:\n      mload(0x40)\n      dup1\n      swap2\n      sub\n      swap1\n      return\n        /* \"pratical_no 2./Betwise_oprator.sol\":186:210  uint16 public or = a | b */\n    tag_6:\n      tag_22\n      tag_23\n      jump\t// in\n    tag_22:\n      mload(0x40)\n      tag_24\n      swap2\n      swap1\n      tag_15\n      jump\t// in\n    tag_24:\n      mload(0x40)\n      dup1\n      swap2\n      sub\n      swap1\n      return\n        /* \"pratical_no 2./Betwise_oprator.sol\":335:357  uint16 public not = ~a */\n    tag_7:\n      tag_25\n      tag_26\n      jump\t// in\n    tag_25:\n      mload(0x40)\n      tag_27\n      swap2\n      swap1\n      tag_15\n      jump\t// in\n    tag_27:\n      mload(0x40)\n      dup1\n      swap2\n      sub\n      swap1\n      return\n        /* \"pratical_no 2./Betwise_oprator.sol\":123:143  uint16 public b = 10 */\n    tag_8:\n      tag_28\n      tag_29\n      jump\t// in\n    tag_28:\n      mload(0x40)\n      tag_30\n      swap2\n      swap1\n      tag_15\n      jump\t// in\n    tag_30:\n      mload(0x40)\n      dup1\n      swap2\n      sub\n      swap1\n      return\n        /* \"pratical_no 2./Betwise_oprator.sol\":219:244  uint16 public xor = a ^ b */\n    tag_9:\n      tag_31\n      tag_32\n      jump\t// in\n    tag_31:\n      mload(0x40)\n      tag_33\n      swap2\n      swap1\n      tag_15\n      jump\t// in\n    tag_33:\n      mload(0x40)\n      dup1\n      swap2\n      sub\n      swap1\n      return\n        /* \"pratical_no 2./Betwise_oprator.sol\":152:177  uint16 public and = a & b */\n    tag_10:\n      tag_34\n      tag_35\n      jump\t// in\n    tag_34:\n      mload(0x40)\n      tag_36\n      swap2\n      swap1\n      tag_15\n      jump\t// in\n    tag_36:\n      mload(0x40)\n      dup1\n      swap2\n      sub\n      swap1\n      return\n        /* \"pratical_no 2./Betwise_oprator.sol\":99:119  uint16 public a = 20 */\n    tag_13:\n      0x00\n      dup1\n      sload\n      swap1\n      0x0100\n      exp\n      swap1\n      div\n      0xffff\n      and\n      dup2\n      jump\t// out\n        /* \"pratical_no 2./Betwise_oprator.sol\":252:284  uint16 public leftshift = a << b */\n    tag_17:\n      0x00\n      0x0a\n      swap1\n      sload\n      swap1\n      0x0100\n      exp\n      swap1\n      div\n      0xffff\n      and\n      dup2\n      jump\t// out\n        /* \"pratical_no 2./Betwise_oprator.sol\":293:326  uint16 public rightshift = a >> b */\n    tag_20:\n      0x00\n      0x0c\n      swap1\n      sload\n      swap1\n      0x0100\n      exp\n      swap1\n      div\n      0xffff\n      and\n      dup2\n      jump\t// out\n        /* \"pratical_no 2./Betwise_oprator.sol\":186:210  uint16 public or = a | b */\n    tag_23:\n      0x00\n      0x06\n      swap1\n      sload\n      swap1\n      0x0100\n      exp\n      swap1\n      div\n      0xffff\n      and\n      dup2\n      jump\t// out\n        /* \"pratical_no 2./Betwise_oprator.sol\":335:357  uint16 public not = ~a */\n    tag_26:\n      0x00\n      0x0e\n      swap1\n      sload\n      swap1\n      0x0100\n      exp\n      swap1\n      div\n      0xffff\n      and\n      dup2\n      jump\t// out\n        /* \"pratical_no 2./Betwise_oprator.sol\":123:143  uint16 public b = 10 */\n    tag_29:\n      0x00\n      0x02\n      swap1\n      sload\n      swap1\n      0x0100\n      exp\n      swap1\n      div\n      0xffff\n      and\n      dup2\n      jump\t// out\n        /* \"pratical_no 2./Betwise_oprator.sol\":219:244  uint16 public xor = a ^ b */\n    tag_32:\n      0x00\n      0x08\n      swap1\n      sload\n      swap1\n      0x0100\n      exp\n      swap1\n      div\n      0xffff\n      and\n      dup2\n      jump\t// out\n        /* \"pratical_no 2./Betwise_oprator.sol\":152:177  uint16 public and = a & b */\n    tag_35:\n      0x00\n      0x04\n      swap1\n      sload\n      swap1\n      0x0100\n      exp\n      swap1\n      div\n      0xffff\n      and\n      dup2\n      jump\t// out\n        /* \"#utility.yul\":7:122   */\n    tag_38:\n        /* \"#utility.yul\":92:115   */\n      tag_40\n        /* \"#utility.yul\":109:114   */\n      dup2\n        /* \"#utility.yul\":92:115   */\n      tag_41\n      jump\t// in\n    tag_40:\n        /* \"#utility.yul\":87:90   */\n      dup3\n        /* \"#utility.yul\":80:116   */\n      mstore\n        /* \"#utility.yul\":70:122   */\n      pop\n      pop\n      jump\t// out\n        /* \"#utility.yul\":128:346   */\n    tag_15:\n      0x00\n        /* \"#utility.yul\":257:259   */\n      0x20\n        /* \"#utility.yul\":246:255   */\n      dup3\n        /* \"#utility.yul\":242:260   */\n      add\n        /* \"#utility.yul\":234:260   */\n      swap1\n      pop\n        /* \"#utility.yul\":270:339   */\n      tag_43\n        /* \"#utility.yul\":336:337   */\n      0x00\n        /* \"#utility.yul\":325:334   */\n      dup4\n        /* \"#utility.yul\":321:338   */\n      add\n        /* \"#utility.yul\":312:318   */\n      dup5\n        /* \"#utility.yul\":270:339   */\n      tag_38\n      jump\t// in\n    tag_43:\n        /* \"#utility.yul\":224:346   */\n      swap3\n      swap2\n      pop\n      pop\n      jump\t// out\n        /* \"#utility.yul\":352:441   */\n    tag_41:\n      0x00\n        /* \"#utility.yul\":428:434   */\n      0xffff\n        /* \"#utility.yul\":421:426   */\n      dup3\n        /* \"#utility.yul\":417:435   */\n      and\n        /* \"#utility.yul\":406:435   */\n      swap1\n      pop\n        /* \"#utility.yul\":396:441   */\n      swap2\n      swap1\n      pop\n      jump\t// out\n\n    auxdata: 0xa26469706673582212201d39ab360d7f2ab2a01da927f23c3e4f2bab340bbc798d91d428c421465ed1e864736f6c63430008000033\n}\n",
				"bytecode": {
					"linkReferences": {},
					"object": "608060405260146000806101000a81548161ffff021916908361ffff160217905550600a600060026101000a81548161ffff021916908361ffff160217905550600060029054906101000a900461ffff1660008054906101000a900461ffff1616600060046101000a81548161ffff021916908361ffff160217905550600060029054906101000a900461ffff1660008054906101000a900461ffff1617600060066101000a81548161ffff021916908361ffff160217905550600060029054906101000a900461ffff1660008054906101000a900461ffff1618600060086101000a81548161ffff021916908361ffff160217905550600060029054906101000a900461ffff1661ffff1660008054906101000a900461ffff1661ffff16901b6000600a6101000a81548161ffff021916908361ffff160217905550600060029054906101000a900461ffff1661ffff1660008054906101000a900461ffff1661ffff16901c6000600c6101000a81548161ffff021916908361ffff16021790555060008054906101000a900461ffff16196000600e6101000a81548161ffff021916908361ffff1602179055503480156101ba57600080fd5b50610289806101ca6000396000f3fe608060405234801561001057600080fd5b50600436106100885760003560e01c80632e13bd101161005b5780632e13bd10146101055780634df7e3d0146101235780635ada0c68146101415780639542f2e01461015f57610088565b80630dbe671f1461008d5780631eab7977146100ab57806326912c48146100c95780632d5e74d8146100e7575b600080fd5b61009561017d565b6040516100a2919061022a565b60405180910390f35b6100b361018f565b6040516100c0919061022a565b60405180910390f35b6100d16101a3565b6040516100de919061022a565b60405180910390f35b6100ef6101b7565b6040516100fc919061022a565b60405180910390f35b61010d6101cb565b60405161011a919061022a565b60405180910390f35b61012b6101df565b604051610138919061022a565b60405180910390f35b6101496101f3565b604051610156919061022a565b60405180910390f35b610167610207565b604051610174919061022a565b60405180910390f35b60008054906101000a900461ffff1681565b6000600a9054906101000a900461ffff1681565b6000600c9054906101000a900461ffff1681565b600060069054906101000a900461ffff1681565b6000600e9054906101000a900461ffff1681565b600060029054906101000a900461ffff1681565b600060089054906101000a900461ffff1681565b600060049054906101000a900461ffff1681565b61022481610245565b82525050565b600060208201905061023f600083018461021b565b92915050565b600061ffff8216905091905056fea26469706673582212201d39ab360d7f2ab2a01da927f23c3e4f2bab340bbc798d91d428c421465ed1e864736f6c63430008000033",
					"opcodes": "PUSH1 0x80 PUSH1 0x40 MSTORE PUSH1 0x14 PUSH1 0x0 DUP1 PUSH2 0x100 EXP DUP2 SLOAD DUP2 PUSH2 0xFFFF MUL NOT AND SWAP1 DUP4 PUSH2 0xFFFF AND MUL OR SWAP1 SSTORE POP PUSH1 0xA PUSH1 0x0 PUSH1 0x2 PUSH2 0x100 EXP DUP2 SLOAD DUP2 PUSH2 0xFFFF MUL NOT AND SWAP1 DUP4 PUSH2 0xFFFF AND MUL OR SWAP1 SSTORE POP PUSH1 0x0 PUSH1 0x2 SWAP1 SLOAD SWAP1 PUSH2 0x100 EXP SWAP1 DIV PUSH2 0xFFFF AND PUSH1 0x0 DUP1 SLOAD SWAP1 PUSH2 0x100 EXP SWAP1 DIV PUSH2 0xFFFF AND AND PUSH1 0x0 PUSH1 0x4 PUSH2 0x100 EXP DUP2 SLOAD DUP2 PUSH2 0xFFFF MUL NOT AND SWAP1 DUP4 PUSH2 0xFFFF AND MUL OR SWAP1 SSTORE POP PUSH1 0x0 PUSH1 0x2 SWAP1 SLOAD SWAP1 PUSH2 0x100 EXP SWAP1 DIV PUSH2 0xFFFF AND PUSH1 0x0 DUP1 SLOAD SWAP1 PUSH2 0x100 EXP SWAP1 DIV PUSH2 0xFFFF AND OR PUSH1 0x0 PUSH1 0x6 PUSH2 0x100 EXP DUP2 SLOAD DUP2 PUSH2 0xFFFF MUL NOT AND SWAP1 DUP4 PUSH2 0xFFFF AND MUL OR SWAP1 SSTORE POP PUSH1 0x0 PUSH1 0x2 SWAP1 SLOAD SWAP1 PUSH2 0x100 EXP SWAP1 DIV PUSH2 0xFFFF AND PUSH1 0x0 DUP1 SLOAD SWAP1 PUSH2 0x100 EXP SWAP1 DIV PUSH2 0xFFFF AND XOR PUSH1 0x0 PUSH1 0x8 PUSH2 0x100 EXP DUP2 SLOAD DUP2 PUSH2 0xFFFF MUL NOT AND SWAP1 DUP4 PUSH2 0xFFFF AND MUL OR SWAP1 SSTORE POP PUSH1 0x0 PUSH1 0x2 SWAP1 SLOAD SWAP1 PUSH2 0x100 EXP SWAP1 DIV PUSH2 0xFFFF AND PUSH2 0xFFFF AND PUSH1 0x0 DUP1 SLOAD SWAP1 PUSH2 0x100 EXP SWAP1 DIV PUSH2 0xFFFF AND PUSH2 0xFFFF AND SWAP1 SHL PUSH1 0x0 PUSH1 0xA PUSH2 0x100 EXP DUP2 SLOAD DUP2 PUSH2 0xFFFF MUL NOT AND SWAP1 DUP4 PUSH2 0xFFFF AND MUL OR SWAP1 SSTORE POP PUSH1 0x0 PUSH1 0x2 SWAP1 SLOAD SWAP1 PUSH2 0x100 EXP SWAP1 DIV PUSH2 0xFFFF AND PUSH2 0xFFFF AND PUSH1 0x0 DUP1 SLOAD SWAP1 PUSH2 0x100 EXP SWAP1 DIV PUSH2 0xFFFF AND PUSH2 0xFFFF AND SWAP1 SHR PUSH1 0x0 PUSH1 0xC PUSH2 0x100 EXP DUP2 SLOAD DUP2 PUSH2 0xFFFF MUL NOT AND SWAP1 DUP4 PUSH2 0xFFFF AND MUL OR SWAP1 SSTORE POP PUSH1 0x0 DUP1 SLOAD SWAP1 PUSH2 0x100 EXP SWAP1 DIV PUSH2 0xFFFF AND NOT PUSH1 0x0 PUSH1 0xE PUSH2 0x100 EXP DUP2 SLOAD DUP2 PUSH2 0xFFFF MUL NOT AND SWAP1 DUP4 PUSH2 0xFFFF AND MUL OR SWAP1 SSTORE POP CALLVALUE DUP1 ISZERO PUSH2 0x1BA JUMPI PUSH1 0x0 DUP1 REVERT JUMPDEST POP PUSH2 0x289 DUP1 PUSH2 0x1CA PUSH1 0x0 CODECOPY PUSH1 0x0 RETURN INVALID PUSH1 0x80 PUSH1 0x40 MSTORE CALLVALUE DUP1 ISZERO PUSH2 0x10 JUMPI PUSH1 0x0 DUP1 REVERT JUMPDEST POP PUSH1 0x4 CALLDATASIZE LT PUSH2 0x88 JUMPI PUSH1 0x0 CALLDATALOAD PUSH1 0xE0 SHR DUP1 PUSH4 0x2E13BD10 GT PUSH2 0x5B JUMPI DUP1 PUSH4 0x2E13BD10 EQ PUSH2 0x105 JUMPI DUP1 PUSH4 0x4DF7E3D0 EQ PUSH2 0x123 JUMPI DUP1 PUSH4 0x5ADA0C68 EQ PUSH2 0x141 JUMPI DUP1 PUSH4 0x9542F2E0 EQ PUSH2 0x15F JUMPI PUSH2 0x88 JUMP JUMPDEST DUP1 PUSH4 0xDBE671F EQ PUSH2 0x8D JUMPI DUP1 PUSH4 0x1EAB7977 EQ PUSH2 0xAB JUMPI DUP1 PUSH4 0x26912C48 EQ PUSH2 0xC9 JUMPI DUP1 PUSH4 0x2D5E74D8 EQ PUSH2 0xE7 JUMPI JUMPDEST PUSH1 0x0 DUP1 REVERT JUMPDEST PUSH2 0x95 PUSH2 0x17D JUMP JUMPDEST PUSH1 0x40 MLOAD PUSH2 0xA2 SWAP2 SWAP1 PUSH2 0x22A JUMP JUMPDEST PUSH1 0x40 MLOAD DUP1 SWAP2 SUB SWAP1 RETURN JUMPDEST PUSH2 0xB3 PUSH2 0x18F JUMP JUMPDEST PUSH1 0x40 MLOAD PUSH2 0xC0 SWAP2 SWAP1 PUSH2 0x22A JUMP JUMPDEST PUSH1 0x40 MLOAD DUP1 SWAP2 SUB SWAP1 RETURN JUMPDEST PUSH2 0xD1 PUSH2 0x1A3 JUMP JUMPDEST PUSH1 0x40 MLOAD PUSH2 0xDE SWAP2 SWAP1 PUSH2 0x22A JUMP JUMPDEST PUSH1 0x40 MLOAD DUP1 SWAP2 SUB SWAP1 RETURN JUMPDEST PUSH2 0xEF PUSH2 0x1B7 JUMP JUMPDEST PUSH1 0x40 MLOAD PUSH2 0xFC SWAP2 SWAP1 PUSH2 0x22A JUMP JUMPDEST PUSH1 0x40 MLOAD DUP1 SWAP2 SUB SWAP1 RETURN JUMPDEST PUSH2 0x10D PUSH2 0x1CB JUMP JUMPDEST PUSH1 0x40 MLOAD PUSH2 0x11A SWAP2 SWAP1 PUSH2 0x22A JUMP JUMPDEST PUSH1 0x40 MLOAD DUP1 SWAP2 SUB SWAP1 RETURN JUMPDEST PUSH2 0x12B PUSH2 0x1DF JUMP JUMPDEST PUSH1 0x40 MLOAD PUSH2 0x138 SWAP2 SWAP1 PUSH2 0x22A JUMP JUMPDEST PUSH1 0x40 MLOAD DUP1 SWAP2 SUB SWAP1 RETURN JUMPDEST PUSH2 0x149 PUSH2 0x1F3 JUMP JUMPDEST PUSH1 0x40 MLOAD PUSH2 0x156 SWAP2 SWAP1 PUSH2 0x22A JUMP JUMPDEST PUSH1 0x40 MLOAD DUP1 SWAP2 SUB SWAP1 RETURN JUMPDEST PUSH2 0x167 PUSH2 0x207 JUMP JUMPDEST PUSH1 0x40 MLOAD PUSH2 0x174 SWAP2 SWAP1 PUSH2 0x22A JUMP JUMPDEST PUSH1 0x40 MLOAD DUP1 SWAP2 SUB SWAP1 RETURN JUMPDEST PUSH1 0x0 DUP1 SLOAD SWAP1 PUSH2 0x100 EXP SWAP1 DIV PUSH2 0xFFFF AND DUP2 JUMP JUMPDEST PUSH1 0x0 PUSH1 0xA SWAP1 SLOAD SWAP1 PUSH2 0x100 EXP SWAP1 DIV PUSH2 0xFFFF AND DUP2 JUMP JUMPDEST PUSH1 0x0 PUSH1 0xC SWAP1 SLOAD SWAP1 PUSH2 0x100 EXP SWAP1 DIV PUSH2 0xFFFF AND DUP2 JUMP JUMPDEST PUSH1 0x0 PUSH1 0x6 SWAP1 SLOAD SWAP1 PUSH2 0x100 EXP SWAP1 DIV PUSH2 0xFFFF AND DUP2 JUMP JUMPDEST PUSH1 0x0 PUSH1 0xE SWAP1 SLOAD SWAP1 PUSH2 0x100 EXP SWAP1 DIV PUSH2 0xFFFF AND DUP2 JUMP JUMPDEST PUSH1 0x0 PUSH1 0x2 SWAP1 SLOAD SWAP1 PUSH2 0x100 EXP SWAP1 DIV PUSH2 0xFFFF AND DUP2 JUMP JUMPDEST PUSH1 0x0 PUSH1 0x8 SWAP1 SLOAD SWAP1 PUSH2 0x100 EXP SWAP1 DIV PUSH2 0xFFFF AND DUP2 JUMP JUMPDEST PUSH1 0x0 PUSH1 0x4 SWAP1 SLOAD SWAP1 PUSH2 0x100 EXP SWAP1 DIV PUSH2 0xFFFF AND DUP2 JUMP JUMPDEST PUSH2 0x224 DUP2 PUSH2 0x245 JUMP JUMPDEST DUP3 MSTORE POP POP JUMP JUMPDEST PUSH1 0x0 PUSH1 0x20 DUP3 ADD SWAP1 POP PUSH2 0x23F PUSH1 0x0 DUP4 ADD DUP5 PUSH2 0x21B JUMP JUMPDEST SWAP3 SWAP2 POP POP JUMP JUMPDEST PUSH1 0x0 PUSH2 0xFFFF DUP3 AND SWAP1 POP SWAP2 SWAP1 POP JUMP INVALID LOG2 PUSH5 0x6970667358 0x22 SLT KECCAK256 SAR CODECOPY 0xAB CALLDATASIZE 0xD PUSH32 0x2AB2A01DA927F23C3E4F2BAB340BBC798D91D428C421465ED1E864736F6C6343 STOP ADDMOD STOP STOP CALLER "
				},
				"gasEstimates": {
					"creation": {
						"codeDepositCost": "129800",
						"executionCost": "176954",
						"totalCost": "306754"
					},
					"external": {
						"a()": "1169",
						"and()": "1287",
						"b()": "1243",
						"leftshift()": "1244",
						"not()": "1221",
						"or()": "1288",
						"rightshift()": "1266",
						"xor()": "1265"
					}
				},
				"methodIdentifiers": {
					"a()": "0dbe671f",
					"and()": "9542f2e0",
					"b()": "4df7e3d0",
					"leftshift()": "1eab7977",
					"not()": "2e13bd10",
					"or()": "2d5e74d8",
					"rightshift()": "26912c48",
					"xor()": "5ada0c68"
				}
			},
			"storageLayout": {
				"storage": [
					{
						"astId": 4,
						"contract": "pratical_no 2./Betwise_oprator.sol:SolidityTest",
						"label": "a",
						"offset": 0,
						"slot": "0",
						"type": "t_uint16"
					},
					{
						"astId": 7,
						"contract": "pratical_no 2./Betwise_oprator.sol:SolidityTest",
						"label": "b",
						"offset": 2,
						"slot": "0",
						"type": "t_uint16"
					},
					{
						"astId": 12,
						"contract": "pratical_no 2./Betwise_oprator.sol:SolidityTest",
						"label": "and",
						"offset": 4,
						"slot": "0",
						"type": "t_uint16"
					},
					{
						"astId": 17,
						"contract": "pratical_no 2./Betwise_oprator.sol:SolidityTest",
						"label": "or",
						"offset": 6,
						"slot": "0",
						"type": "t_uint16"
					},
					{
						"astId": 22,
						"contract": "pratical_no 2./Betwise_oprator.sol:SolidityTest",
						"label": "xor",
						"offset": 8,
						"slot": "0",
						"type": "t_uint16"
					},
					{
						"astId": 27,
						"contract": "pratical_no 2./Betwise_oprator.sol:SolidityTest",
						"label": "leftshift",
						"offset": 10,
						"slot": "0",
						"type": "t_uint16"
					},
					{
						"astId": 32,
						"contract": "pratical_no 2./Betwise_oprator.sol:SolidityTest",
						"label": "rightshift",
						"offset": 12,
						"slot": "0",
						"type": "t_uint16"
					},
					{
						"astId": 36,
						"contract": "pratical_no 2./Betwise_oprator.sol:SolidityTest",
						"label": "not",
						"offset": 14,
						"slot": "0",
						"type": "t_uint16"
					}
				],
				"types": {
					"t_uint16": {
						"encoding": "inplace",
						"label": "uint16",
						"numberOfBytes": "2"
					}
				}
			},
			"userdoc": {
				"kind": "user",
				"methods": {},
				"version": 1
			}
		}
	}
}