{
	"pratical_no 2./spacial.sol": {
		"roll": {
			"abi": [
				{
					"inputs": [
						{
							"internalType": "uint256",
							"name": "_myNumber",
							"type": "uint256"
						}
					],
					"name": "setRollNO",
					"outputs": [],
					"stateMutability": "nonpayable",
					"type": "function"
				},
				{
					"inputs": [],
					"name": "whatIsMyRollNumber",
					"outputs": [
						{
							"internalType": "uint256",
							"name": "",
							"type": "uint256"
						}
					],
					"stateMutability": "view",
					"type": "function"
				}
			],
			"devdoc": {
				"kind": "dev",
				"methods": {},
				"version": 1
			},
			"evm": {
				"assembly": "    /* \"pratical_no 2./spacial.sol\":31:303  contract roll\r... */\n  mstore(0x40, 0x80)\n  callvalue\n  dup1\n  iszero\n  tag_1\n  jumpi\n  0x00\n  dup1\n  revert\ntag_1:\n  pop\n  dataSize(sub_0)\n  dup1\n  dataOffset(sub_0)\n  0x00\n  codecopy\n  0x00\n  return\nstop\n\nsub_0: assembly {\n        /* \"pratical_no 2./spacial.sol\":31:303  contract roll\r... */\n      mstore(0x40, 0x80)\n      callvalue\n      dup1\n      iszero\n      tag_1\n      jumpi\n      0x00\n      dup1\n      revert\n    tag_1:\n      pop\n      jumpi(tag_2, lt(calldatasize, 0x04))\n      shr(0xe0, calldataload(0x00))\n      dup1\n      0x15e50260\n      eq\n      tag_3\n      jumpi\n      dup1\n      0x3eeb5710\n      eq\n      tag_4\n      jumpi\n    tag_2:\n      0x00\n      dup1\n      revert\n        /* \"pratical_no 2./spacial.sol\":101:189  function setRollNO(uint _myNumber) public\r... */\n    tag_3:\n      tag_5\n      0x04\n      dup1\n      calldatasize\n      sub\n      0x20\n      dup2\n      lt\n      iszero\n      tag_6\n      jumpi\n      0x00\n      dup1\n      revert\n    tag_6:\n      dup2\n      add\n      swap1\n      dup1\n      dup1\n      calldataload\n      swap1\n      0x20\n      add\n      swap1\n      swap3\n      swap2\n      swap1\n      pop\n      pop\n      pop\n      tag_7\n      jump\t// in\n    tag_5:\n      stop\n        /* \"pratical_no 2./spacial.sol\":198:300  function whatIsMyRollNumber()\r... */\n    tag_4:\n      tag_8\n      tag_9\n      jump\t// in\n    tag_8:\n      mload(0x40)\n      dup1\n      dup3\n      dup2\n      mstore\n      0x20\n      add\n      swap2\n      pop\n      pop\n      mload(0x40)\n      dup1\n      swap2\n      sub\n      swap1\n      return\n        /* \"pratical_no 2./spacial.sol\":101:189  function setRollNO(uint _myNumber) public\r... */\n    tag_7:\n        /* \"pratical_no 2./spacial.sol\":175:184  _myNumber */\n      dup1\n        /* \"pratical_no 2./spacial.sol\":154:160  rollNo */\n      0x00\n        /* \"pratical_no 2./spacial.sol\":154:172  rollNo[msg.sender] */\n      dup1\n        /* \"pratical_no 2./spacial.sol\":161:171  msg.sender */\n      caller\n        /* \"pratical_no 2./spacial.sol\":154:172  rollNo[msg.sender] */\n      0xffffffffffffffffffffffffffffffffffffffff\n      and\n      0xffffffffffffffffffffffffffffffffffffffff\n      and\n      dup2\n      mstore\n      0x20\n      add\n      swap1\n      dup2\n      mstore\n      0x20\n      add\n      0x00\n      keccak256\n        /* \"pratical_no 2./spacial.sol\":154:184  rollNo[msg.sender] = _myNumber */\n      dup2\n      swap1\n      sstore\n      pop\n        /* \"pratical_no 2./spacial.sol\":101:189  function setRollNO(uint _myNumber) public\r... */\n      pop\n      jump\t// out\n        /* \"pratical_no 2./spacial.sol\":198:300  function whatIsMyRollNumber()\r... */\n    tag_9:\n        /* \"pratical_no 2./spacial.sol\":253:257  uint */\n      0x00\n        /* \"pratical_no 2./spacial.sol\":277:283  rollNo */\n      dup1\n        /* \"pratical_no 2./spacial.sol\":277:295  rollNo[msg.sender] */\n      0x00\n        /* \"pratical_no 2./spacial.sol\":284:294  msg.sender */\n      caller\n        /* \"pratical_no 2./spacial.sol\":277:295  rollNo[msg.sender] */\n      0xffffffffffffffffffffffffffffffffffffffff\n      and\n      0xffffffffffffffffffffffffffffffffffffffff\n      and\n      dup2\n      mstore\n      0x20\n      add\n      swap1\n      dup2\n      mstore\n      0x20\n      add\n      0x00\n      keccak256\n      sload\n        /* \"pratical_no 2./spacial.sol\":270:295  return rollNo[msg.sender] */\n      swap1\n      pop\n        /* \"pratical_no 2./spacial.sol\":198:300  function whatIsMyRollNumber()\r... */\n      swap1\n      jump\t// out\n\n    auxdata: 0xa26469706673582212201a521606d0e002ce3bec0f9dd6e3549fb6580ba859817d8c2edf349b65420ad664736f6c634300060c0033\n}\n",
				"bytecode": {
					"linkReferences": {},
					"object": "608060405234801561001057600080fd5b50610149806100206000396000f3fe608060405234801561001057600080fd5b50600436106100365760003560e01c806315e502601461003b5780633eeb571014610069575b600080fd5b6100676004803603602081101561005157600080fd5b8101908080359060200190929190505050610087565b005b6100716100cd565b6040518082815260200191505060405180910390f35b806000803373ffffffffffffffffffffffffffffffffffffffff1673ffffffffffffffffffffffffffffffffffffffff1681526020019081526020016000208190555050565b60008060003373ffffffffffffffffffffffffffffffffffffffff1673ffffffffffffffffffffffffffffffffffffffff1681526020019081526020016000205490509056fea26469706673582212201a521606d0e002ce3bec0f9dd6e3549fb6580ba859817d8c2edf349b65420ad664736f6c634300060c0033",
					"opcodes": "PUSH1 0x80 PUSH1 0x40 MSTORE CALLVALUE DUP1 ISZERO PUSH2 0x10 JUMPI PUSH1 0x0 DUP1 REVERT JUMPDEST POP PUSH2 0x149 DUP1 PUSH2 0x20 PUSH1 0x0 CODECOPY PUSH1 0x0 RETURN INVALID PUSH1 0x80 PUSH1 0x40 MSTORE CALLVALUE DUP1 ISZERO PUSH2 0x10 JUMPI PUSH1 0x0 DUP1 REVERT JUMPDEST POP PUSH1 0x4 CALLDATASIZE LT PUSH2 0x36 JUMPI PUSH1 0x0 CALLDATALOAD PUSH1 0xE0 SHR DUP1 PUSH4 0x15E50260 EQ PUSH2 0x3B JUMPI DUP1 PUSH4 0x3EEB5710 EQ PUSH2 0x69 JUMPI JUMPDEST PUSH1 0x0 DUP1 REVERT JUMPDEST PUSH2 0x67 PUSH1 0x4 DUP1 CALLDATASIZE SUB PUSH1 0x20 DUP2 LT ISZERO PUSH2 0x51 JUMPI PUSH1 0x0 DUP1 REVERT JUMPDEST DUP2 ADD SWAP1 DUP1 DUP1 CALLDATALOAD SWAP1 PUSH1 0x20 ADD SWAP1 SWAP3 SWAP2 SWAP1 POP POP POP PUSH2 0x87 JUMP JUMPDEST STOP JUMPDEST PUSH2 0x71 PUSH2 0xCD JUMP JUMPDEST PUSH1 0x40 MLOAD DUP1 DUP3 DUP2 MSTORE PUSH1 0x20 ADD SWAP2 POP POP PUSH1 0x40 MLOAD DUP1 SWAP2 SUB SWAP1 RETURN JUMPDEST DUP1 PUSH1 0x0 DUP1 CALLER PUSH20 0xFFFFFFFFFFFFFFFFFFFFFFFFFFFFFFFFFFFFFFFF AND PUSH20 0xFFFFFFFFFFFFFFFFFFFFFFFFFFFFFFFFFFFFFFFF AND DUP2 MSTORE PUSH1 0x20 ADD SWAP1 DUP2 MSTORE PUSH1 0x20 ADD PUSH1 0x0 KECCAK256 DUP2 SWAP1 SSTORE POP POP JUMP JUMPDEST PUSH1 0x0 DUP1 PUSH1 0x0 CALLER PUSH20 0xFFFFFFFFFFFFFFFFFFFFFFFFFFFFFFFFFFFFFFFF AND PUSH20 0xFFFFFFFFFFFFFFFFFFFFFFFFFFFFFFFFFFFFFFFF AND DUP2 MSTORE PUSH1 0x20 ADD SWAP1 DUP2 MSTORE PUSH1 0x20 ADD PUSH1 0x0 KECCAK256 SLOAD SWAP1 POP SWAP1 JUMP INVALID LOG2 PUSH5 0x6970667358 0x22 SLT KECCAK256 BYTE MSTORE AND MOD 0xD0 0xE0 MUL 0xCE EXTCODESIZE 0xEC 0xF SWAP14 0xD6 0xE3 SLOAD SWAP16 0xB6 PC SIGNEXTEND 0xA8 MSIZE DUP2 PUSH30 0x8C2EDF349B65420AD664736F6C634300060C003300000000000000000000 "
				},
				"gasEstimates": {
					"creation": {
						"codeDepositCost": "65800",
						"executionCost": "117",
						"totalCost": "65917"
					},
					"external": {
						"setRollNO(uint256)": "20309",
						"whatIsMyRollNumber()": "1102"
					}
				},
				"methodIdentifiers": {
					"setRollNO(uint256)": "15e50260",
					"whatIsMyRollNumber()": "3eeb5710"
				}
			},
			"storageLayout": {
				"storage": [
					{
						"astId": 5,
						"contract": "pratical_no 2./spacial.sol:roll",
						"label": "rollNo",
						"offset": 0,
						"slot": "0",
						"type": "t_mapping(t_address,t_uint256)"
					}
				],
				"types": {
					"t_address": {
						"encoding": "inplace",
						"label": "address",
						"numberOfBytes": "20"
					},
					"t_mapping(t_address,t_uint256)": {
						"encoding": "mapping",
						"key": "t_address",
						"label": "mapping(address => uint256)",
						"numberOfBytes": "32",
						"value": "t_uint256"
					},
					"t_uint256": {
						"encoding": "inplace",
						"label": "uint256",
						"numberOfBytes": "32"
					}
				}
			},
			"userdoc": {
				"kind": "user",
				"methods": {},
				"version": 1
			}
		}
	}
}