{
	"pratical_no 2./Mapping.sol": {
		"mapping_example": {
			"abi": [
				{
					"constant": false,
					"inputs": [],
					"name": "adding_values",
					"outputs": [],
					"payable": false,
					"stateMutability": "nonpayable",
					"type": "function"
				},
				{
					"constant": true,
					"inputs": [],
					"name": "get_student_result",
					"outputs": [
						{
							"name": "",
							"type": "address[]"
						}
					],
					"payable": false,
					"stateMutability": "view",
					"type": "function"
				}
			],
			"devdoc": {
				"methods": {}
			},
			"evm": {
				"assembly": "    /* \"pratical_no 2./Mapping.sol\":32:686  contract mapping_example {\r... */\n  mstore(0x40, 0x60)\n  jumpi(tag_1, iszero(callvalue))\n  0x0\n  dup1\n  revert\ntag_1:\n  dataSize(sub_0)\n  dup1\n  dataOffset(sub_0)\n  0x0\n  codecopy\n  0x0\n  return\nstop\n\nsub_0: assembly {\n        /* \"pratical_no 2./Mapping.sol\":32:686  contract mapping_example {\r... */\n      mstore(0x40, 0x60)\n      jumpi(tag_1, lt(calldatasize, 0x4))\n      calldataload(0x0)\n      0x100000000000000000000000000000000000000000000000000000000\n      swap1\n      div\n      0xffffffff\n      and\n      dup1\n      0x5487729d\n      eq\n      tag_2\n      jumpi\n      dup1\n      0x8cfb9fe6\n      eq\n      tag_3\n      jumpi\n    tag_1:\n      0x0\n      dup1\n      revert\n        /* \"pratical_no 2./Mapping.sol\":257:528  function adding_values() public {\r... */\n    tag_2:\n      jumpi(tag_4, iszero(callvalue))\n      0x0\n      dup1\n      revert\n    tag_4:\n      tag_5\n      jump(tag_6)\n    tag_5:\n      stop\n        /* \"pratical_no 2./Mapping.sol\":587:683  function get_student_result(\r... */\n    tag_3:\n      jumpi(tag_7, iszero(callvalue))\n      0x0\n      dup1\n      revert\n    tag_7:\n      tag_8\n      jump(tag_9)\n    tag_8:\n      mload(0x40)\n      dup1\n      dup1\n      0x20\n      add\n      dup3\n      dup2\n      sub\n      dup3\n      mstore\n      dup4\n      dup2\n      dup2\n      mload\n      dup2\n      mstore\n      0x20\n      add\n      swap2\n      pop\n      dup1\n      mload\n      swap1\n      0x20\n      add\n      swap1\n      0x20\n      mul\n      dup1\n      dup4\n      dup4\n        /* \"--CODEGEN--\":23:24   */\n      0x0\n        /* \"--CODEGEN--\":8:108   */\n    tag_10:\n        /* \"--CODEGEN--\":33:36   */\n      dup4\n        /* \"--CODEGEN--\":30:31   */\n      dup2\n        /* \"--CODEGEN--\":27:29   */\n      lt\n        /* \"--CODEGEN--\":8:108   */\n      iszero\n      tag_11\n      jumpi\n        /* \"--CODEGEN--\":99:100   */\n      dup1\n        /* \"--CODEGEN--\":94:97   */\n      dup3\n        /* \"--CODEGEN--\":90:93   */\n      add\n        /* \"--CODEGEN--\":84:89   */\n      mload\n        /* \"--CODEGEN--\":80:81   */\n      dup2\n        /* \"--CODEGEN--\":75:78   */\n      dup5\n        /* \"--CODEGEN--\":71:74   */\n      add\n        /* \"--CODEGEN--\":64:70   */\n      mstore\n        /* \"--CODEGEN--\":52:54   */\n      0x20\n        /* \"--CODEGEN--\":49:50   */\n      dup2\n        /* \"--CODEGEN--\":45:48   */\n      add\n        /* \"--CODEGEN--\":40:55   */\n      swap1\n      pop\n        /* \"--CODEGEN--\":8:108   */\n      jump(tag_10)\n    tag_11:\n        /* \"--CODEGEN--\":12:26   */\n      pop\n        /* \"--CODEGEN--\":3:112   */\n      pop\n      pop\n      pop\n      swap1\n      pop\n      add\n      swap3\n      pop\n      pop\n      pop\n      mload(0x40)\n      dup1\n      swap2\n      sub\n      swap1\n      return\n        /* \"pratical_no 2./Mapping.sol\":257:528  function adding_values() public {\r... */\n    tag_6:\n        /* \"pratical_no 2./Mapping.sol\":294:305  var student */\n      0x0\n        /* \"pratical_no 2./Mapping.sol\":311:317  result */\n      dup1\n        /* \"pratical_no 2./Mapping.sol\":311:361  result[0xDEE7796E89C82C36BAdd1375076f39D69FafE252] */\n      0x0\n        /* \"pratical_no 2./Mapping.sol\":318:360  0xDEE7796E89C82C36BAdd1375076f39D69FafE252 */\n      0xdee7796e89c82c36badd1375076f39d69fafe252\n        /* \"pratical_no 2./Mapping.sol\":311:361  result[0xDEE7796E89C82C36BAdd1375076f39D69FafE252] */\n      0xffffffffffffffffffffffffffffffffffffffff\n      and\n      0xffffffffffffffffffffffffffffffffffffffff\n      and\n      dup2\n      mstore\n      0x20\n      add\n      swap1\n      dup2\n      mstore\n      0x20\n      add\n      0x0\n      keccak256\n        /* \"pratical_no 2./Mapping.sol\":294:361  var student\r... */\n      swap1\n      pop\n        /* \"pratical_no 2./Mapping.sol\":368:389  student.name = \"John\" */\n      0x40\n      dup1\n      mload\n      swap1\n      dup2\n      add\n      0x40\n      mstore\n      dup1\n      0x4\n      dup2\n      mstore\n      0x20\n      add\n      0x4a6f686e00000000000000000000000000000000000000000000000000000000\n      dup2\n      mstore\n      pop\n        /* \"pratical_no 2./Mapping.sol\":368:375  student */\n      dup2\n        /* \"pratical_no 2./Mapping.sol\":368:380  student.name */\n      0x0\n      add\n        /* \"pratical_no 2./Mapping.sol\":368:389  student.name = \"John\" */\n      swap1\n      dup1\n      mload\n      swap1\n      0x20\n      add\n      swap1\n      tag_14\n      swap3\n      swap2\n      swap1\n      jump\t// in(tag_15)\n    tag_14:\n      pop\n        /* \"pratical_no 2./Mapping.sol\":394:423  student.subject = \"Chemistry\" */\n      0x40\n      dup1\n      mload\n      swap1\n      dup2\n      add\n      0x40\n      mstore\n      dup1\n      0x9\n      dup2\n      mstore\n      0x20\n      add\n      0x4368656d69737472790000000000000000000000000000000000000000000000\n      dup2\n      mstore\n      pop\n        /* \"pratical_no 2./Mapping.sol\":394:401  student */\n      dup2\n        /* \"pratical_no 2./Mapping.sol\":394:409  student.subject */\n      0x1\n      add\n        /* \"pratical_no 2./Mapping.sol\":394:423  student.subject = \"Chemistry\" */\n      swap1\n      dup1\n      mload\n      swap1\n      0x20\n      add\n      swap1\n      tag_16\n      swap3\n      swap2\n      swap1\n      jump\t// in(tag_15)\n    tag_16:\n      pop\n        /* \"pratical_no 2./Mapping.sol\":444:446  88 */\n      0x58\n        /* \"pratical_no 2./Mapping.sol\":428:435  student */\n      dup2\n        /* \"pratical_no 2./Mapping.sol\":428:441  student.marks */\n      0x2\n      add\n      0x0\n        /* \"pratical_no 2./Mapping.sol\":428:446  student.marks = 88 */\n      0x100\n      exp\n      dup2\n      sload\n      dup2\n      0xff\n      mul\n      not\n      and\n      swap1\n      dup4\n      0xff\n      and\n      mul\n      or\n      swap1\n      sstore\n      pop\n        /* \"pratical_no 2./Mapping.sol\":520:521  1 */\n      0x1\n        /* \"pratical_no 2./Mapping.sol\":451:465  student_result */\n      dup1\n        /* \"pratical_no 2./Mapping.sol\":451:518  student_result.push(\r... */\n      dup1\n      sload\n      dup1\n      0x1\n      add\n      dup3\n      dup2\n      tag_17\n      swap2\n      swap1\n      jump\t// in(tag_18)\n    tag_17:\n      swap2\n      0x0\n      mstore\n      keccak256(0x0, 0x20)\n      swap1\n      add\n      0x0\n        /* \"pratical_no 2./Mapping.sol\":475:517  0xDEE7796E89C82C36BAdd1375076f39D69FafE252 */\n      0xdee7796e89c82c36badd1375076f39d69fafe252\n        /* \"pratical_no 2./Mapping.sol\":451:518  student_result.push(\r... */\n      swap1\n      swap2\n      swap1\n      swap2\n      0x100\n      exp\n      dup2\n      sload\n      dup2\n      0xffffffffffffffffffffffffffffffffffffffff\n      mul\n      not\n      and\n      swap1\n      dup4\n      0xffffffffffffffffffffffffffffffffffffffff\n      and\n      mul\n      or\n      swap1\n      sstore\n      pop\n        /* \"pratical_no 2./Mapping.sol\":451:521  student_result.push(\r... */\n      pop\n      pop\n        /* \"pratical_no 2./Mapping.sol\":257:528  function adding_values() public {\r... */\n      pop\n      jump\t// out\n        /* \"pratical_no 2./Mapping.sol\":587:683  function get_student_result(\r... */\n    tag_9:\n        /* \"pratical_no 2./Mapping.sol\":641:650  address[] */\n      tag_20\n      jump\t// in(tag_21)\n    tag_20:\n        /* \"pratical_no 2./Mapping.sol\":664:678  student_result */\n      0x1\n        /* \"pratical_no 2./Mapping.sol\":657:678  return student_result */\n      dup1\n      sload\n      dup1\n      0x20\n      mul\n      0x20\n      add\n      mload(0x40)\n      swap1\n      dup2\n      add\n      0x40\n      mstore\n      dup1\n      swap3\n      swap2\n      swap1\n      dup2\n      dup2\n      mstore\n      0x20\n      add\n      dup3\n      dup1\n      sload\n      dup1\n      iszero\n      tag_23\n      jumpi\n      0x20\n      mul\n      dup3\n      add\n      swap2\n      swap1\n      0x0\n      mstore\n      keccak256(0x0, 0x20)\n      swap1\n    tag_24:\n      dup2\n      0x0\n      swap1\n      sload\n      swap1\n      0x100\n      exp\n      swap1\n      div\n      0xffffffffffffffffffffffffffffffffffffffff\n      and\n      0xffffffffffffffffffffffffffffffffffffffff\n      and\n      dup2\n      mstore\n      0x20\n      add\n      swap1\n      0x1\n      add\n      swap1\n      dup1\n      dup4\n      gt\n      tag_24\n      jumpi\n    tag_23:\n      pop\n      pop\n      pop\n      pop\n      pop\n      swap1\n      pop\n        /* \"pratical_no 2./Mapping.sol\":587:683  function get_student_result(\r... */\n      swap1\n      jump\t// out\n        /* \"pratical_no 2./Mapping.sol\":32:686  contract mapping_example {\r... */\n    tag_15:\n      dup3\n      dup1\n      sload\n      0x1\n      dup2\n      0x1\n      and\n      iszero\n      0x100\n      mul\n      sub\n      and\n      0x2\n      swap1\n      div\n      swap1\n      0x0\n      mstore\n      keccak256(0x0, 0x20)\n      swap1\n      0x1f\n      add\n      0x20\n      swap1\n      div\n      dup2\n      add\n      swap3\n      dup3\n      0x1f\n      lt\n      tag_26\n      jumpi\n      dup1\n      mload\n      not(0xff)\n      and\n      dup4\n      dup1\n      add\n      or\n      dup6\n      sstore\n      jump(tag_25)\n    tag_26:\n      dup3\n      dup1\n      add\n      0x1\n      add\n      dup6\n      sstore\n      dup3\n      iszero\n      tag_25\n      jumpi\n      swap2\n      dup3\n      add\n    tag_27:\n      dup3\n      dup2\n      gt\n      iszero\n      tag_28\n      jumpi\n      dup3\n      mload\n      dup3\n      sstore\n      swap2\n      0x20\n      add\n      swap2\n      swap1\n      0x1\n      add\n      swap1\n      jump(tag_27)\n    tag_28:\n    tag_25:\n      pop\n      swap1\n      pop\n      tag_29\n      swap2\n      swap1\n      jump\t// in(tag_30)\n    tag_29:\n      pop\n      swap1\n      jump\t// out\n    tag_18:\n      dup2\n      sload\n      dup2\n      dup4\n      sstore\n      dup2\n      dup2\n      iszero\n      gt\n      tag_31\n      jumpi\n      dup2\n      dup4\n      0x0\n      mstore\n      keccak256(0x0, 0x20)\n      swap2\n      dup3\n      add\n      swap2\n      add\n      tag_32\n      swap2\n      swap1\n      jump\t// in(tag_30)\n    tag_32:\n    tag_31:\n      pop\n      pop\n      pop\n      jump\t// out\n    tag_21:\n      0x20\n      mload(0x40)\n      swap1\n      dup2\n      add\n      0x40\n      mstore\n      dup1\n      0x0\n      dup2\n      mstore\n      pop\n      swap1\n      jump\t// out\n    tag_30:\n      tag_33\n      swap2\n      swap1\n    tag_34:\n      dup1\n      dup3\n      gt\n      iszero\n      tag_35\n      jumpi\n      0x0\n      dup2\n      0x0\n      swap1\n      sstore\n      pop\n      0x1\n      add\n      jump(tag_34)\n    tag_35:\n      pop\n      swap1\n      jump\n    tag_33:\n      swap1\n      jump\t// out\n\n    auxdata: 0xa165627a7a72305820541d30ee0ac0d4d52baef3c36033382146696559fcad8bb3102caba420ece2960029\n}\n",
				"bytecode": {
					"linkReferences": {},
					"object": "6060604052341561000f57600080fd5b6104018061001e6000396000f30060606040526004361061004c576000357c0100000000000000000000000000000000000000000000000000000000900463ffffffff1680635487729d146100515780638cfb9fe614610066575b600080fd5b341561005c57600080fd5b6100646100d0565b005b341561007157600080fd5b61007961025c565b6040518080602001828103825283818151815260200191508051906020019060200280838360005b838110156100bc5780820151818401526020810190506100a1565b505050509050019250505060405180910390f35b600080600073dee7796e89c82c36badd1375076f39d69fafe25273ffffffffffffffffffffffffffffffffffffffff1673ffffffffffffffffffffffffffffffffffffffff16815260200190815260200160002090506040805190810160405280600481526020017f4a6f686e000000000000000000000000000000000000000000000000000000008152508160000190805190602001906101739291906102f0565b506040805190810160405280600981526020017f4368656d697374727900000000000000000000000000000000000000000000008152508160010190805190602001906101c19291906102f0565b5060588160020160006101000a81548160ff021916908360ff16021790555060018080548060010182816101f59190610370565b9160005260206000209001600073dee7796e89c82c36badd1375076f39d69fafe252909190916101000a81548173ffffffffffffffffffffffffffffffffffffffff021916908373ffffffffffffffffffffffffffffffffffffffff160217905550505050565b61026461039c565b60018054806020026020016040519081016040528092919081815260200182805480156102e657602002820191906000526020600020905b8160009054906101000a900473ffffffffffffffffffffffffffffffffffffffff1673ffffffffffffffffffffffffffffffffffffffff168152602001906001019080831161029c575b5050505050905090565b828054600181600116156101000203166002900490600052602060002090601f016020900481019282601f1061033157805160ff191683800117855561035f565b8280016001018555821561035f579182015b8281111561035e578251825591602001919060010190610343565b5b50905061036c91906103b0565b5090565b8154818355818115116103975781836000526020600020918201910161039691906103b0565b5b505050565b602060405190810160405280600081525090565b6103d291905b808211156103ce5760008160009055506001016103b6565b5090565b905600a165627a7a72305820541d30ee0ac0d4d52baef3c36033382146696559fcad8bb3102caba420ece2960029",
					"opcodes": "PUSH1 0x60 PUSH1 0x40 MSTORE CALLVALUE ISZERO PUSH2 0xF JUMPI PUSH1 0x0 DUP1 REVERT JUMPDEST PUSH2 0x401 DUP1 PUSH2 0x1E PUSH1 0x0 CODECOPY PUSH1 0x0 RETURN STOP PUSH1 0x60 PUSH1 0x40 MSTORE PUSH1 0x4 CALLDATASIZE LT PUSH2 0x4C JUMPI PUSH1 0x0 CALLDATALOAD PUSH29 0x100000000000000000000000000000000000000000000000000000000 SWAP1 DIV PUSH4 0xFFFFFFFF AND DUP1 PUSH4 0x5487729D EQ PUSH2 0x51 JUMPI DUP1 PUSH4 0x8CFB9FE6 EQ PUSH2 0x66 JUMPI JUMPDEST PUSH1 0x0 DUP1 REVERT JUMPDEST CALLVALUE ISZERO PUSH2 0x5C JUMPI PUSH1 0x0 DUP1 REVERT JUMPDEST PUSH2 0x64 PUSH2 0xD0 JUMP JUMPDEST STOP JUMPDEST CALLVALUE ISZERO PUSH2 0x71 JUMPI PUSH1 0x0 DUP1 REVERT JUMPDEST PUSH2 0x79 PUSH2 0x25C JUMP JUMPDEST PUSH1 0x40 MLOAD DUP1 DUP1 PUSH1 0x20 ADD DUP3 DUP2 SUB DUP3 MSTORE DUP4 DUP2 DUP2 MLOAD DUP2 MSTORE PUSH1 0x20 ADD SWAP2 POP DUP1 MLOAD SWAP1 PUSH1 0x20 ADD SWAP1 PUSH1 0x20 MUL DUP1 DUP4 DUP4 PUSH1 0x0 JUMPDEST DUP4 DUP2 LT ISZERO PUSH2 0xBC JUMPI DUP1 DUP3 ADD MLOAD DUP2 DUP5 ADD MSTORE PUSH1 0x20 DUP2 ADD SWAP1 POP PUSH2 0xA1 JUMP JUMPDEST POP POP POP POP SWAP1 POP ADD SWAP3 POP POP POP PUSH1 0x40 MLOAD DUP1 SWAP2 SUB SWAP1 RETURN JUMPDEST PUSH1 0x0 DUP1 PUSH1 0x0 PUSH20 0xDEE7796E89C82C36BADD1375076F39D69FAFE252 PUSH20 0xFFFFFFFFFFFFFFFFFFFFFFFFFFFFFFFFFFFFFFFF AND PUSH20 0xFFFFFFFFFFFFFFFFFFFFFFFFFFFFFFFFFFFFFFFF AND DUP2 MSTORE PUSH1 0x20 ADD SWAP1 DUP2 MSTORE PUSH1 0x20 ADD PUSH1 0x0 KECCAK256 SWAP1 POP PUSH1 0x40 DUP1 MLOAD SWAP1 DUP2 ADD PUSH1 0x40 MSTORE DUP1 PUSH1 0x4 DUP2 MSTORE PUSH1 0x20 ADD PUSH32 0x4A6F686E00000000000000000000000000000000000000000000000000000000 DUP2 MSTORE POP DUP2 PUSH1 0x0 ADD SWAP1 DUP1 MLOAD SWAP1 PUSH1 0x20 ADD SWAP1 PUSH2 0x173 SWAP3 SWAP2 SWAP1 PUSH2 0x2F0 JUMP JUMPDEST POP PUSH1 0x40 DUP1 MLOAD SWAP1 DUP2 ADD PUSH1 0x40 MSTORE DUP1 PUSH1 0x9 DUP2 MSTORE PUSH1 0x20 ADD PUSH32 0x4368656D69737472790000000000000000000000000000000000000000000000 DUP2 MSTORE POP DUP2 PUSH1 0x1 ADD SWAP1 DUP1 MLOAD SWAP1 PUSH1 0x20 ADD SWAP1 PUSH2 0x1C1 SWAP3 SWAP2 SWAP1 PUSH2 0x2F0 JUMP JUMPDEST POP PUSH1 0x58 DUP2 PUSH1 0x2 ADD PUSH1 0x0 PUSH2 0x100 EXP DUP2 SLOAD DUP2 PUSH1 0xFF MUL NOT AND SWAP1 DUP4 PUSH1 0xFF AND MUL OR SWAP1 SSTORE POP PUSH1 0x1 DUP1 DUP1 SLOAD DUP1 PUSH1 0x1 ADD DUP3 DUP2 PUSH2 0x1F5 SWAP2 SWAP1 PUSH2 0x370 JUMP JUMPDEST SWAP2 PUSH1 0x0 MSTORE PUSH1 0x20 PUSH1 0x0 KECCAK256 SWAP1 ADD PUSH1 0x0 PUSH20 0xDEE7796E89C82C36BADD1375076F39D69FAFE252 SWAP1 SWAP2 SWAP1 SWAP2 PUSH2 0x100 EXP DUP2 SLOAD DUP2 PUSH20 0xFFFFFFFFFFFFFFFFFFFFFFFFFFFFFFFFFFFFFFFF MUL NOT AND SWAP1 DUP4 PUSH20 0xFFFFFFFFFFFFFFFFFFFFFFFFFFFFFFFFFFFFFFFF AND MUL OR SWAP1 SSTORE POP POP POP POP JUMP JUMPDEST PUSH2 0x264 PUSH2 0x39C JUMP JUMPDEST PUSH1 0x1 DUP1 SLOAD DUP1 PUSH1 0x20 MUL PUSH1 0x20 ADD PUSH1 0x40 MLOAD SWAP1 DUP2 ADD PUSH1 0x40 MSTORE DUP1 SWAP3 SWAP2 SWAP1 DUP2 DUP2 MSTORE PUSH1 0x20 ADD DUP3 DUP1 SLOAD DUP1 ISZERO PUSH2 0x2E6 JUMPI PUSH1 0x20 MUL DUP3 ADD SWAP2 SWAP1 PUSH1 0x0 MSTORE PUSH1 0x20 PUSH1 0x0 KECCAK256 SWAP1 JUMPDEST DUP2 PUSH1 0x0 SWAP1 SLOAD SWAP1 PUSH2 0x100 EXP SWAP1 DIV PUSH20 0xFFFFFFFFFFFFFFFFFFFFFFFFFFFFFFFFFFFFFFFF AND PUSH20 0xFFFFFFFFFFFFFFFFFFFFFFFFFFFFFFFFFFFFFFFF AND DUP2 MSTORE PUSH1 0x20 ADD SWAP1 PUSH1 0x1 ADD SWAP1 DUP1 DUP4 GT PUSH2 0x29C JUMPI JUMPDEST POP POP POP POP POP SWAP1 POP SWAP1 JUMP JUMPDEST DUP3 DUP1 SLOAD PUSH1 0x1 DUP2 PUSH1 0x1 AND ISZERO PUSH2 0x100 MUL SUB AND PUSH1 0x2 SWAP1 DIV SWAP1 PUSH1 0x0 MSTORE PUSH1 0x20 PUSH1 0x0 KECCAK256 SWAP1 PUSH1 0x1F ADD PUSH1 0x20 SWAP1 DIV DUP2 ADD SWAP3 DUP3 PUSH1 0x1F LT PUSH2 0x331 JUMPI DUP1 MLOAD PUSH1 0xFF NOT AND DUP4 DUP1 ADD OR DUP6 SSTORE PUSH2 0x35F JUMP JUMPDEST DUP3 DUP1 ADD PUSH1 0x1 ADD DUP6 SSTORE DUP3 ISZERO PUSH2 0x35F JUMPI SWAP2 DUP3 ADD JUMPDEST DUP3 DUP2 GT ISZERO PUSH2 0x35E JUMPI DUP3 MLOAD DUP3 SSTORE SWAP2 PUSH1 0x20 ADD SWAP2 SWAP1 PUSH1 0x1 ADD SWAP1 PUSH2 0x343 JUMP JUMPDEST JUMPDEST POP SWAP1 POP PUSH2 0x36C SWAP2 SWAP1 PUSH2 0x3B0 JUMP JUMPDEST POP SWAP1 JUMP JUMPDEST DUP2 SLOAD DUP2 DUP4 SSTORE DUP2 DUP2 ISZERO GT PUSH2 0x397 JUMPI DUP2 DUP4 PUSH1 0x0 MSTORE PUSH1 0x20 PUSH1 0x0 KECCAK256 SWAP2 DUP3 ADD SWAP2 ADD PUSH2 0x396 SWAP2 SWAP1 PUSH2 0x3B0 JUMP JUMPDEST JUMPDEST POP POP POP JUMP JUMPDEST PUSH1 0x20 PUSH1 0x40 MLOAD SWAP1 DUP2 ADD PUSH1 0x40 MSTORE DUP1 PUSH1 0x0 DUP2 MSTORE POP SWAP1 JUMP JUMPDEST PUSH2 0x3D2 SWAP2 SWAP1 JUMPDEST DUP1 DUP3 GT ISZERO PUSH2 0x3CE JUMPI PUSH1 0x0 DUP2 PUSH1 0x0 SWAP1 SSTORE POP PUSH1 0x1 ADD PUSH2 0x3B6 JUMP JUMPDEST POP SWAP1 JUMP JUMPDEST SWAP1 JUMP STOP LOG1 PUSH6 0x627A7A723058 KECCAK256 SLOAD 0x1d ADDRESS 0xee EXP 0xc0 0xd4 0xd5 0x2b 0xae RETURN 0xc3 PUSH1 0x33 CODESIZE 0x21 0x46 PUSH10 0x6559FCAD8BB3102CABA4 KECCAK256 0xec 0xe2 SWAP7 STOP 0x29 "
				},
				"gasEstimates": {
					"creation": {
						"codeDepositCost": "205000",
						"executionCost": "246",
						"totalCost": "205246"
					},
					"external": {
						"adding_values()": "infinite",
						"get_student_result()": "infinite"
					}
				},
				"methodIdentifiers": {
					"adding_values()": "5487729d",
					"get_student_result()": "8cfb9fe6"
				}
			},
			"userdoc": {
				"methods": {}
			}
		}
	}
}