{
	"pratical_no 2./Aassigment_oprator.sol": {
		"SolidityTest": {
			"abi": [
				{
					"inputs": [],
					"name": "assign_div",
					"outputs": [
						{
							"internalType": "uint256",
							"name": "",
							"type": "uint256"
						}
					],
					"stateMutability": "view",
					"type": "function"
				},
				{
					"inputs": [],
					"name": "assign_mod",
					"outputs": [
						{
							"internalType": "uint256",
							"name": "",
							"type": "uint256"
						}
					],
					"stateMutability": "view",
					"type": "function"
				},
				{
					"inputs": [],
					"name": "assign_mul",
					"outputs": [
						{
							"internalType": "uint256",
							"name": "",
							"type": "uint256"
						}
					],
					"stateMutability": "view",
					"type": "function"
				},
				{
					"inputs": [],
					"name": "assign_sub",
					"outputs": [
						{
							"internalType": "uint256",
							"name": "",
							"type": "uint256"
						}
					],
					"stateMutability": "view",
					"type": "function"
				},
				{
					"inputs": [],
					"name": "assignment",
					"outputs": [
						{
							"internalType": "uint16",
							"name": "",
							"type": "uint16"
						}
					],
					"stateMutability": "view",
					"type": "function"
				},
				{
					"inputs": [],
					"name": "assignment_add",
					"outputs": [
						{
							"internalType": "uint256",
							"name": "",
							"type": "uint256"
						}
					],
					"stateMutability": "view",
					"type": "function"
				},
				{
					"inputs": [],
					"name": "getResult",
					"outputs": [],
					"stateMutability": "nonpayable",
					"type": "function"
				}
			],
			"devdoc": {
				"kind": "dev",
				"methods": {},
				"version": 1
			},
			"evm": {
				"assembly": "    /* \"pratical_no 2./Aassigment_oprator.sol\":68:463  contract SolidityTest {\r... */\n  mstore(0x40, 0x80)\n    /* \"pratical_no 2./Aassigment_oprator.sol\":128:130  20 */\n  0x14\n    /* \"pratical_no 2./Aassigment_oprator.sol\":101:130  uint16 public assignment = 20 */\n  0x00\n  dup1\n  0x0100\n  exp\n  dup2\n  sload\n  dup2\n  0xffff\n  mul\n  not\n  and\n  swap1\n  dup4\n  0xffff\n  and\n  mul\n  or\n  swap1\n  sstore\n  pop\n    /* \"pratical_no 2./Aassigment_oprator.sol\":164:166  50 */\n  0x32\n    /* \"pratical_no 2./Aassigment_oprator.sol\":135:166  uint public assignment_add = 50 */\n  0x01\n  sstore\n    /* \"pratical_no 2./Aassigment_oprator.sol\":196:198  50 */\n  0x32\n    /* \"pratical_no 2./Aassigment_oprator.sol\":171:198  uint public assign_sub = 50 */\n  0x02\n  sstore\n    /* \"pratical_no 2./Aassigment_oprator.sol\":228:230  10 */\n  0x0a\n    /* \"pratical_no 2./Aassigment_oprator.sol\":203:230  uint public assign_mul = 10 */\n  0x03\n  sstore\n    /* \"pratical_no 2./Aassigment_oprator.sol\":260:262  50 */\n  0x32\n    /* \"pratical_no 2./Aassigment_oprator.sol\":235:262  uint public assign_div = 50 */\n  0x04\n  sstore\n    /* \"pratical_no 2./Aassigment_oprator.sol\":292:294  32 */\n  0x20\n    /* \"pratical_no 2./Aassigment_oprator.sol\":267:294  uint public assign_mod = 32 */\n  0x05\n  sstore\n    /* \"pratical_no 2./Aassigment_oprator.sol\":68:463  contract SolidityTest {\r... */\n  callvalue\n  dup1\n  iszero\n  tag_1\n  jumpi\n  0x00\n  dup1\n  revert\ntag_1:\n  pop\n  dataSize(sub_0)\n  dup1\n  dataOffset(sub_0)\n  0x00\n  codecopy\n  0x00\n  return\nstop\n\nsub_0: assembly {\n        /* \"pratical_no 2./Aassigment_oprator.sol\":68:463  contract SolidityTest {\r... */\n      mstore(0x40, 0x80)\n      callvalue\n      dup1\n      iszero\n      tag_1\n      jumpi\n      0x00\n      dup1\n      revert\n    tag_1:\n      pop\n      jumpi(tag_2, lt(calldatasize, 0x04))\n      shr(0xe0, calldataload(0x00))\n      dup1\n      0x71ca2ecf\n      gt\n      tag_10\n      jumpi\n      dup1\n      0x71ca2ecf\n      eq\n      tag_6\n      jumpi\n      dup1\n      0x891dfc3e\n      eq\n      tag_7\n      jumpi\n      dup1\n      0xc91fa90e\n      eq\n      tag_8\n      jumpi\n      dup1\n      0xde292789\n      eq\n      tag_9\n      jumpi\n      jump(tag_2)\n    tag_10:\n      dup1\n      0x0eb325b2\n      eq\n      tag_3\n      jumpi\n      dup1\n      0x372512d6\n      eq\n      tag_4\n      jumpi\n      dup1\n      0x5da25add\n      eq\n      tag_5\n      jumpi\n    tag_2:\n      0x00\n      dup1\n      revert\n        /* \"pratical_no 2./Aassigment_oprator.sol\":135:166  uint public assignment_add = 50 */\n    tag_3:\n      tag_11\n      tag_12\n      jump\t// in\n    tag_11:\n      mload(0x40)\n      tag_13\n      swap2\n      swap1\n      tag_14\n      jump\t// in\n    tag_13:\n      mload(0x40)\n      dup1\n      swap2\n      sub\n      swap1\n      return\n        /* \"pratical_no 2./Aassigment_oprator.sol\":235:262  uint public assign_div = 50 */\n    tag_4:\n      tag_15\n      tag_16\n      jump\t// in\n    tag_15:\n      mload(0x40)\n      tag_17\n      swap2\n      swap1\n      tag_14\n      jump\t// in\n    tag_17:\n      mload(0x40)\n      dup1\n      swap2\n      sub\n      swap1\n      return\n        /* \"pratical_no 2./Aassigment_oprator.sol\":203:230  uint public assign_mul = 10 */\n    tag_5:\n      tag_18\n      tag_19\n      jump\t// in\n    tag_18:\n      mload(0x40)\n      tag_20\n      swap2\n      swap1\n      tag_14\n      jump\t// in\n    tag_20:\n      mload(0x40)\n      dup1\n      swap2\n      sub\n      swap1\n      return\n        /* \"pratical_no 2./Aassigment_oprator.sol\":101:130  uint16 public assignment = 20 */\n    tag_6:\n      tag_21\n      tag_22\n      jump\t// in\n    tag_21:\n      mload(0x40)\n      tag_23\n      swap2\n      swap1\n      tag_24\n      jump\t// in\n    tag_23:\n      mload(0x40)\n      dup1\n      swap2\n      sub\n      swap1\n      return\n        /* \"pratical_no 2./Aassigment_oprator.sol\":267:294  uint public assign_mod = 32 */\n    tag_7:\n      tag_25\n      tag_26\n      jump\t// in\n    tag_25:\n      mload(0x40)\n      tag_27\n      swap2\n      swap1\n      tag_14\n      jump\t// in\n    tag_27:\n      mload(0x40)\n      dup1\n      swap2\n      sub\n      swap1\n      return\n        /* \"pratical_no 2./Aassigment_oprator.sol\":171:198  uint public assign_sub = 50 */\n    tag_8:\n      tag_28\n      tag_29\n      jump\t// in\n    tag_28:\n      mload(0x40)\n      tag_30\n      swap2\n      swap1\n      tag_14\n      jump\t// in\n    tag_30:\n      mload(0x40)\n      dup1\n      swap2\n      sub\n      swap1\n      return\n        /* \"pratical_no 2./Aassigment_oprator.sol\":306:460  function getResult() public{\r... */\n    tag_9:\n      tag_31\n      tag_32\n      jump\t// in\n    tag_31:\n      stop\n        /* \"pratical_no 2./Aassigment_oprator.sol\":135:166  uint public assignment_add = 50 */\n    tag_12:\n      sload(0x01)\n      dup2\n      jump\t// out\n        /* \"pratical_no 2./Aassigment_oprator.sol\":235:262  uint public assign_div = 50 */\n    tag_16:\n      sload(0x04)\n      dup2\n      jump\t// out\n        /* \"pratical_no 2./Aassigment_oprator.sol\":203:230  uint public assign_mul = 10 */\n    tag_19:\n      sload(0x03)\n      dup2\n      jump\t// out\n        /* \"pratical_no 2./Aassigment_oprator.sol\":101:130  uint16 public assignment = 20 */\n    tag_22:\n      0x00\n      dup1\n      sload\n      swap1\n      0x0100\n      exp\n      swap1\n      div\n      0xffff\n      and\n      dup2\n      jump\t// out\n        /* \"pratical_no 2./Aassigment_oprator.sol\":267:294  uint public assign_mod = 32 */\n    tag_26:\n      sload(0x05)\n      dup2\n      jump\t// out\n        /* \"pratical_no 2./Aassigment_oprator.sol\":171:198  uint public assign_sub = 50 */\n    tag_29:\n      sload(0x02)\n      dup2\n      jump\t// out\n        /* \"pratical_no 2./Aassigment_oprator.sol\":306:460  function getResult() public{\r... */\n    tag_32:\n        /* \"pratical_no 2./Aassigment_oprator.sol\":356:358  10 */\n      0x0a\n        /* \"pratical_no 2./Aassigment_oprator.sol\":338:352  assignment_add */\n      0x01\n      0x00\n        /* \"pratical_no 2./Aassigment_oprator.sol\":338:358  assignment_add += 10 */\n      dup3\n      dup3\n      sload\n      tag_34\n      swap2\n      swap1\n      tag_35\n      jump\t// in\n    tag_34:\n      swap3\n      pop\n      pop\n      dup2\n      swap1\n      sstore\n      pop\n        /* \"pratical_no 2./Aassigment_oprator.sol\":377:379  20 */\n      0x14\n        /* \"pratical_no 2./Aassigment_oprator.sol\":363:373  assign_sub */\n      0x02\n      0x00\n        /* \"pratical_no 2./Aassigment_oprator.sol\":363:379  assign_sub -= 20 */\n      dup3\n      dup3\n      sload\n      tag_36\n      swap2\n      swap1\n      tag_37\n      jump\t// in\n    tag_36:\n      swap3\n      pop\n      pop\n      dup2\n      swap1\n      sstore\n      pop\n        /* \"pratical_no 2./Aassigment_oprator.sol\":398:400  10 */\n      0x0a\n        /* \"pratical_no 2./Aassigment_oprator.sol\":384:394  assign_mul */\n      0x03\n      0x00\n        /* \"pratical_no 2./Aassigment_oprator.sol\":384:400  assign_mul *= 10 */\n      dup3\n      dup3\n      sload\n      tag_38\n      swap2\n      swap1\n      tag_39\n      jump\t// in\n    tag_38:\n      swap3\n      pop\n      pop\n      dup2\n      swap1\n      sstore\n      pop\n        /* \"pratical_no 2./Aassigment_oprator.sol\":419:421  10 */\n      0x0a\n        /* \"pratical_no 2./Aassigment_oprator.sol\":405:415  assign_div */\n      0x04\n      0x00\n        /* \"pratical_no 2./Aassigment_oprator.sol\":405:421  assign_div /= 10 */\n      dup3\n      dup3\n      sload\n      tag_40\n      swap2\n      swap1\n      tag_41\n      jump\t// in\n    tag_40:\n      swap3\n      pop\n      pop\n      dup2\n      swap1\n      sstore\n      pop\n        /* \"pratical_no 2./Aassigment_oprator.sol\":440:442  20 */\n      0x14\n        /* \"pratical_no 2./Aassigment_oprator.sol\":426:436  assign_mod */\n      0x05\n      0x00\n        /* \"pratical_no 2./Aassigment_oprator.sol\":426:442  assign_mod %= 20 */\n      dup3\n      dup3\n      sload\n      tag_42\n      swap2\n      swap1\n      tag_43\n      jump\t// in\n    tag_42:\n      swap3\n      pop\n      pop\n      dup2\n      swap1\n      sstore\n      pop\n        /* \"pratical_no 2./Aassigment_oprator.sol\":306:460  function getResult() public{\r... */\n      jump\t// out\n        /* \"#utility.yul\":7:122   */\n    tag_45:\n        /* \"#utility.yul\":92:115   */\n      tag_47\n        /* \"#utility.yul\":109:114   */\n      dup2\n        /* \"#utility.yul\":92:115   */\n      tag_48\n      jump\t// in\n    tag_47:\n        /* \"#utility.yul\":87:90   */\n      dup3\n        /* \"#utility.yul\":80:116   */\n      mstore\n        /* \"#utility.yul\":70:122   */\n      pop\n      pop\n      jump\t// out\n        /* \"#utility.yul\":128:246   */\n    tag_49:\n        /* \"#utility.yul\":215:239   */\n      tag_51\n        /* \"#utility.yul\":233:238   */\n      dup2\n        /* \"#utility.yul\":215:239   */\n      tag_52\n      jump\t// in\n    tag_51:\n        /* \"#utility.yul\":210:213   */\n      dup3\n        /* \"#utility.yul\":203:240   */\n      mstore\n        /* \"#utility.yul\":193:246   */\n      pop\n      pop\n      jump\t// out\n        /* \"#utility.yul\":252:470   */\n    tag_24:\n      0x00\n        /* \"#utility.yul\":381:383   */\n      0x20\n        /* \"#utility.yul\":370:379   */\n      dup3\n        /* \"#utility.yul\":366:384   */\n      add\n        /* \"#utility.yul\":358:384   */\n      swap1\n      pop\n        /* \"#utility.yul\":394:463   */\n      tag_54\n        /* \"#utility.yul\":460:461   */\n      0x00\n        /* \"#utility.yul\":449:458   */\n      dup4\n        /* \"#utility.yul\":445:462   */\n      add\n        /* \"#utility.yul\":436:442   */\n      dup5\n        /* \"#utility.yul\":394:463   */\n      tag_45\n      jump\t// in\n    tag_54:\n        /* \"#utility.yul\":348:470   */\n      swap3\n      swap2\n      pop\n      pop\n      jump\t// out\n        /* \"#utility.yul\":476:698   */\n    tag_14:\n      0x00\n        /* \"#utility.yul\":607:609   */\n      0x20\n        /* \"#utility.yul\":596:605   */\n      dup3\n        /* \"#utility.yul\":592:610   */\n      add\n        /* \"#utility.yul\":584:610   */\n      swap1\n      pop\n        /* \"#utility.yul\":620:691   */\n      tag_56\n        /* \"#utility.yul\":688:689   */\n      0x00\n        /* \"#utility.yul\":677:686   */\n      dup4\n        /* \"#utility.yul\":673:690   */\n      add\n        /* \"#utility.yul\":664:670   */\n      dup5\n        /* \"#utility.yul\":620:691   */\n      tag_49\n      jump\t// in\n    tag_56:\n        /* \"#utility.yul\":574:698   */\n      swap3\n      swap2\n      pop\n      pop\n      jump\t// out\n        /* \"#utility.yul\":704:1009   */\n    tag_35:\n      0x00\n        /* \"#utility.yul\":763:783   */\n      tag_58\n        /* \"#utility.yul\":781:782   */\n      dup3\n        /* \"#utility.yul\":763:783   */\n      tag_52\n      jump\t// in\n    tag_58:\n        /* \"#utility.yul\":758:783   */\n      swap2\n      pop\n        /* \"#utility.yul\":797:817   */\n      tag_59\n        /* \"#utility.yul\":815:816   */\n      dup4\n        /* \"#utility.yul\":797:817   */\n      tag_52\n      jump\t// in\n    tag_59:\n        /* \"#utility.yul\":792:817   */\n      swap3\n      pop\n        /* \"#utility.yul\":951:952   */\n      dup3\n        /* \"#utility.yul\":883:949   */\n      0xffffffffffffffffffffffffffffffffffffffffffffffffffffffffffffffff\n        /* \"#utility.yul\":879:953   */\n      sub\n        /* \"#utility.yul\":876:877   */\n      dup3\n        /* \"#utility.yul\":873:954   */\n      gt\n        /* \"#utility.yul\":870:872   */\n      iszero\n      tag_60\n      jumpi\n        /* \"#utility.yul\":957:975   */\n      tag_61\n      tag_62\n      jump\t// in\n    tag_61:\n        /* \"#utility.yul\":870:872   */\n    tag_60:\n        /* \"#utility.yul\":1001:1002   */\n      dup3\n        /* \"#utility.yul\":998:999   */\n      dup3\n        /* \"#utility.yul\":994:1003   */\n      add\n        /* \"#utility.yul\":987:1003   */\n      swap1\n      pop\n        /* \"#utility.yul\":748:1009   */\n      swap3\n      swap2\n      pop\n      pop\n      jump\t// out\n        /* \"#utility.yul\":1015:1200   */\n    tag_41:\n      0x00\n        /* \"#utility.yul\":1072:1092   */\n      tag_64\n        /* \"#utility.yul\":1090:1091   */\n      dup3\n        /* \"#utility.yul\":1072:1092   */\n      tag_52\n      jump\t// in\n    tag_64:\n        /* \"#utility.yul\":1067:1092   */\n      swap2\n      pop\n        /* \"#utility.yul\":1106:1126   */\n      tag_65\n        /* \"#utility.yul\":1124:1125   */\n      dup4\n        /* \"#utility.yul\":1106:1126   */\n      tag_52\n      jump\t// in\n    tag_65:\n        /* \"#utility.yul\":1101:1126   */\n      swap3\n      pop\n        /* \"#utility.yul\":1145:1146   */\n      dup3\n        /* \"#utility.yul\":1135:1137   */\n      tag_66\n      jumpi\n        /* \"#utility.yul\":1150:1168   */\n      tag_67\n      tag_68\n      jump\t// in\n    tag_67:\n        /* \"#utility.yul\":1135:1137   */\n    tag_66:\n        /* \"#utility.yul\":1192:1193   */\n      dup3\n        /* \"#utility.yul\":1189:1190   */\n      dup3\n        /* \"#utility.yul\":1185:1194   */\n      div\n        /* \"#utility.yul\":1180:1194   */\n      swap1\n      pop\n        /* \"#utility.yul\":1057:1200   */\n      swap3\n      swap2\n      pop\n      pop\n      jump\t// out\n        /* \"#utility.yul\":1206:1554   */\n    tag_39:\n      0x00\n        /* \"#utility.yul\":1269:1289   */\n      tag_70\n        /* \"#utility.yul\":1287:1288   */\n      dup3\n        /* \"#utility.yul\":1269:1289   */\n      tag_52\n      jump\t// in\n    tag_70:\n        /* \"#utility.yul\":1264:1289   */\n      swap2\n      pop\n        /* \"#utility.yul\":1303:1323   */\n      tag_71\n        /* \"#utility.yul\":1321:1322   */\n      dup4\n        /* \"#utility.yul\":1303:1323   */\n      tag_52\n      jump\t// in\n    tag_71:\n        /* \"#utility.yul\":1298:1323   */\n      swap3\n      pop\n        /* \"#utility.yul\":1491:1492   */\n      dup2\n        /* \"#utility.yul\":1423:1489   */\n      0xffffffffffffffffffffffffffffffffffffffffffffffffffffffffffffffff\n        /* \"#utility.yul\":1419:1493   */\n      div\n        /* \"#utility.yul\":1416:1417   */\n      dup4\n        /* \"#utility.yul\":1413:1494   */\n      gt\n        /* \"#utility.yul\":1408:1409   */\n      dup3\n        /* \"#utility.yul\":1401:1410   */\n      iszero\n        /* \"#utility.yul\":1394:1411   */\n      iszero\n        /* \"#utility.yul\":1390:1495   */\n      and\n        /* \"#utility.yul\":1387:1389   */\n      iszero\n      tag_72\n      jumpi\n        /* \"#utility.yul\":1498:1516   */\n      tag_73\n      tag_62\n      jump\t// in\n    tag_73:\n        /* \"#utility.yul\":1387:1389   */\n    tag_72:\n        /* \"#utility.yul\":1546:1547   */\n      dup3\n        /* \"#utility.yul\":1543:1544   */\n      dup3\n        /* \"#utility.yul\":1539:1548   */\n      mul\n        /* \"#utility.yul\":1528:1548   */\n      swap1\n      pop\n        /* \"#utility.yul\":1254:1554   */\n      swap3\n      swap2\n      pop\n      pop\n      jump\t// out\n        /* \"#utility.yul\":1560:1751   */\n    tag_37:\n      0x00\n        /* \"#utility.yul\":1620:1640   */\n      tag_75\n        /* \"#utility.yul\":1638:1639   */\n      dup3\n        /* \"#utility.yul\":1620:1640   */\n      tag_52\n      jump\t// in\n    tag_75:\n        /* \"#utility.yul\":1615:1640   */\n      swap2\n      pop\n        /* \"#utility.yul\":1654:1674   */\n      tag_76\n        /* \"#utility.yul\":1672:1673   */\n      dup4\n        /* \"#utility.yul\":1654:1674   */\n      tag_52\n      jump\t// in\n    tag_76:\n        /* \"#utility.yul\":1649:1674   */\n      swap3\n      pop\n        /* \"#utility.yul\":1693:1694   */\n      dup3\n        /* \"#utility.yul\":1690:1691   */\n      dup3\n        /* \"#utility.yul\":1687:1695   */\n      lt\n        /* \"#utility.yul\":1684:1686   */\n      iszero\n      tag_77\n      jumpi\n        /* \"#utility.yul\":1698:1716   */\n      tag_78\n      tag_62\n      jump\t// in\n    tag_78:\n        /* \"#utility.yul\":1684:1686   */\n    tag_77:\n        /* \"#utility.yul\":1743:1744   */\n      dup3\n        /* \"#utility.yul\":1740:1741   */\n      dup3\n        /* \"#utility.yul\":1736:1745   */\n      sub\n        /* \"#utility.yul\":1728:1745   */\n      swap1\n      pop\n        /* \"#utility.yul\":1605:1751   */\n      swap3\n      swap2\n      pop\n      pop\n      jump\t// out\n        /* \"#utility.yul\":1757:1846   */\n    tag_48:\n      0x00\n        /* \"#utility.yul\":1833:1839   */\n      0xffff\n        /* \"#utility.yul\":1826:1831   */\n      dup3\n        /* \"#utility.yul\":1822:1840   */\n      and\n        /* \"#utility.yul\":1811:1840   */\n      swap1\n      pop\n        /* \"#utility.yul\":1801:1846   */\n      swap2\n      swap1\n      pop\n      jump\t// out\n        /* \"#utility.yul\":1852:1929   */\n    tag_52:\n      0x00\n        /* \"#utility.yul\":1918:1923   */\n      dup2\n        /* \"#utility.yul\":1907:1923   */\n      swap1\n      pop\n        /* \"#utility.yul\":1897:1929   */\n      swap2\n      swap1\n      pop\n      jump\t// out\n        /* \"#utility.yul\":1935:2111   */\n    tag_43:\n      0x00\n        /* \"#utility.yul\":1984:2004   */\n      tag_82\n        /* \"#utility.yul\":2002:2003   */\n      dup3\n        /* \"#utility.yul\":1984:2004   */\n      tag_52\n      jump\t// in\n    tag_82:\n        /* \"#utility.yul\":1979:2004   */\n      swap2\n      pop\n        /* \"#utility.yul\":2018:2038   */\n      tag_83\n        /* \"#utility.yul\":2036:2037   */\n      dup4\n        /* \"#utility.yul\":2018:2038   */\n      tag_52\n      jump\t// in\n    tag_83:\n        /* \"#utility.yul\":2013:2038   */\n      swap3\n      pop\n        /* \"#utility.yul\":2057:2058   */\n      dup3\n        /* \"#utility.yul\":2047:2049   */\n      tag_84\n      jumpi\n        /* \"#utility.yul\":2062:2080   */\n      tag_85\n      tag_68\n      jump\t// in\n    tag_85:\n        /* \"#utility.yul\":2047:2049   */\n    tag_84:\n        /* \"#utility.yul\":2103:2104   */\n      dup3\n        /* \"#utility.yul\":2100:2101   */\n      dup3\n        /* \"#utility.yul\":2096:2105   */\n      mod\n        /* \"#utility.yul\":2091:2105   */\n      swap1\n      pop\n        /* \"#utility.yul\":1969:2111   */\n      swap3\n      swap2\n      pop\n      pop\n      jump\t// out\n        /* \"#utility.yul\":2117:2297   */\n    tag_62:\n        /* \"#utility.yul\":2165:2242   */\n      0x4e487b7100000000000000000000000000000000000000000000000000000000\n        /* \"#utility.yul\":2162:2163   */\n      0x00\n        /* \"#utility.yul\":2155:2243   */\n      mstore\n        /* \"#utility.yul\":2262:2266   */\n      0x11\n        /* \"#utility.yul\":2259:2260   */\n      0x04\n        /* \"#utility.yul\":2252:2267   */\n      mstore\n        /* \"#utility.yul\":2286:2290   */\n      0x24\n        /* \"#utility.yul\":2283:2284   */\n      0x00\n        /* \"#utility.yul\":2276:2291   */\n      revert\n        /* \"#utility.yul\":2303:2483   */\n    tag_68:\n        /* \"#utility.yul\":2351:2428   */\n      0x4e487b7100000000000000000000000000000000000000000000000000000000\n        /* \"#utility.yul\":2348:2349   */\n      0x00\n        /* \"#utility.yul\":2341:2429   */\n      mstore\n        /* \"#utility.yul\":2448:2452   */\n      0x12\n        /* \"#utility.yul\":2445:2446   */\n      0x04\n        /* \"#utility.yul\":2438:2453   */\n      mstore\n        /* \"#utility.yul\":2472:2476   */\n      0x24\n        /* \"#utility.yul\":2469:2470   */\n      0x00\n        /* \"#utility.yul\":2462:2477   */\n      revert\n\n    auxdata: 0xa2646970667358221220532e7f109762d8c5d7a1f5612d0420af9344bb9c73727c06a120e34ca44f0f5264736f6c63430008000033\n}\n",
				"bytecode": {
					"linkReferences": {},
					"object": "608060405260146000806101000a81548161ffff021916908361ffff16021790555060326001556032600255600a6003556032600455602060055534801561004657600080fd5b5061043a806100566000396000f3fe608060405234801561001057600080fd5b506004361061007d5760003560e01c806371ca2ecf1161005b57806371ca2ecf146100dc578063891dfc3e146100fa578063c91fa90e14610118578063de292789146101365761007d565b80630eb325b214610082578063372512d6146100a05780635da25add146100be575b600080fd5b61008a610140565b604051610097919061022d565b60405180910390f35b6100a8610146565b6040516100b5919061022d565b60405180910390f35b6100c661014c565b6040516100d3919061022d565b60405180910390f35b6100e4610152565b6040516100f19190610212565b60405180910390f35b610102610164565b60405161010f919061022d565b60405180910390f35b61012061016a565b60405161012d919061022d565b60405180910390f35b61013e610170565b005b60015481565b60045481565b60035481565b60008054906101000a900461ffff1681565b60055481565b60025481565b600a600160008282546101839190610248565b9250508190555060146002600082825461019d9190610329565b92505081905550600a600360008282546101b791906102cf565b92505081905550600a600460008282546101d1919061029e565b925050819055506014600560008282546101eb9190610375565b92505081905550565b6101fd8161035d565b82525050565b61020c8161036b565b82525050565b600060208201905061022760008301846101f4565b92915050565b60006020820190506102426000830184610203565b92915050565b60006102538261036b565b915061025e8361036b565b9250827fffffffffffffffffffffffffffffffffffffffffffffffffffffffffffffffff03821115610293576102926103a6565b5b828201905092915050565b60006102a98261036b565b91506102b48361036b565b9250826102c4576102c36103d5565b5b828204905092915050565b60006102da8261036b565b91506102e58361036b565b9250817fffffffffffffffffffffffffffffffffffffffffffffffffffffffffffffffff048311821515161561031e5761031d6103a6565b5b828202905092915050565b60006103348261036b565b915061033f8361036b565b925082821015610352576103516103a6565b5b828203905092915050565b600061ffff82169050919050565b6000819050919050565b60006103808261036b565b915061038b8361036b565b92508261039b5761039a6103d5565b5b828206905092915050565b7f4e487b7100000000000000000000000000000000000000000000000000000000600052601160045260246000fd5b7f4e487b7100000000000000000000000000000000000000000000000000000000600052601260045260246000fdfea2646970667358221220532e7f109762d8c5d7a1f5612d0420af9344bb9c73727c06a120e34ca44f0f5264736f6c63430008000033",
					"opcodes": "PUSH1 0x80 PUSH1 0x40 MSTORE PUSH1 0x14 PUSH1 0x0 DUP1 PUSH2 0x100 EXP DUP2 SLOAD DUP2 PUSH2 0xFFFF MUL NOT AND SWAP1 DUP4 PUSH2 0xFFFF AND MUL OR SWAP1 SSTORE POP PUSH1 0x32 PUSH1 0x1 SSTORE PUSH1 0x32 PUSH1 0x2 SSTORE PUSH1 0xA PUSH1 0x3 SSTORE PUSH1 0x32 PUSH1 0x4 SSTORE PUSH1 0x20 PUSH1 0x5 SSTORE CALLVALUE DUP1 ISZERO PUSH2 0x46 JUMPI PUSH1 0x0 DUP1 REVERT JUMPDEST POP PUSH2 0x43A DUP1 PUSH2 0x56 PUSH1 0x0 CODECOPY PUSH1 0x0 RETURN INVALID PUSH1 0x80 PUSH1 0x40 MSTORE CALLVALUE DUP1 ISZERO PUSH2 0x10 JUMPI PUSH1 0x0 DUP1 REVERT JUMPDEST POP PUSH1 0x4 CALLDATASIZE LT PUSH2 0x7D JUMPI PUSH1 0x0 CALLDATALOAD PUSH1 0xE0 SHR DUP1 PUSH4 0x71CA2ECF GT PUSH2 0x5B JUMPI DUP1 PUSH4 0x71CA2ECF EQ PUSH2 0xDC JUMPI DUP1 PUSH4 0x891DFC3E EQ PUSH2 0xFA JUMPI DUP1 PUSH4 0xC91FA90E EQ PUSH2 0x118 JUMPI DUP1 PUSH4 0xDE292789 EQ PUSH2 0x136 JUMPI PUSH2 0x7D JUMP JUMPDEST DUP1 PUSH4 0xEB325B2 EQ PUSH2 0x82 JUMPI DUP1 PUSH4 0x372512D6 EQ PUSH2 0xA0 JUMPI DUP1 PUSH4 0x5DA25ADD EQ PUSH2 0xBE JUMPI JUMPDEST PUSH1 0x0 DUP1 REVERT JUMPDEST PUSH2 0x8A PUSH2 0x140 JUMP JUMPDEST PUSH1 0x40 MLOAD PUSH2 0x97 SWAP2 SWAP1 PUSH2 0x22D JUMP JUMPDEST PUSH1 0x40 MLOAD DUP1 SWAP2 SUB SWAP1 RETURN JUMPDEST PUSH2 0xA8 PUSH2 0x146 JUMP JUMPDEST PUSH1 0x40 MLOAD PUSH2 0xB5 SWAP2 SWAP1 PUSH2 0x22D JUMP JUMPDEST PUSH1 0x40 MLOAD DUP1 SWAP2 SUB SWAP1 RETURN JUMPDEST PUSH2 0xC6 PUSH2 0x14C JUMP JUMPDEST PUSH1 0x40 MLOAD PUSH2 0xD3 SWAP2 SWAP1 PUSH2 0x22D JUMP JUMPDEST PUSH1 0x40 MLOAD DUP1 SWAP2 SUB SWAP1 RETURN JUMPDEST PUSH2 0xE4 PUSH2 0x152 JUMP JUMPDEST PUSH1 0x40 MLOAD PUSH2 0xF1 SWAP2 SWAP1 PUSH2 0x212 JUMP JUMPDEST PUSH1 0x40 MLOAD DUP1 SWAP2 SUB SWAP1 RETURN JUMPDEST PUSH2 0x102 PUSH2 0x164 JUMP JUMPDEST PUSH1 0x40 MLOAD PUSH2 0x10F SWAP2 SWAP1 PUSH2 0x22D JUMP JUMPDEST PUSH1 0x40 MLOAD DUP1 SWAP2 SUB SWAP1 RETURN JUMPDEST PUSH2 0x120 PUSH2 0x16A JUMP JUMPDEST PUSH1 0x40 MLOAD PUSH2 0x12D SWAP2 SWAP1 PUSH2 0x22D JUMP JUMPDEST PUSH1 0x40 MLOAD DUP1 SWAP2 SUB SWAP1 RETURN JUMPDEST PUSH2 0x13E PUSH2 0x170 JUMP JUMPDEST STOP JUMPDEST PUSH1 0x1 SLOAD DUP2 JUMP JUMPDEST PUSH1 0x4 SLOAD DUP2 JUMP JUMPDEST PUSH1 0x3 SLOAD DUP2 JUMP JUMPDEST PUSH1 0x0 DUP1 SLOAD SWAP1 PUSH2 0x100 EXP SWAP1 DIV PUSH2 0xFFFF AND DUP2 JUMP JUMPDEST PUSH1 0x5 SLOAD DUP2 JUMP JUMPDEST PUSH1 0x2 SLOAD DUP2 JUMP JUMPDEST PUSH1 0xA PUSH1 0x1 PUSH1 0x0 DUP3 DUP3 SLOAD PUSH2 0x183 SWAP2 SWAP1 PUSH2 0x248 JUMP JUMPDEST SWAP3 POP POP DUP2 SWAP1 SSTORE POP PUSH1 0x14 PUSH1 0x2 PUSH1 0x0 DUP3 DUP3 SLOAD PUSH2 0x19D SWAP2 SWAP1 PUSH2 0x329 JUMP JUMPDEST SWAP3 POP POP DUP2 SWAP1 SSTORE POP PUSH1 0xA PUSH1 0x3 PUSH1 0x0 DUP3 DUP3 SLOAD PUSH2 0x1B7 SWAP2 SWAP1 PUSH2 0x2CF JUMP JUMPDEST SWAP3 POP POP DUP2 SWAP1 SSTORE POP PUSH1 0xA PUSH1 0x4 PUSH1 0x0 DUP3 DUP3 SLOAD PUSH2 0x1D1 SWAP2 SWAP1 PUSH2 0x29E JUMP JUMPDEST SWAP3 POP POP DUP2 SWAP1 SSTORE POP PUSH1 0x14 PUSH1 0x5 PUSH1 0x0 DUP3 DUP3 SLOAD PUSH2 0x1EB SWAP2 SWAP1 PUSH2 0x375 JUMP JUMPDEST SWAP3 POP POP DUP2 SWAP1 SSTORE POP JUMP JUMPDEST PUSH2 0x1FD DUP2 PUSH2 0x35D JUMP JUMPDEST DUP3 MSTORE POP POP JUMP JUMPDEST PUSH2 0x20C DUP2 PUSH2 0x36B JUMP JUMPDEST DUP3 MSTORE POP POP JUMP JUMPDEST PUSH1 0x0 PUSH1 0x20 DUP3 ADD SWAP1 POP PUSH2 0x227 PUSH1 0x0 DUP4 ADD DUP5 PUSH2 0x1F4 JUMP JUMPDEST SWAP3 SWAP2 POP POP JUMP JUMPDEST PUSH1 0x0 PUSH1 0x20 DUP3 ADD SWAP1 POP PUSH2 0x242 PUSH1 0x0 DUP4 ADD DUP5 PUSH2 0x203 JUMP JUMPDEST SWAP3 SWAP2 POP POP JUMP JUMPDEST PUSH1 0x0 PUSH2 0x253 DUP3 PUSH2 0x36B JUMP JUMPDEST SWAP2 POP PUSH2 0x25E DUP4 PUSH2 0x36B JUMP JUMPDEST SWAP3 POP DUP3 PUSH32 0xFFFFFFFFFFFFFFFFFFFFFFFFFFFFFFFFFFFFFFFFFFFFFFFFFFFFFFFFFFFFFFFF SUB DUP3 GT ISZERO PUSH2 0x293 JUMPI PUSH2 0x292 PUSH2 0x3A6 JUMP JUMPDEST JUMPDEST DUP3 DUP3 ADD SWAP1 POP SWAP3 SWAP2 POP POP JUMP JUMPDEST PUSH1 0x0 PUSH2 0x2A9 DUP3 PUSH2 0x36B JUMP JUMPDEST SWAP2 POP PUSH2 0x2B4 DUP4 PUSH2 0x36B JUMP JUMPDEST SWAP3 POP DUP3 PUSH2 0x2C4 JUMPI PUSH2 0x2C3 PUSH2 0x3D5 JUMP JUMPDEST JUMPDEST DUP3 DUP3 DIV SWAP1 POP SWAP3 SWAP2 POP POP JUMP JUMPDEST PUSH1 0x0 PUSH2 0x2DA DUP3 PUSH2 0x36B JUMP JUMPDEST SWAP2 POP PUSH2 0x2E5 DUP4 PUSH2 0x36B JUMP JUMPDEST SWAP3 POP DUP2 PUSH32 0xFFFFFFFFFFFFFFFFFFFFFFFFFFFFFFFFFFFFFFFFFFFFFFFFFFFFFFFFFFFFFFFF DIV DUP4 GT DUP3 ISZERO ISZERO AND ISZERO PUSH2 0x31E JUMPI PUSH2 0x31D PUSH2 0x3A6 JUMP JUMPDEST JUMPDEST DUP3 DUP3 MUL SWAP1 POP SWAP3 SWAP2 POP POP JUMP JUMPDEST PUSH1 0x0 PUSH2 0x334 DUP3 PUSH2 0x36B JUMP JUMPDEST SWAP2 POP PUSH2 0x33F DUP4 PUSH2 0x36B JUMP JUMPDEST SWAP3 POP DUP3 DUP3 LT ISZERO PUSH2 0x352 JUMPI PUSH2 0x351 PUSH2 0x3A6 JUMP JUMPDEST JUMPDEST DUP3 DUP3 SUB SWAP1 POP SWAP3 SWAP2 POP POP JUMP JUMPDEST PUSH1 0x0 PUSH2 0xFFFF DUP3 AND SWAP1 POP SWAP2 SWAP1 POP JUMP JUMPDEST PUSH1 0x0 DUP2 SWAP1 POP SWAP2 SWAP1 POP JUMP JUMPDEST PUSH1 0x0 PUSH2 0x380 DUP3 PUSH2 0x36B JUMP JUMPDEST SWAP2 POP PUSH2 0x38B DUP4 PUSH2 0x36B JUMP JUMPDEST SWAP3 POP DUP3 PUSH2 0x39B JUMPI PUSH2 0x39A PUSH2 0x3D5 JUMP JUMPDEST JUMPDEST DUP3 DUP3 MOD SWAP1 POP SWAP3 SWAP2 POP POP JUMP JUMPDEST PUSH32 0x4E487B7100000000000000000000000000000000000000000000000000000000 PUSH1 0x0 MSTORE PUSH1 0x11 PUSH1 0x4 MSTORE PUSH1 0x24 PUSH1 0x0 REVERT JUMPDEST PUSH32 0x4E487B7100000000000000000000000000000000000000000000000000000000 PUSH1 0x0 MSTORE PUSH1 0x12 PUSH1 0x4 MSTORE PUSH1 0x24 PUSH1 0x0 REVERT INVALID LOG2 PUSH5 0x6970667358 0x22 SLT KECCAK256 MSTORE8 0x2E PUSH32 0x109762D8C5D7A1F5612D0420AF9344BB9C73727C06A120E34CA44F0F5264736F PUSH13 0x63430008000033000000000000 "
				},
				"gasEstimates": {
					"creation": {
						"codeDepositCost": "216400",
						"executionCost": "121154",
						"totalCost": "337554"
					},
					"external": {
						"assign_div()": "1152",
						"assign_mod()": "1151",
						"assign_mul()": "1174",
						"assign_sub()": "1173",
						"assignment()": "1168",
						"assignment_add()": "1130",
						"getResult()": "infinite"
					}
				},
				"methodIdentifiers": {
					"assign_div()": "372512d6",
					"assign_mod()": "891dfc3e",
					"assign_mul()": "5da25add",
					"assign_sub()": "c91fa90e",
					"assignment()": "71ca2ecf",
					"assignment_add()": "0eb325b2",
					"getResult()": "de292789"
				}
			},
			"storageLayout": {
				"storage": [
					{
						"astId": 4,
						"contract": "pratical_no 2./Aassigment_oprator.sol:SolidityTest",
						"label": "assignment",
						"offset": 0,
						"slot": "0",
						"type": "t_uint16"
					},
					{
						"astId": 7,
						"contract": "pratical_no 2./Aassigment_oprator.sol:SolidityTest",
						"label": "assignment_add",
						"offset": 0,
						"slot": "1",
						"type": "t_uint256"
					},
					{
						"astId": 10,
						"contract": "pratical_no 2./Aassigment_oprator.sol:SolidityTest",
						"label": "assign_sub",
						"offset": 0,
						"slot": "2",
						"type": "t_uint256"
					},
					{
						"astId": 13,
						"contract": "pratical_no 2./Aassigment_oprator.sol:SolidityTest",
						"label": "assign_mul",
						"offset": 0,
						"slot": "3",
						"type": "t_uint256"
					},
					{
						"astId": 16,
						"contract": "pratical_no 2./Aassigment_oprator.sol:SolidityTest",
						"label": "assign_div",
						"offset": 0,
						"slot": "4",
						"type": "t_uint256"
					},
					{
						"astId": 19,
						"contract": "pratical_no 2./Aassigment_oprator.sol:SolidityTest",
						"label": "assign_mod",
						"offset": 0,
						"slot": "5",
						"type": "t_uint256"
					}
				],
				"types": {
					"t_uint16": {
						"encoding": "inplace",
						"label": "uint16",
						"numberOfBytes": "2"
					},
					"t_uint256": {
						"encoding": "inplace",
						"label": "uint256",
						"numberOfBytes": "32"
					}
				}
			},
			"userdoc": {
				"kind": "user",
				"methods": {},
				"version": 1
			}
		}
	}
}