{
	"pratical_no 2./multi_variable.sol": {
		"SolidityTest": {
			"abi": [
				{
					"inputs": [],
					"name": "a",
					"outputs": [
						{
							"internalType": "uint16",
							"name": "",
							"type": "uint16"
						}
					],
					"stateMutability": "view",
					"type": "function"
				},
				{
					"inputs": [],
					"name": "b",
					"outputs": [
						{
							"internalType": "uint16",
							"name": "",
							"type": "uint16"
						}
					],
					"stateMutability": "view",
					"type": "function"
				},
				{
					"inputs": [],
					"name": "dec",
					"outputs": [
						{
							"internalType": "uint256",
							"name": "",
							"type": "uint256"
						}
					],
					"stateMutability": "view",
					"type": "function"
				},
				{
					"inputs": [],
					"name": "diff",
					"outputs": [
						{
							"internalType": "uint256",
							"name": "",
							"type": "uint256"
						}
					],
					"stateMutability": "view",
					"type": "function"
				},
				{
					"inputs": [],
					"name": "div",
					"outputs": [
						{
							"internalType": "uint256",
							"name": "",
							"type": "uint256"
						}
					],
					"stateMutability": "view",
					"type": "function"
				},
				{
					"inputs": [],
					"name": "inc",
					"outputs": [
						{
							"internalType": "uint256",
							"name": "",
							"type": "uint256"
						}
					],
					"stateMutability": "view",
					"type": "function"
				},
				{
					"inputs": [],
					"name": "mod",
					"outputs": [
						{
							"internalType": "uint256",
							"name": "",
							"type": "uint256"
						}
					],
					"stateMutability": "view",
					"type": "function"
				},
				{
					"inputs": [],
					"name": "mul",
					"outputs": [
						{
							"internalType": "uint256",
							"name": "",
							"type": "uint256"
						}
					],
					"stateMutability": "view",
					"type": "function"
				},
				{
					"inputs": [],
					"name": "sum",
					"outputs": [
						{
							"internalType": "uint256",
							"name": "",
							"type": "uint256"
						}
					],
					"stateMutability": "view",
					"type": "function"
				}
			],
			"devdoc": {
				"kind": "dev",
				"methods": {},
				"version": 1
			},
			"evm": {
				"assembly": "    /* \"pratical_no 2./multi_variable.sol\":68:370  contract SolidityTest {\r... */\n  mstore(0x40, 0x80)\n    /* \"pratical_no 2./multi_variable.sol\":117:119  20 */\n  0x14\n    /* \"pratical_no 2./multi_variable.sol\":99:119  uint16 public a = 20 */\n  0x00\n  dup1\n  0x0100\n  exp\n  dup2\n  sload\n  dup2\n  0xffff\n  mul\n  not\n  and\n  swap1\n  dup4\n  0xffff\n  and\n  mul\n  or\n  swap1\n  sstore\n  pop\n    /* \"pratical_no 2./multi_variable.sol\":141:143  10 */\n  0x0a\n    /* \"pratical_no 2./multi_variable.sol\":123:143  uint16 public b = 10 */\n  0x00\n  exp(0x0100, 0x02)\n  dup2\n  sload\n  dup2\n  0xffff\n  mul\n  not\n  and\n  swap1\n  dup4\n  0xffff\n  and\n  mul\n  or\n  swap1\n  sstore\n  pop\n    /* \"pratical_no 2./multi_variable.sol\":174:175  b */\n  0x00\n  0x02\n  swap1\n  sload\n  swap1\n  0x0100\n  exp\n  swap1\n  div\n  0xffff\n  and\n    /* \"pratical_no 2./multi_variable.sol\":170:171  a */\n  0x00\n  dup1\n  sload\n  swap1\n  0x0100\n  exp\n  swap1\n  div\n  0xffff\n  and\n    /* \"pratical_no 2./multi_variable.sol\":170:175  a + b */\n  tag_1\n  swap2\n  swap1\n  tag_2\n  jump\t// in\ntag_1:\n    /* \"pratical_no 2./multi_variable.sol\":152:175  uint public sum = a + b */\n  0xffff\n  and\n  0x01\n  sstore\n    /* \"pratical_no 2./multi_variable.sol\":207:208  b */\n  0x00\n  0x02\n  swap1\n  sload\n  swap1\n  0x0100\n  exp\n  swap1\n  div\n  0xffff\n  and\n    /* \"pratical_no 2./multi_variable.sol\":203:204  a */\n  0x00\n  dup1\n  sload\n  swap1\n  0x0100\n  exp\n  swap1\n  div\n  0xffff\n  and\n    /* \"pratical_no 2./multi_variable.sol\":203:208  a - b */\n  tag_3\n  swap2\n  swap1\n  tag_4\n  jump\t// in\ntag_3:\n    /* \"pratical_no 2./multi_variable.sol\":184:208  uint public diff = a - b */\n  0xffff\n  and\n  0x02\n  sstore\n    /* \"pratical_no 2./multi_variable.sol\":239:240  b */\n  0x00\n  0x02\n  swap1\n  sload\n  swap1\n  0x0100\n  exp\n  swap1\n  div\n  0xffff\n  and\n    /* \"pratical_no 2./multi_variable.sol\":235:236  a */\n  0x00\n  dup1\n  sload\n  swap1\n  0x0100\n  exp\n  swap1\n  div\n  0xffff\n  and\n    /* \"pratical_no 2./multi_variable.sol\":235:240  a * b */\n  tag_5\n  swap2\n  swap1\n  tag_6\n  jump\t// in\ntag_5:\n    /* \"pratical_no 2./multi_variable.sol\":217:240  uint public mul = a * b */\n  0xffff\n  and\n  0x03\n  sstore\n    /* \"pratical_no 2./multi_variable.sol\":270:271  b */\n  0x00\n  0x02\n  swap1\n  sload\n  swap1\n  0x0100\n  exp\n  swap1\n  div\n  0xffff\n  and\n    /* \"pratical_no 2./multi_variable.sol\":266:267  a */\n  0x00\n  dup1\n  sload\n  swap1\n  0x0100\n  exp\n  swap1\n  div\n  0xffff\n  and\n    /* \"pratical_no 2./multi_variable.sol\":266:271  a / b */\n  tag_7\n  swap2\n  swap1\n  tag_8\n  jump\t// in\ntag_7:\n    /* \"pratical_no 2./multi_variable.sol\":248:271  uint public div = a / b */\n  0xffff\n  and\n  0x04\n  sstore\n    /* \"pratical_no 2./multi_variable.sol\":302:303  b */\n  0x00\n  0x02\n  swap1\n  sload\n  swap1\n  0x0100\n  exp\n  swap1\n  div\n  0xffff\n  and\n    /* \"pratical_no 2./multi_variable.sol\":298:299  a */\n  0x00\n  dup1\n  sload\n  swap1\n  0x0100\n  exp\n  swap1\n  div\n  0xffff\n  and\n    /* \"pratical_no 2./multi_variable.sol\":298:303  a % b */\n  tag_9\n  swap2\n  swap1\n  tag_10\n  jump\t// in\ntag_9:\n    /* \"pratical_no 2./multi_variable.sol\":280:303  uint public mod = a % b */\n  0xffff\n  and\n  0x05\n  sstore\n    /* \"pratical_no 2./multi_variable.sol\":332:333  b */\n  0x00\n  0x02\n    /* \"pratical_no 2./multi_variable.sol\":330:333  --b */\n  dup2\n  dup2\n  swap1\n  sload\n  swap1\n  0x0100\n  exp\n  swap1\n  div\n  0xffff\n  and\n  tag_11\n  swap1\n  tag_12\n  jump\t// in\ntag_11:\n  swap2\n  swap1\n  0x0100\n  exp\n  dup2\n  sload\n  dup2\n  0xffff\n  mul\n  not\n  and\n  swap1\n  dup4\n  0xffff\n  and\n  mul\n  or\n  swap1\n  sstore\n    /* \"pratical_no 2./multi_variable.sol\":312:333  uint public dec = --b */\n  0xffff\n  and\n  0x06\n  sstore\n    /* \"pratical_no 2./multi_variable.sol\":362:363  a */\n  0x00\n  dup1\n    /* \"pratical_no 2./multi_variable.sol\":360:363  ++a */\n  dup2\n  dup2\n  swap1\n  sload\n  swap1\n  0x0100\n  exp\n  swap1\n  div\n  0xffff\n  and\n  tag_13\n  swap1\n  tag_14\n  jump\t// in\ntag_13:\n  swap2\n  swap1\n  0x0100\n  exp\n  dup2\n  sload\n  dup2\n  0xffff\n  mul\n  not\n  and\n  swap1\n  dup4\n  0xffff\n  and\n  mul\n  or\n  swap1\n  sstore\n    /* \"pratical_no 2./multi_variable.sol\":342:363  uint public inc = ++a */\n  0xffff\n  and\n  0x07\n  sstore\n    /* \"pratical_no 2./multi_variable.sol\":68:370  contract SolidityTest {\r... */\n  callvalue\n  dup1\n  iszero\n  tag_15\n  jumpi\n  0x00\n  dup1\n  revert\ntag_15:\n  pop\n  jump(tag_16)\n    /* \"#utility.yul\":7:249   */\ntag_2:\n  0x00\n    /* \"#utility.yul\":65:84   */\n  tag_19\n    /* \"#utility.yul\":82:83   */\n  dup3\n    /* \"#utility.yul\":65:84   */\n  tag_20\n  jump\t// in\ntag_19:\n    /* \"#utility.yul\":60:84   */\n  swap2\n  pop\n    /* \"#utility.yul\":98:117   */\n  tag_21\n    /* \"#utility.yul\":115:116   */\n  dup4\n    /* \"#utility.yul\":98:117   */\n  tag_20\n  jump\t// in\ntag_21:\n    /* \"#utility.yul\":93:117   */\n  swap3\n  pop\n    /* \"#utility.yul\":191:192   */\n  dup3\n    /* \"#utility.yul\":183:189   */\n  0xffff\n    /* \"#utility.yul\":179:193   */\n  sub\n    /* \"#utility.yul\":176:177   */\n  dup3\n    /* \"#utility.yul\":173:194   */\n  gt\n    /* \"#utility.yul\":170:172   */\n  iszero\n  tag_22\n  jumpi\n    /* \"#utility.yul\":197:215   */\n  tag_23\n  tag_24\n  jump\t// in\ntag_23:\n    /* \"#utility.yul\":170:172   */\ntag_22:\n    /* \"#utility.yul\":241:242   */\n  dup3\n    /* \"#utility.yul\":238:239   */\n  dup3\n    /* \"#utility.yul\":234:243   */\n  add\n    /* \"#utility.yul\":227:243   */\n  swap1\n  pop\n    /* \"#utility.yul\":50:249   */\n  swap3\n  swap2\n  pop\n  pop\n  jump\t// out\n    /* \"#utility.yul\":255:437   */\ntag_8:\n  0x00\n    /* \"#utility.yul\":311:330   */\n  tag_26\n    /* \"#utility.yul\":328:329   */\n  dup3\n    /* \"#utility.yul\":311:330   */\n  tag_20\n  jump\t// in\ntag_26:\n    /* \"#utility.yul\":306:330   */\n  swap2\n  pop\n    /* \"#utility.yul\":344:363   */\n  tag_27\n    /* \"#utility.yul\":361:362   */\n  dup4\n    /* \"#utility.yul\":344:363   */\n  tag_20\n  jump\t// in\ntag_27:\n    /* \"#utility.yul\":339:363   */\n  swap3\n  pop\n    /* \"#utility.yul\":382:383   */\n  dup3\n    /* \"#utility.yul\":372:374   */\n  tag_28\n  jumpi\n    /* \"#utility.yul\":387:405   */\n  tag_29\n  tag_30\n  jump\t// in\ntag_29:\n    /* \"#utility.yul\":372:374   */\ntag_28:\n    /* \"#utility.yul\":429:430   */\n  dup3\n    /* \"#utility.yul\":426:427   */\n  dup3\n    /* \"#utility.yul\":422:431   */\n  div\n    /* \"#utility.yul\":417:431   */\n  swap1\n  pop\n    /* \"#utility.yul\":296:437   */\n  swap3\n  swap2\n  pop\n  pop\n  jump\t// out\n    /* \"#utility.yul\":443:728   */\ntag_6:\n  0x00\n    /* \"#utility.yul\":505:524   */\n  tag_32\n    /* \"#utility.yul\":522:523   */\n  dup3\n    /* \"#utility.yul\":505:524   */\n  tag_20\n  jump\t// in\ntag_32:\n    /* \"#utility.yul\":500:524   */\n  swap2\n  pop\n    /* \"#utility.yul\":538:557   */\n  tag_33\n    /* \"#utility.yul\":555:556   */\n  dup4\n    /* \"#utility.yul\":538:557   */\n  tag_20\n  jump\t// in\ntag_33:\n    /* \"#utility.yul\":533:557   */\n  swap3\n  pop\n    /* \"#utility.yul\":665:666   */\n  dup2\n    /* \"#utility.yul\":657:663   */\n  0xffff\n    /* \"#utility.yul\":653:667   */\n  div\n    /* \"#utility.yul\":650:651   */\n  dup4\n    /* \"#utility.yul\":647:668   */\n  gt\n    /* \"#utility.yul\":642:643   */\n  dup3\n    /* \"#utility.yul\":635:644   */\n  iszero\n    /* \"#utility.yul\":628:645   */\n  iszero\n    /* \"#utility.yul\":624:669   */\n  and\n    /* \"#utility.yul\":621:623   */\n  iszero\n  tag_34\n  jumpi\n    /* \"#utility.yul\":672:690   */\n  tag_35\n  tag_24\n  jump\t// in\ntag_35:\n    /* \"#utility.yul\":621:623   */\ntag_34:\n    /* \"#utility.yul\":720:721   */\n  dup3\n    /* \"#utility.yul\":717:718   */\n  dup3\n    /* \"#utility.yul\":713:722   */\n  mul\n    /* \"#utility.yul\":702:722   */\n  swap1\n  pop\n    /* \"#utility.yul\":490:728   */\n  swap3\n  swap2\n  pop\n  pop\n  jump\t// out\n    /* \"#utility.yul\":734:922   */\ntag_4:\n  0x00\n    /* \"#utility.yul\":793:812   */\n  tag_37\n    /* \"#utility.yul\":810:811   */\n  dup3\n    /* \"#utility.yul\":793:812   */\n  tag_20\n  jump\t// in\ntag_37:\n    /* \"#utility.yul\":788:812   */\n  swap2\n  pop\n    /* \"#utility.yul\":826:845   */\n  tag_38\n    /* \"#utility.yul\":843:844   */\n  dup4\n    /* \"#utility.yul\":826:845   */\n  tag_20\n  jump\t// in\ntag_38:\n    /* \"#utility.yul\":821:845   */\n  swap3\n  pop\n    /* \"#utility.yul\":864:865   */\n  dup3\n    /* \"#utility.yul\":861:862   */\n  dup3\n    /* \"#utility.yul\":858:866   */\n  lt\n    /* \"#utility.yul\":855:857   */\n  iszero\n  tag_39\n  jumpi\n    /* \"#utility.yul\":869:887   */\n  tag_40\n  tag_24\n  jump\t// in\ntag_40:\n    /* \"#utility.yul\":855:857   */\ntag_39:\n    /* \"#utility.yul\":914:915   */\n  dup3\n    /* \"#utility.yul\":911:912   */\n  dup3\n    /* \"#utility.yul\":907:916   */\n  sub\n    /* \"#utility.yul\":899:916   */\n  swap1\n  pop\n    /* \"#utility.yul\":778:922   */\n  swap3\n  swap2\n  pop\n  pop\n  jump\t// out\n    /* \"#utility.yul\":928:1017   */\ntag_20:\n  0x00\n    /* \"#utility.yul\":1004:1010   */\n  0xffff\n    /* \"#utility.yul\":997:1002   */\n  dup3\n    /* \"#utility.yul\":993:1011   */\n  and\n    /* \"#utility.yul\":982:1011   */\n  swap1\n  pop\n    /* \"#utility.yul\":972:1017   */\n  swap2\n  swap1\n  pop\n  jump\t// out\n    /* \"#utility.yul\":1023:1192   */\ntag_12:\n  0x00\n    /* \"#utility.yul\":1084:1107   */\n  tag_43\n    /* \"#utility.yul\":1101:1106   */\n  dup3\n    /* \"#utility.yul\":1084:1107   */\n  tag_20\n  jump\t// in\ntag_43:\n    /* \"#utility.yul\":1075:1107   */\n  swap2\n  pop\n    /* \"#utility.yul\":1129:1133   */\n  0x00\n    /* \"#utility.yul\":1122:1127   */\n  dup3\n    /* \"#utility.yul\":1119:1134   */\n  eq\n    /* \"#utility.yul\":1116:1118   */\n  iszero\n  tag_44\n  jumpi\n    /* \"#utility.yul\":1137:1155   */\n  tag_45\n  tag_24\n  jump\t// in\ntag_45:\n    /* \"#utility.yul\":1116:1118   */\ntag_44:\n    /* \"#utility.yul\":1184:1185   */\n  0x01\n    /* \"#utility.yul\":1177:1182   */\n  dup3\n    /* \"#utility.yul\":1173:1186   */\n  sub\n    /* \"#utility.yul\":1166:1186   */\n  swap1\n  pop\n    /* \"#utility.yul\":1065:1192   */\n  swap2\n  swap1\n  pop\n  jump\t// out\n    /* \"#utility.yul\":1198:1369   */\ntag_14:\n  0x00\n    /* \"#utility.yul\":1259:1282   */\n  tag_47\n    /* \"#utility.yul\":1276:1281   */\n  dup3\n    /* \"#utility.yul\":1259:1282   */\n  tag_20\n  jump\t// in\ntag_47:\n    /* \"#utility.yul\":1250:1282   */\n  swap2\n  pop\n    /* \"#utility.yul\":1304:1310   */\n  0xffff\n    /* \"#utility.yul\":1297:1302   */\n  dup3\n    /* \"#utility.yul\":1294:1311   */\n  eq\n    /* \"#utility.yul\":1291:1293   */\n  iszero\n  tag_48\n  jumpi\n    /* \"#utility.yul\":1314:1332   */\n  tag_49\n  tag_24\n  jump\t// in\ntag_49:\n    /* \"#utility.yul\":1291:1293   */\ntag_48:\n    /* \"#utility.yul\":1361:1362   */\n  0x01\n    /* \"#utility.yul\":1354:1359   */\n  dup3\n    /* \"#utility.yul\":1350:1363   */\n  add\n    /* \"#utility.yul\":1343:1363   */\n  swap1\n  pop\n    /* \"#utility.yul\":1240:1369   */\n  swap2\n  swap1\n  pop\n  jump\t// out\n    /* \"#utility.yul\":1375:1548   */\ntag_10:\n  0x00\n    /* \"#utility.yul\":1423:1442   */\n  tag_51\n    /* \"#utility.yul\":1440:1441   */\n  dup3\n    /* \"#utility.yul\":1423:1442   */\n  tag_20\n  jump\t// in\ntag_51:\n    /* \"#utility.yul\":1418:1442   */\n  swap2\n  pop\n    /* \"#utility.yul\":1456:1475   */\n  tag_52\n    /* \"#utility.yul\":1473:1474   */\n  dup4\n    /* \"#utility.yul\":1456:1475   */\n  tag_20\n  jump\t// in\ntag_52:\n    /* \"#utility.yul\":1451:1475   */\n  swap3\n  pop\n    /* \"#utility.yul\":1494:1495   */\n  dup3\n    /* \"#utility.yul\":1484:1486   */\n  tag_53\n  jumpi\n    /* \"#utility.yul\":1499:1517   */\n  tag_54\n  tag_30\n  jump\t// in\ntag_54:\n    /* \"#utility.yul\":1484:1486   */\ntag_53:\n    /* \"#utility.yul\":1540:1541   */\n  dup3\n    /* \"#utility.yul\":1537:1538   */\n  dup3\n    /* \"#utility.yul\":1533:1542   */\n  mod\n    /* \"#utility.yul\":1528:1542   */\n  swap1\n  pop\n    /* \"#utility.yul\":1408:1548   */\n  swap3\n  swap2\n  pop\n  pop\n  jump\t// out\n    /* \"#utility.yul\":1554:1734   */\ntag_24:\n    /* \"#utility.yul\":1602:1679   */\n  0x4e487b7100000000000000000000000000000000000000000000000000000000\n    /* \"#utility.yul\":1599:1600   */\n  0x00\n    /* \"#utility.yul\":1592:1680   */\n  mstore\n    /* \"#utility.yul\":1699:1703   */\n  0x11\n    /* \"#utility.yul\":1696:1697   */\n  0x04\n    /* \"#utility.yul\":1689:1704   */\n  mstore\n    /* \"#utility.yul\":1723:1727   */\n  0x24\n    /* \"#utility.yul\":1720:1721   */\n  0x00\n    /* \"#utility.yul\":1713:1728   */\n  revert\n    /* \"#utility.yul\":1740:1920   */\ntag_30:\n    /* \"#utility.yul\":1788:1865   */\n  0x4e487b7100000000000000000000000000000000000000000000000000000000\n    /* \"#utility.yul\":1785:1786   */\n  0x00\n    /* \"#utility.yul\":1778:1866   */\n  mstore\n    /* \"#utility.yul\":1885:1889   */\n  0x12\n    /* \"#utility.yul\":1882:1883   */\n  0x04\n    /* \"#utility.yul\":1875:1890   */\n  mstore\n    /* \"#utility.yul\":1909:1913   */\n  0x24\n    /* \"#utility.yul\":1906:1907   */\n  0x00\n    /* \"#utility.yul\":1899:1914   */\n  revert\n    /* \"pratical_no 2./multi_variable.sol\":68:370  contract SolidityTest {\r... */\ntag_16:\n  dataSize(sub_0)\n  dup1\n  dataOffset(sub_0)\n  0x00\n  codecopy\n  0x00\n  return\nstop\n\nsub_0: assembly {\n        /* \"pratical_no 2./multi_variable.sol\":68:370  contract SolidityTest {\r... */\n      mstore(0x40, 0x80)\n      callvalue\n      dup1\n      iszero\n      tag_1\n      jumpi\n      0x00\n      dup1\n      revert\n    tag_1:\n      pop\n      jumpi(tag_2, lt(calldatasize, 0x04))\n      shr(0xe0, calldataload(0x00))\n      dup1\n      0x58931c46\n      gt\n      tag_12\n      jumpi\n      dup1\n      0x58931c46\n      eq\n      tag_7\n      jumpi\n      dup1\n      0x853255cc\n      eq\n      tag_8\n      jumpi\n      dup1\n      0xa0d7afb7\n      eq\n      tag_9\n      jumpi\n      dup1\n      0xb3bcfa82\n      eq\n      tag_10\n      jumpi\n      dup1\n      0xf9fa48c3\n      eq\n      tag_11\n      jumpi\n      jump(tag_2)\n    tag_12:\n      dup1\n      0x0dbe671f\n      eq\n      tag_3\n      jumpi\n      dup1\n      0x2986e054\n      eq\n      tag_4\n      jumpi\n      dup1\n      0x371303c0\n      eq\n      tag_5\n      jumpi\n      dup1\n      0x4df7e3d0\n      eq\n      tag_6\n      jumpi\n    tag_2:\n      0x00\n      dup1\n      revert\n        /* \"pratical_no 2./multi_variable.sol\":99:119  uint16 public a = 20 */\n    tag_3:\n      tag_13\n      tag_14\n      jump\t// in\n    tag_13:\n      mload(0x40)\n      tag_15\n      swap2\n      swap1\n      tag_16\n      jump\t// in\n    tag_15:\n      mload(0x40)\n      dup1\n      swap2\n      sub\n      swap1\n      return\n        /* \"pratical_no 2./multi_variable.sol\":280:303  uint public mod = a % b */\n    tag_4:\n      tag_17\n      tag_18\n      jump\t// in\n    tag_17:\n      mload(0x40)\n      tag_19\n      swap2\n      swap1\n      tag_20\n      jump\t// in\n    tag_19:\n      mload(0x40)\n      dup1\n      swap2\n      sub\n      swap1\n      return\n        /* \"pratical_no 2./multi_variable.sol\":342:363  uint public inc = ++a */\n    tag_5:\n      tag_21\n      tag_22\n      jump\t// in\n    tag_21:\n      mload(0x40)\n      tag_23\n      swap2\n      swap1\n      tag_20\n      jump\t// in\n    tag_23:\n      mload(0x40)\n      dup1\n      swap2\n      sub\n      swap1\n      return\n        /* \"pratical_no 2./multi_variable.sol\":123:143  uint16 public b = 10 */\n    tag_6:\n      tag_24\n      tag_25\n      jump\t// in\n    tag_24:\n      mload(0x40)\n      tag_26\n      swap2\n      swap1\n      tag_16\n      jump\t// in\n    tag_26:\n      mload(0x40)\n      dup1\n      swap2\n      sub\n      swap1\n      return\n        /* \"pratical_no 2./multi_variable.sol\":217:240  uint public mul = a * b */\n    tag_7:\n      tag_27\n      tag_28\n      jump\t// in\n    tag_27:\n      mload(0x40)\n      tag_29\n      swap2\n      swap1\n      tag_20\n      jump\t// in\n    tag_29:\n      mload(0x40)\n      dup1\n      swap2\n      sub\n      swap1\n      return\n        /* \"pratical_no 2./multi_variable.sol\":152:175  uint public sum = a + b */\n    tag_8:\n      tag_30\n      tag_31\n      jump\t// in\n    tag_30:\n      mload(0x40)\n      tag_32\n      swap2\n      swap1\n      tag_20\n      jump\t// in\n    tag_32:\n      mload(0x40)\n      dup1\n      swap2\n      sub\n      swap1\n      return\n        /* \"pratical_no 2./multi_variable.sol\":184:208  uint public diff = a - b */\n    tag_9:\n      tag_33\n      tag_34\n      jump\t// in\n    tag_33:\n      mload(0x40)\n      tag_35\n      swap2\n      swap1\n      tag_20\n      jump\t// in\n    tag_35:\n      mload(0x40)\n      dup1\n      swap2\n      sub\n      swap1\n      return\n        /* \"pratical_no 2./multi_variable.sol\":312:333  uint public dec = --b */\n    tag_10:\n      tag_36\n      tag_37\n      jump\t// in\n    tag_36:\n      mload(0x40)\n      tag_38\n      swap2\n      swap1\n      tag_20\n      jump\t// in\n    tag_38:\n      mload(0x40)\n      dup1\n      swap2\n      sub\n      swap1\n      return\n        /* \"pratical_no 2./multi_variable.sol\":248:271  uint public div = a / b */\n    tag_11:\n      tag_39\n      tag_40\n      jump\t// in\n    tag_39:\n      mload(0x40)\n      tag_41\n      swap2\n      swap1\n      tag_20\n      jump\t// in\n    tag_41:\n      mload(0x40)\n      dup1\n      swap2\n      sub\n      swap1\n      return\n        /* \"pratical_no 2./multi_variable.sol\":99:119  uint16 public a = 20 */\n    tag_14:\n      0x00\n      dup1\n      sload\n      swap1\n      0x0100\n      exp\n      swap1\n      div\n      0xffff\n      and\n      dup2\n      jump\t// out\n        /* \"pratical_no 2./multi_variable.sol\":280:303  uint public mod = a % b */\n    tag_18:\n      sload(0x05)\n      dup2\n      jump\t// out\n        /* \"pratical_no 2./multi_variable.sol\":342:363  uint public inc = ++a */\n    tag_22:\n      sload(0x07)\n      dup2\n      jump\t// out\n        /* \"pratical_no 2./multi_variable.sol\":123:143  uint16 public b = 10 */\n    tag_25:\n      0x00\n      0x02\n      swap1\n      sload\n      swap1\n      0x0100\n      exp\n      swap1\n      div\n      0xffff\n      and\n      dup2\n      jump\t// out\n        /* \"pratical_no 2./multi_variable.sol\":217:240  uint public mul = a * b */\n    tag_28:\n      sload(0x03)\n      dup2\n      jump\t// out\n        /* \"pratical_no 2./multi_variable.sol\":152:175  uint public sum = a + b */\n    tag_31:\n      sload(0x01)\n      dup2\n      jump\t// out\n        /* \"pratical_no 2./multi_variable.sol\":184:208  uint public diff = a - b */\n    tag_34:\n      sload(0x02)\n      dup2\n      jump\t// out\n        /* \"pratical_no 2./multi_variable.sol\":312:333  uint public dec = --b */\n    tag_37:\n      sload(0x06)\n      dup2\n      jump\t// out\n        /* \"pratical_no 2./multi_variable.sol\":248:271  uint public div = a / b */\n    tag_40:\n      sload(0x04)\n      dup2\n      jump\t// out\n        /* \"#utility.yul\":7:122   */\n    tag_43:\n        /* \"#utility.yul\":92:115   */\n      tag_45\n        /* \"#utility.yul\":109:114   */\n      dup2\n        /* \"#utility.yul\":92:115   */\n      tag_46\n      jump\t// in\n    tag_45:\n        /* \"#utility.yul\":87:90   */\n      dup3\n        /* \"#utility.yul\":80:116   */\n      mstore\n        /* \"#utility.yul\":70:122   */\n      pop\n      pop\n      jump\t// out\n        /* \"#utility.yul\":128:246   */\n    tag_47:\n        /* \"#utility.yul\":215:239   */\n      tag_49\n        /* \"#utility.yul\":233:238   */\n      dup2\n        /* \"#utility.yul\":215:239   */\n      tag_50\n      jump\t// in\n    tag_49:\n        /* \"#utility.yul\":210:213   */\n      dup3\n        /* \"#utility.yul\":203:240   */\n      mstore\n        /* \"#utility.yul\":193:246   */\n      pop\n      pop\n      jump\t// out\n        /* \"#utility.yul\":252:470   */\n    tag_16:\n      0x00\n        /* \"#utility.yul\":381:383   */\n      0x20\n        /* \"#utility.yul\":370:379   */\n      dup3\n        /* \"#utility.yul\":366:384   */\n      add\n        /* \"#utility.yul\":358:384   */\n      swap1\n      pop\n        /* \"#utility.yul\":394:463   */\n      tag_52\n        /* \"#utility.yul\":460:461   */\n      0x00\n        /* \"#utility.yul\":449:458   */\n      dup4\n        /* \"#utility.yul\":445:462   */\n      add\n        /* \"#utility.yul\":436:442   */\n      dup5\n        /* \"#utility.yul\":394:463   */\n      tag_43\n      jump\t// in\n    tag_52:\n        /* \"#utility.yul\":348:470   */\n      swap3\n      swap2\n      pop\n      pop\n      jump\t// out\n        /* \"#utility.yul\":476:698   */\n    tag_20:\n      0x00\n        /* \"#utility.yul\":607:609   */\n      0x20\n        /* \"#utility.yul\":596:605   */\n      dup3\n        /* \"#utility.yul\":592:610   */\n      add\n        /* \"#utility.yul\":584:610   */\n      swap1\n      pop\n        /* \"#utility.yul\":620:691   */\n      tag_54\n        /* \"#utility.yul\":688:689   */\n      0x00\n        /* \"#utility.yul\":677:686   */\n      dup4\n        /* \"#utility.yul\":673:690   */\n      add\n        /* \"#utility.yul\":664:670   */\n      dup5\n        /* \"#utility.yul\":620:691   */\n      tag_47\n      jump\t// in\n    tag_54:\n        /* \"#utility.yul\":574:698   */\n      swap3\n      swap2\n      pop\n      pop\n      jump\t// out\n        /* \"#utility.yul\":704:793   */\n    tag_46:\n      0x00\n        /* \"#utility.yul\":780:786   */\n      0xffff\n        /* \"#utility.yul\":773:778   */\n      dup3\n        /* \"#utility.yul\":769:787   */\n      and\n        /* \"#utility.yul\":758:787   */\n      swap1\n      pop\n        /* \"#utility.yul\":748:793   */\n      swap2\n      swap1\n      pop\n      jump\t// out\n        /* \"#utility.yul\":799:876   */\n    tag_50:\n      0x00\n        /* \"#utility.yul\":865:870   */\n      dup2\n        /* \"#utility.yul\":854:870   */\n      swap1\n      pop\n        /* \"#utility.yul\":844:876   */\n      swap2\n      swap1\n      pop\n      jump\t// out\n\n    auxdata: 0xa2646970667358221220e5dcbf7d46e328b843182a986a92c1850e5cdf204851ab832b469772b0f2ddde64736f6c63430008000033\n}\n",
				"bytecode": {
					"linkReferences": {},
					"object": "608060405260146000806101000a81548161ffff021916908361ffff160217905550600a600060026101000a81548161ffff021916908361ffff160217905550600060029054906101000a900461ffff1660008054906101000a900461ffff1661006991906101bd565b61ffff16600155600060029054906101000a900461ffff1660008054906101000a900461ffff1661009a9190610262565b61ffff16600255600060029054906101000a900461ffff1660008054906101000a900461ffff166100cb9190610226565b61ffff16600355600060029054906101000a900461ffff1660008054906101000a900461ffff166100fc91906101f5565b61ffff16600455600060029054906101000a900461ffff1660008054906101000a900461ffff1661012d91906102f9565b61ffff166005556000600281819054906101000a900461ffff16610150906102a4565b91906101000a81548161ffff021916908361ffff160217905561ffff1660065560008081819054906101000a900461ffff1661018b906102ce565b91906101000a81548161ffff021916908361ffff160217905561ffff166007553480156101b757600080fd5b50610388565b60006101c882610296565b91506101d383610296565b92508261ffff038211156101ea576101e961032a565b5b828201905092915050565b600061020082610296565b915061020b83610296565b92508261021b5761021a610359565b5b828204905092915050565b600061023182610296565b915061023c83610296565b92508161ffff04831182151516156102575761025661032a565b5b828202905092915050565b600061026d82610296565b915061027883610296565b92508282101561028b5761028a61032a565b5b828203905092915050565b600061ffff82169050919050565b60006102af82610296565b915060008214156102c3576102c261032a565b5b600182039050919050565b60006102d982610296565b915061ffff8214156102ee576102ed61032a565b5b600182019050919050565b600061030482610296565b915061030f83610296565b92508261031f5761031e610359565b5b828206905092915050565b7f4e487b7100000000000000000000000000000000000000000000000000000000600052601160045260246000fd5b7f4e487b7100000000000000000000000000000000000000000000000000000000600052601260045260246000fd5b610298806103976000396000f3fe608060405234801561001057600080fd5b50600436106100935760003560e01c806358931c461161006657806358931c4614610110578063853255cc1461012e578063a0d7afb71461014c578063b3bcfa821461016a578063f9fa48c31461018857610093565b80630dbe671f146100985780632986e054146100b6578063371303c0146100d45780634df7e3d0146100f2575b600080fd5b6100a06101a6565b6040516100ad9190610214565b60405180910390f35b6100be6101b8565b6040516100cb919061022f565b60405180910390f35b6100dc6101be565b6040516100e9919061022f565b60405180910390f35b6100fa6101c4565b6040516101079190610214565b60405180910390f35b6101186101d8565b604051610125919061022f565b60405180910390f35b6101366101de565b604051610143919061022f565b60405180910390f35b6101546101e4565b604051610161919061022f565b60405180910390f35b6101726101ea565b60405161017f919061022f565b60405180910390f35b6101906101f0565b60405161019d919061022f565b60405180910390f35b60008054906101000a900461ffff1681565b60055481565b60075481565b600060029054906101000a900461ffff1681565b60035481565b60015481565b60025481565b60065481565b60045481565b6101ff8161024a565b82525050565b61020e81610258565b82525050565b600060208201905061022960008301846101f6565b92915050565b60006020820190506102446000830184610205565b92915050565b600061ffff82169050919050565b600081905091905056fea2646970667358221220e5dcbf7d46e328b843182a986a92c1850e5cdf204851ab832b469772b0f2ddde64736f6c63430008000033",
					"opcodes": "PUSH1 0x80 PUSH1 0x40 MSTORE PUSH1 0x14 PUSH1 0x0 DUP1 PUSH2 0x100 EXP DUP2 SLOAD DUP2 PUSH2 0xFFFF MUL NOT AND SWAP1 DUP4 PUSH2 0xFFFF AND MUL OR SWAP1 SSTORE POP PUSH1 0xA PUSH1 0x0 PUSH1 0x2 PUSH2 0x100 EXP DUP2 SLOAD DUP2 PUSH2 0xFFFF MUL NOT AND SWAP1 DUP4 PUSH2 0xFFFF AND MUL OR SWAP1 SSTORE POP PUSH1 0x0 PUSH1 0x2 SWAP1 SLOAD SWAP1 PUSH2 0x100 EXP SWAP1 DIV PUSH2 0xFFFF AND PUSH1 0x0 DUP1 SLOAD SWAP1 PUSH2 0x100 EXP SWAP1 DIV PUSH2 0xFFFF AND PUSH2 0x69 SWAP2 SWAP1 PUSH2 0x1BD JUMP JUMPDEST PUSH2 0xFFFF AND PUSH1 0x1 SSTORE PUSH1 0x0 PUSH1 0x2 SWAP1 SLOAD SWAP1 PUSH2 0x100 EXP SWAP1 DIV PUSH2 0xFFFF AND PUSH1 0x0 DUP1 SLOAD SWAP1 PUSH2 0x100 EXP SWAP1 DIV PUSH2 0xFFFF AND PUSH2 0x9A SWAP2 SWAP1 PUSH2 0x262 JUMP JUMPDEST PUSH2 0xFFFF AND PUSH1 0x2 SSTORE PUSH1 0x0 PUSH1 0x2 SWAP1 SLOAD SWAP1 PUSH2 0x100 EXP SWAP1 DIV PUSH2 0xFFFF AND PUSH1 0x0 DUP1 SLOAD SWAP1 PUSH2 0x100 EXP SWAP1 DIV PUSH2 0xFFFF AND PUSH2 0xCB SWAP2 SWAP1 PUSH2 0x226 JUMP JUMPDEST PUSH2 0xFFFF AND PUSH1 0x3 SSTORE PUSH1 0x0 PUSH1 0x2 SWAP1 SLOAD SWAP1 PUSH2 0x100 EXP SWAP1 DIV PUSH2 0xFFFF AND PUSH1 0x0 DUP1 SLOAD SWAP1 PUSH2 0x100 EXP SWAP1 DIV PUSH2 0xFFFF AND PUSH2 0xFC SWAP2 SWAP1 PUSH2 0x1F5 JUMP JUMPDEST PUSH2 0xFFFF AND PUSH1 0x4 SSTORE PUSH1 0x0 PUSH1 0x2 SWAP1 SLOAD SWAP1 PUSH2 0x100 EXP SWAP1 DIV PUSH2 0xFFFF AND PUSH1 0x0 DUP1 SLOAD SWAP1 PUSH2 0x100 EXP SWAP1 DIV PUSH2 0xFFFF AND PUSH2 0x12D SWAP2 SWAP1 PUSH2 0x2F9 JUMP JUMPDEST PUSH2 0xFFFF AND PUSH1 0x5 SSTORE PUSH1 0x0 PUSH1 0x2 DUP2 DUP2 SWAP1 SLOAD SWAP1 PUSH2 0x100 EXP SWAP1 DIV PUSH2 0xFFFF AND PUSH2 0x150 SWAP1 PUSH2 0x2A4 JUMP JUMPDEST SWAP2 SWAP1 PUSH2 0x100 EXP DUP2 SLOAD DUP2 PUSH2 0xFFFF MUL NOT AND SWAP1 DUP4 PUSH2 0xFFFF AND MUL OR SWAP1 SSTORE PUSH2 0xFFFF AND PUSH1 0x6 SSTORE PUSH1 0x0 DUP1 DUP2 DUP2 SWAP1 SLOAD SWAP1 PUSH2 0x100 EXP SWAP1 DIV PUSH2 0xFFFF AND PUSH2 0x18B SWAP1 PUSH2 0x2CE JUMP JUMPDEST SWAP2 SWAP1 PUSH2 0x100 EXP DUP2 SLOAD DUP2 PUSH2 0xFFFF MUL NOT AND SWAP1 DUP4 PUSH2 0xFFFF AND MUL OR SWAP1 SSTORE PUSH2 0xFFFF AND PUSH1 0x7 SSTORE CALLVALUE DUP1 ISZERO PUSH2 0x1B7 JUMPI PUSH1 0x0 DUP1 REVERT JUMPDEST POP PUSH2 0x388 JUMP JUMPDEST PUSH1 0x0 PUSH2 0x1C8 DUP3 PUSH2 0x296 JUMP JUMPDEST SWAP2 POP PUSH2 0x1D3 DUP4 PUSH2 0x296 JUMP JUMPDEST SWAP3 POP DUP3 PUSH2 0xFFFF SUB DUP3 GT ISZERO PUSH2 0x1EA JUMPI PUSH2 0x1E9 PUSH2 0x32A JUMP JUMPDEST JUMPDEST DUP3 DUP3 ADD SWAP1 POP SWAP3 SWAP2 POP POP JUMP JUMPDEST PUSH1 0x0 PUSH2 0x200 DUP3 PUSH2 0x296 JUMP JUMPDEST SWAP2 POP PUSH2 0x20B DUP4 PUSH2 0x296 JUMP JUMPDEST SWAP3 POP DUP3 PUSH2 0x21B JUMPI PUSH2 0x21A PUSH2 0x359 JUMP JUMPDEST JUMPDEST DUP3 DUP3 DIV SWAP1 POP SWAP3 SWAP2 POP POP JUMP JUMPDEST PUSH1 0x0 PUSH2 0x231 DUP3 PUSH2 0x296 JUMP JUMPDEST SWAP2 POP PUSH2 0x23C DUP4 PUSH2 0x296 JUMP JUMPDEST SWAP3 POP DUP2 PUSH2 0xFFFF DIV DUP4 GT DUP3 ISZERO ISZERO AND ISZERO PUSH2 0x257 JUMPI PUSH2 0x256 PUSH2 0x32A JUMP JUMPDEST JUMPDEST DUP3 DUP3 MUL SWAP1 POP SWAP3 SWAP2 POP POP JUMP JUMPDEST PUSH1 0x0 PUSH2 0x26D DUP3 PUSH2 0x296 JUMP JUMPDEST SWAP2 POP PUSH2 0x278 DUP4 PUSH2 0x296 JUMP JUMPDEST SWAP3 POP DUP3 DUP3 LT ISZERO PUSH2 0x28B JUMPI PUSH2 0x28A PUSH2 0x32A JUMP JUMPDEST JUMPDEST DUP3 DUP3 SUB SWAP1 POP SWAP3 SWAP2 POP POP JUMP JUMPDEST PUSH1 0x0 PUSH2 0xFFFF DUP3 AND SWAP1 POP SWAP2 SWAP1 POP JUMP JUMPDEST PUSH1 0x0 PUSH2 0x2AF DUP3 PUSH2 0x296 JUMP JUMPDEST SWAP2 POP PUSH1 0x0 DUP3 EQ ISZERO PUSH2 0x2C3 JUMPI PUSH2 0x2C2 PUSH2 0x32A JUMP JUMPDEST JUMPDEST PUSH1 0x1 DUP3 SUB SWAP1 POP SWAP2 SWAP1 POP JUMP JUMPDEST PUSH1 0x0 PUSH2 0x2D9 DUP3 PUSH2 0x296 JUMP JUMPDEST SWAP2 POP PUSH2 0xFFFF DUP3 EQ ISZERO PUSH2 0x2EE JUMPI PUSH2 0x2ED PUSH2 0x32A JUMP JUMPDEST JUMPDEST PUSH1 0x1 DUP3 ADD SWAP1 POP SWAP2 SWAP1 POP JUMP JUMPDEST PUSH1 0x0 PUSH2 0x304 DUP3 PUSH2 0x296 JUMP JUMPDEST SWAP2 POP PUSH2 0x30F DUP4 PUSH2 0x296 JUMP JUMPDEST SWAP3 POP DUP3 PUSH2 0x31F JUMPI PUSH2 0x31E PUSH2 0x359 JUMP JUMPDEST JUMPDEST DUP3 DUP3 MOD SWAP1 POP SWAP3 SWAP2 POP POP JUMP JUMPDEST PUSH32 0x4E487B7100000000000000000000000000000000000000000000000000000000 PUSH1 0x0 MSTORE PUSH1 0x11 PUSH1 0x4 MSTORE PUSH1 0x24 PUSH1 0x0 REVERT JUMPDEST PUSH32 0x4E487B7100000000000000000000000000000000000000000000000000000000 PUSH1 0x0 MSTORE PUSH1 0x12 PUSH1 0x4 MSTORE PUSH1 0x24 PUSH1 0x0 REVERT JUMPDEST PUSH2 0x298 DUP1 PUSH2 0x397 PUSH1 0x0 CODECOPY PUSH1 0x0 RETURN INVALID PUSH1 0x80 PUSH1 0x40 MSTORE CALLVALUE DUP1 ISZERO PUSH2 0x10 JUMPI PUSH1 0x0 DUP1 REVERT JUMPDEST POP PUSH1 0x4 CALLDATASIZE LT PUSH2 0x93 JUMPI PUSH1 0x0 CALLDATALOAD PUSH1 0xE0 SHR DUP1 PUSH4 0x58931C46 GT PUSH2 0x66 JUMPI DUP1 PUSH4 0x58931C46 EQ PUSH2 0x110 JUMPI DUP1 PUSH4 0x853255CC EQ PUSH2 0x12E JUMPI DUP1 PUSH4 0xA0D7AFB7 EQ PUSH2 0x14C JUMPI DUP1 PUSH4 0xB3BCFA82 EQ PUSH2 0x16A JUMPI DUP1 PUSH4 0xF9FA48C3 EQ PUSH2 0x188 JUMPI PUSH2 0x93 JUMP JUMPDEST DUP1 PUSH4 0xDBE671F EQ PUSH2 0x98 JUMPI DUP1 PUSH4 0x2986E054 EQ PUSH2 0xB6 JUMPI DUP1 PUSH4 0x371303C0 EQ PUSH2 0xD4 JUMPI DUP1 PUSH4 0x4DF7E3D0 EQ PUSH2 0xF2 JUMPI JUMPDEST PUSH1 0x0 DUP1 REVERT JUMPDEST PUSH2 0xA0 PUSH2 0x1A6 JUMP JUMPDEST PUSH1 0x40 MLOAD PUSH2 0xAD SWAP2 SWAP1 PUSH2 0x214 JUMP JUMPDEST PUSH1 0x40 MLOAD DUP1 SWAP2 SUB SWAP1 RETURN JUMPDEST PUSH2 0xBE PUSH2 0x1B8 JUMP JUMPDEST PUSH1 0x40 MLOAD PUSH2 0xCB SWAP2 SWAP1 PUSH2 0x22F JUMP JUMPDEST PUSH1 0x40 MLOAD DUP1 SWAP2 SUB SWAP1 RETURN JUMPDEST PUSH2 0xDC PUSH2 0x1BE JUMP JUMPDEST PUSH1 0x40 MLOAD PUSH2 0xE9 SWAP2 SWAP1 PUSH2 0x22F JUMP JUMPDEST PUSH1 0x40 MLOAD DUP1 SWAP2 SUB SWAP1 RETURN JUMPDEST PUSH2 0xFA PUSH2 0x1C4 JUMP JUMPDEST PUSH1 0x40 MLOAD PUSH2 0x107 SWAP2 SWAP1 PUSH2 0x214 JUMP JUMPDEST PUSH1 0x40 MLOAD DUP1 SWAP2 SUB SWAP1 RETURN JUMPDEST PUSH2 0x118 PUSH2 0x1D8 JUMP JUMPDEST PUSH1 0x40 MLOAD PUSH2 0x125 SWAP2 SWAP1 PUSH2 0x22F JUMP JUMPDEST PUSH1 0x40 MLOAD DUP1 SWAP2 SUB SWAP1 RETURN JUMPDEST PUSH2 0x136 PUSH2 0x1DE JUMP JUMPDEST PUSH1 0x40 MLOAD PUSH2 0x143 SWAP2 SWAP1 PUSH2 0x22F JUMP JUMPDEST PUSH1 0x40 MLOAD DUP1 SWAP2 SUB SWAP1 RETURN JUMPDEST PUSH2 0x154 PUSH2 0x1E4 JUMP JUMPDEST PUSH1 0x40 MLOAD PUSH2 0x161 SWAP2 SWAP1 PUSH2 0x22F JUMP JUMPDEST PUSH1 0x40 MLOAD DUP1 SWAP2 SUB SWAP1 RETURN JUMPDEST PUSH2 0x172 PUSH2 0x1EA JUMP JUMPDEST PUSH1 0x40 MLOAD PUSH2 0x17F SWAP2 SWAP1 PUSH2 0x22F JUMP JUMPDEST PUSH1 0x40 MLOAD DUP1 SWAP2 SUB SWAP1 RETURN JUMPDEST PUSH2 0x190 PUSH2 0x1F0 JUMP JUMPDEST PUSH1 0x40 MLOAD PUSH2 0x19D SWAP2 SWAP1 PUSH2 0x22F JUMP JUMPDEST PUSH1 0x40 MLOAD DUP1 SWAP2 SUB SWAP1 RETURN JUMPDEST PUSH1 0x0 DUP1 SLOAD SWAP1 PUSH2 0x100 EXP SWAP1 DIV PUSH2 0xFFFF AND DUP2 JUMP JUMPDEST PUSH1 0x5 SLOAD DUP2 JUMP JUMPDEST PUSH1 0x7 SLOAD DUP2 JUMP JUMPDEST PUSH1 0x0 PUSH1 0x2 SWAP1 SLOAD SWAP1 PUSH2 0x100 EXP SWAP1 DIV PUSH2 0xFFFF AND DUP2 JUMP JUMPDEST PUSH1 0x3 SLOAD DUP2 JUMP JUMPDEST PUSH1 0x1 SLOAD DUP2 JUMP JUMPDEST PUSH1 0x2 SLOAD DUP2 JUMP JUMPDEST PUSH1 0x6 SLOAD DUP2 JUMP JUMPDEST PUSH1 0x4 SLOAD DUP2 JUMP JUMPDEST PUSH2 0x1FF DUP2 PUSH2 0x24A JUMP JUMPDEST DUP3 MSTORE POP POP JUMP JUMPDEST PUSH2 0x20E DUP2 PUSH2 0x258 JUMP JUMPDEST DUP3 MSTORE POP POP JUMP JUMPDEST PUSH1 0x0 PUSH1 0x20 DUP3 ADD SWAP1 POP PUSH2 0x229 PUSH1 0x0 DUP4 ADD DUP5 PUSH2 0x1F6 JUMP JUMPDEST SWAP3 SWAP2 POP POP JUMP JUMPDEST PUSH1 0x0 PUSH1 0x20 DUP3 ADD SWAP1 POP PUSH2 0x244 PUSH1 0x0 DUP4 ADD DUP5 PUSH2 0x205 JUMP JUMPDEST SWAP3 SWAP2 POP POP JUMP JUMPDEST PUSH1 0x0 PUSH2 0xFFFF DUP3 AND SWAP1 POP SWAP2 SWAP1 POP JUMP JUMPDEST PUSH1 0x0 DUP2 SWAP1 POP SWAP2 SWAP1 POP JUMP INVALID LOG2 PUSH5 0x6970667358 0x22 SLT KECCAK256 0xE5 0xDC 0xBF PUSH30 0x46E328B843182A986A92C1850E5CDF204851AB832B469772B0F2DDDE6473 PUSH16 0x6C634300080000330000000000000000 "
				},
				"gasEstimates": {
					"creation": {
						"codeDepositCost": "132800",
						"executionCost": "infinite",
						"totalCost": "infinite"
					},
					"external": {
						"a()": "1169",
						"b()": "1288",
						"dec()": "1195",
						"diff()": "1173",
						"div()": "1217",
						"inc()": "1174",
						"mod()": "1152",
						"mul()": "1129",
						"sum()": "1151"
					}
				},
				"methodIdentifiers": {
					"a()": "0dbe671f",
					"b()": "4df7e3d0",
					"dec()": "b3bcfa82",
					"diff()": "a0d7afb7",
					"div()": "f9fa48c3",
					"inc()": "371303c0",
					"mod()": "2986e054",
					"mul()": "58931c46",
					"sum()": "853255cc"
				}
			},
			"storageLayout": {
				"storage": [
					{
						"astId": 4,
						"contract": "pratical_no 2./multi_variable.sol:SolidityTest",
						"label": "a",
						"offset": 0,
						"slot": "0",
						"type": "t_uint16"
					},
					{
						"astId": 7,
						"contract": "pratical_no 2./multi_variable.sol:SolidityTest",
						"label": "b",
						"offset": 2,
						"slot": "0",
						"type": "t_uint16"
					},
					{
						"astId": 12,
						"contract": "pratical_no 2./multi_variable.sol:SolidityTest",
						"label": "sum",
						"offset": 0,
						"slot": "1",
						"type": "t_uint256"
					},
					{
						"astId": 17,
						"contract": "pratical_no 2./multi_variable.sol:SolidityTest",
						"label": "diff",
						"offset": 0,
						"slot": "2",
						"type": "t_uint256"
					},
					{
						"astId": 22,
						"contract": "pratical_no 2./multi_variable.sol:SolidityTest",
						"label": "mul",
						"offset": 0,
						"slot": "3",
						"type": "t_uint256"
					},
					{
						"astId": 27,
						"contract": "pratical_no 2./multi_variable.sol:SolidityTest",
						"label": "div",
						"offset": 0,
						"slot": "4",
						"type": "t_uint256"
					},
					{
						"astId": 32,
						"contract": "pratical_no 2./multi_variable.sol:SolidityTest",
						"label": "mod",
						"offset": 0,
						"slot": "5",
						"type": "t_uint256"
					},
					{
						"astId": 36,
						"contract": "pratical_no 2./multi_variable.sol:SolidityTest",
						"label": "dec",
						"offset": 0,
						"slot": "6",
						"type": "t_uint256"
					},
					{
						"astId": 40,
						"contract": "pratical_no 2./multi_variable.sol:SolidityTest",
						"label": "inc",
						"offset": 0,
						"slot": "7",
						"type": "t_uint256"
					}
				],
				"types": {
					"t_uint16": {
						"encoding": "inplace",
						"label": "uint16",
						"numberOfBytes": "2"
					},
					"t_uint256": {
						"encoding": "inplace",
						"label": "uint256",
						"numberOfBytes": "32"
					}
				}
			},
			"userdoc": {
				"kind": "user",
				"methods": {},
				"version": 1
			}
		}
	}
}