{
	"pratical_no 2./Withdrawal_Pattern_Restricted_Access.sol": {
		"Test": {
			"abi": [
				{
					"inputs": [],
					"payable": true,
					"stateMutability": "payable",
					"type": "constructor"
				},
				{
					"constant": false,
					"inputs": [],
					"name": "becomeRichest",
					"outputs": [
						{
							"internalType": "bool",
							"name": "",
							"type": "bool"
						}
					],
					"payable": true,
					"stateMutability": "payable",
					"type": "function"
				},
				{
					"constant": true,
					"inputs": [],
					"name": "mostSent",
					"outputs": [
						{
							"internalType": "uint256",
							"name": "",
							"type": "uint256"
						}
					],
					"payable": false,
					"stateMutability": "view",
					"type": "function"
				},
				{
					"constant": true,
					"inputs": [],
					"name": "richest",
					"outputs": [
						{
							"internalType": "address payable",
							"name": "",
							"type": "address"
						}
					],
					"payable": false,
					"stateMutability": "view",
					"type": "function"
				}
			],
			"devdoc": {
				"methods": {}
			},
			"evm": {
				"assembly": "    /* \"pratical_no 2./Withdrawal_Pattern_Restricted_Access.sol\":27:496  contract Test {\r... */\n  mstore(0x40, 0x80)\n    /* \"pratical_no 2./Withdrawal_Pattern_Restricted_Access.sol\":159:169  msg.sender */\n  caller\n    /* \"pratical_no 2./Withdrawal_Pattern_Restricted_Access.sol\":149:156  richest */\n  0x00\n  dup1\n    /* \"pratical_no 2./Withdrawal_Pattern_Restricted_Access.sol\":149:169  richest = msg.sender */\n  0x0100\n  exp\n  dup2\n  sload\n  dup2\n  0xffffffffffffffffffffffffffffffffffffffff\n  mul\n  not\n  and\n  swap1\n  dup4\n  0xffffffffffffffffffffffffffffffffffffffff\n  and\n  mul\n  or\n  swap1\n  sstore\n  pop\n    /* \"pratical_no 2./Withdrawal_Pattern_Restricted_Access.sol\":189:198  msg.value */\n  callvalue\n    /* \"pratical_no 2./Withdrawal_Pattern_Restricted_Access.sol\":178:186  mostSent */\n  0x01\n    /* \"pratical_no 2./Withdrawal_Pattern_Restricted_Access.sol\":178:198  mostSent = msg.value */\n  dup2\n  swap1\n  sstore\n  pop\n    /* \"pratical_no 2./Withdrawal_Pattern_Restricted_Access.sol\":27:496  contract Test {\r... */\n  dataSize(sub_0)\n  dup1\n  dataOffset(sub_0)\n  0x00\n  codecopy\n  0x00\n  return\nstop\n\nsub_0: assembly {\n        /* \"pratical_no 2./Withdrawal_Pattern_Restricted_Access.sol\":27:496  contract Test {\r... */\n      mstore(0x40, 0x80)\n      jumpi(tag_1, lt(calldatasize, 0x04))\n      shr(0xe0, calldataload(0x00))\n      dup1\n      0x02e26c38\n      eq\n      tag_2\n      jumpi\n      dup1\n      0x6886bf1c\n      eq\n      tag_3\n      jumpi\n      dup1\n      0x69934ee7\n      eq\n      tag_4\n      jumpi\n    tag_1:\n      0x00\n      dup1\n      revert\n        /* \"pratical_no 2./Withdrawal_Pattern_Restricted_Access.sol\":47:77  address payable public richest */\n    tag_2:\n      callvalue\n        /* \"--CODEGEN--\":8:17   */\n      dup1\n        /* \"--CODEGEN--\":5:7   */\n      iszero\n      tag_5\n      jumpi\n        /* \"--CODEGEN--\":30:31   */\n      0x00\n        /* \"--CODEGEN--\":27:28   */\n      dup1\n        /* \"--CODEGEN--\":20:32   */\n      revert\n        /* \"--CODEGEN--\":5:7   */\n    tag_5:\n        /* \"pratical_no 2./Withdrawal_Pattern_Restricted_Access.sol\":47:77  address payable public richest */\n      pop\n      tag_6\n      tag_7\n      jump\t// in\n    tag_6:\n      mload(0x40)\n      dup1\n      dup3\n      0xffffffffffffffffffffffffffffffffffffffff\n      and\n      0xffffffffffffffffffffffffffffffffffffffff\n      and\n      dup2\n      mstore\n      0x20\n      add\n      swap2\n      pop\n      pop\n      mload(0x40)\n      dup1\n      swap2\n      sub\n      swap1\n      return\n        /* \"pratical_no 2./Withdrawal_Pattern_Restricted_Access.sol\":83:103  uint public mostSent */\n    tag_3:\n      callvalue\n        /* \"--CODEGEN--\":8:17   */\n      dup1\n        /* \"--CODEGEN--\":5:7   */\n      iszero\n      tag_8\n      jumpi\n        /* \"--CODEGEN--\":30:31   */\n      0x00\n        /* \"--CODEGEN--\":27:28   */\n      dup1\n        /* \"--CODEGEN--\":20:32   */\n      revert\n        /* \"--CODEGEN--\":5:7   */\n    tag_8:\n        /* \"pratical_no 2./Withdrawal_Pattern_Restricted_Access.sol\":83:103  uint public mostSent */\n      pop\n      tag_9\n      tag_10\n      jump\t// in\n    tag_9:\n      mload(0x40)\n      dup1\n      dup3\n      dup2\n      mstore\n      0x20\n      add\n      swap2\n      pop\n      pop\n      mload(0x40)\n      dup1\n      swap2\n      sub\n      swap1\n      return\n        /* \"pratical_no 2./Withdrawal_Pattern_Restricted_Access.sol\":210:493  function becomeRichest() public payable returns (bool) {\r... */\n    tag_4:\n      tag_11\n      tag_12\n      jump\t// in\n    tag_11:\n      mload(0x40)\n      dup1\n      dup3\n      iszero\n      iszero\n      iszero\n      iszero\n      dup2\n      mstore\n      0x20\n      add\n      swap2\n      pop\n      pop\n      mload(0x40)\n      dup1\n      swap2\n      sub\n      swap1\n      return\n        /* \"pratical_no 2./Withdrawal_Pattern_Restricted_Access.sol\":47:77  address payable public richest */\n    tag_7:\n      0x00\n      dup1\n      swap1\n      sload\n      swap1\n      0x0100\n      exp\n      swap1\n      div\n      0xffffffffffffffffffffffffffffffffffffffff\n      and\n      dup2\n      jump\t// out\n        /* \"pratical_no 2./Withdrawal_Pattern_Restricted_Access.sol\":83:103  uint public mostSent */\n    tag_10:\n      sload(0x01)\n      dup2\n      jump\t// out\n        /* \"pratical_no 2./Withdrawal_Pattern_Restricted_Access.sol\":210:493  function becomeRichest() public payable returns (bool) {\r... */\n    tag_12:\n        /* \"pratical_no 2./Withdrawal_Pattern_Restricted_Access.sol\":259:263  bool */\n      0x00\n        /* \"pratical_no 2./Withdrawal_Pattern_Restricted_Access.sol\":290:298  mostSent */\n      sload(0x01)\n        /* \"pratical_no 2./Withdrawal_Pattern_Restricted_Access.sol\":278:287  msg.value */\n      callvalue\n        /* \"pratical_no 2./Withdrawal_Pattern_Restricted_Access.sol\":278:298  msg.value > mostSent */\n      gt\n        /* \"pratical_no 2./Withdrawal_Pattern_Restricted_Access.sol\":274:487  if (msg.value > mostSent) {\r... */\n      iszero\n      tag_14\n      jumpi\n        /* \"pratical_no 2./Withdrawal_Pattern_Restricted_Access.sol\":323:330  richest */\n      0x00\n      dup1\n      swap1\n      sload\n      swap1\n      0x0100\n      exp\n      swap1\n      div\n      0xffffffffffffffffffffffffffffffffffffffff\n      and\n        /* \"pratical_no 2./Withdrawal_Pattern_Restricted_Access.sol\":323:339  richest.transfer */\n      0xffffffffffffffffffffffffffffffffffffffff\n      and\n        /* \"pratical_no 2./Withdrawal_Pattern_Restricted_Access.sol\":323:350  richest.transfer(msg.value) */\n      0x08fc\n        /* \"pratical_no 2./Withdrawal_Pattern_Restricted_Access.sol\":340:349  msg.value */\n      callvalue\n        /* \"pratical_no 2./Withdrawal_Pattern_Restricted_Access.sol\":323:350  richest.transfer(msg.value) */\n      swap1\n      dup2\n      iszero\n      mul\n      swap1\n      mload(0x40)\n      0x00\n      mload(0x40)\n      dup1\n      dup4\n      sub\n      dup2\n      dup6\n      dup9\n      dup9\n      call\n      swap4\n      pop\n      pop\n      pop\n      pop\n      iszero\n        /* \"--CODEGEN--\":8:17   */\n      dup1\n        /* \"--CODEGEN--\":5:7   */\n      iszero\n      tag_15\n      jumpi\n        /* \"--CODEGEN--\":45:61   */\n      returndatasize\n        /* \"--CODEGEN--\":42:43   */\n      0x00\n        /* \"--CODEGEN--\":39:40   */\n      dup1\n        /* \"--CODEGEN--\":24:62   */\n      returndatacopy\n        /* \"--CODEGEN--\":77:93   */\n      returndatasize\n        /* \"--CODEGEN--\":74:75   */\n      0x00\n        /* \"--CODEGEN--\":67:94   */\n      revert\n        /* \"--CODEGEN--\":5:7   */\n    tag_15:\n        /* \"pratical_no 2./Withdrawal_Pattern_Restricted_Access.sol\":323:350  richest.transfer(msg.value) */\n      pop\n        /* \"pratical_no 2./Withdrawal_Pattern_Restricted_Access.sol\":372:382  msg.sender */\n      caller\n        /* \"pratical_no 2./Withdrawal_Pattern_Restricted_Access.sol\":362:369  richest */\n      0x00\n      dup1\n        /* \"pratical_no 2./Withdrawal_Pattern_Restricted_Access.sol\":362:382  richest = msg.sender */\n      0x0100\n      exp\n      dup2\n      sload\n      dup2\n      0xffffffffffffffffffffffffffffffffffffffff\n      mul\n      not\n      and\n      swap1\n      dup4\n      0xffffffffffffffffffffffffffffffffffffffff\n      and\n      mul\n      or\n      swap1\n      sstore\n      pop\n        /* \"pratical_no 2./Withdrawal_Pattern_Restricted_Access.sol\":405:414  msg.value */\n      callvalue\n        /* \"pratical_no 2./Withdrawal_Pattern_Restricted_Access.sol\":394:402  mostSent */\n      0x01\n        /* \"pratical_no 2./Withdrawal_Pattern_Restricted_Access.sol\":394:414  mostSent = msg.value */\n      dup2\n      swap1\n      sstore\n      pop\n        /* \"pratical_no 2./Withdrawal_Pattern_Restricted_Access.sol\":433:437  true */\n      0x01\n        /* \"pratical_no 2./Withdrawal_Pattern_Restricted_Access.sol\":426:437  return true */\n      swap1\n      pop\n      jump(tag_13)\n        /* \"pratical_no 2./Withdrawal_Pattern_Restricted_Access.sol\":274:487  if (msg.value > mostSent) {\r... */\n    tag_14:\n        /* \"pratical_no 2./Withdrawal_Pattern_Restricted_Access.sol\":472:477  false */\n      0x00\n        /* \"pratical_no 2./Withdrawal_Pattern_Restricted_Access.sol\":465:477  return false */\n      swap1\n      pop\n        /* \"pratical_no 2./Withdrawal_Pattern_Restricted_Access.sol\":210:493  function becomeRichest() public payable returns (bool) {\r... */\n    tag_13:\n      swap1\n      jump\t// out\n\n    auxdata: 0xa265627a7a7231582038ff4524a6898ce9bf09eaeff70ce869aa5ad472649d308fae867cff153605d864736f6c63430005110032\n}\n",
				"bytecode": {
					"linkReferences": {},
					"object": "6080604052336000806101000a81548173ffffffffffffffffffffffffffffffffffffffff021916908373ffffffffffffffffffffffffffffffffffffffff160217905550346001819055506102098061005a6000396000f3fe6080604052600436106100345760003560e01c806302e26c38146100395780636886bf1c1461009057806369934ee7146100bb575b600080fd5b34801561004557600080fd5b5061004e6100dd565b604051808273ffffffffffffffffffffffffffffffffffffffff1673ffffffffffffffffffffffffffffffffffffffff16815260200191505060405180910390f35b34801561009c57600080fd5b506100a5610102565b6040518082815260200191505060405180910390f35b6100c3610108565b604051808215151515815260200191505060405180910390f35b6000809054906101000a900473ffffffffffffffffffffffffffffffffffffffff1681565b60015481565b60006001543411156101cc576000809054906101000a900473ffffffffffffffffffffffffffffffffffffffff1673ffffffffffffffffffffffffffffffffffffffff166108fc349081150290604051600060405180830381858888f1935050505015801561017b573d6000803e3d6000fd5b50336000806101000a81548173ffffffffffffffffffffffffffffffffffffffff021916908373ffffffffffffffffffffffffffffffffffffffff16021790555034600181905550600190506101d1565b600090505b9056fea265627a7a7231582038ff4524a6898ce9bf09eaeff70ce869aa5ad472649d308fae867cff153605d864736f6c63430005110032",
					"opcodes": "PUSH1 0x80 PUSH1 0x40 MSTORE CALLER PUSH1 0x0 DUP1 PUSH2 0x100 EXP DUP2 SLOAD DUP2 PUSH20 0xFFFFFFFFFFFFFFFFFFFFFFFFFFFFFFFFFFFFFFFF MUL NOT AND SWAP1 DUP4 PUSH20 0xFFFFFFFFFFFFFFFFFFFFFFFFFFFFFFFFFFFFFFFF AND MUL OR SWAP1 SSTORE POP CALLVALUE PUSH1 0x1 DUP2 SWAP1 SSTORE POP PUSH2 0x209 DUP1 PUSH2 0x5A PUSH1 0x0 CODECOPY PUSH1 0x0 RETURN INVALID PUSH1 0x80 PUSH1 0x40 MSTORE PUSH1 0x4 CALLDATASIZE LT PUSH2 0x34 JUMPI PUSH1 0x0 CALLDATALOAD PUSH1 0xE0 SHR DUP1 PUSH4 0x2E26C38 EQ PUSH2 0x39 JUMPI DUP1 PUSH4 0x6886BF1C EQ PUSH2 0x90 JUMPI DUP1 PUSH4 0x69934EE7 EQ PUSH2 0xBB JUMPI JUMPDEST PUSH1 0x0 DUP1 REVERT JUMPDEST CALLVALUE DUP1 ISZERO PUSH2 0x45 JUMPI PUSH1 0x0 DUP1 REVERT JUMPDEST POP PUSH2 0x4E PUSH2 0xDD JUMP JUMPDEST PUSH1 0x40 MLOAD DUP1 DUP3 PUSH20 0xFFFFFFFFFFFFFFFFFFFFFFFFFFFFFFFFFFFFFFFF AND PUSH20 0xFFFFFFFFFFFFFFFFFFFFFFFFFFFFFFFFFFFFFFFF AND DUP2 MSTORE PUSH1 0x20 ADD SWAP2 POP POP PUSH1 0x40 MLOAD DUP1 SWAP2 SUB SWAP1 RETURN JUMPDEST CALLVALUE DUP1 ISZERO PUSH2 0x9C JUMPI PUSH1 0x0 DUP1 REVERT JUMPDEST POP PUSH2 0xA5 PUSH2 0x102 JUMP JUMPDEST PUSH1 0x40 MLOAD DUP1 DUP3 DUP2 MSTORE PUSH1 0x20 ADD SWAP2 POP POP PUSH1 0x40 MLOAD DUP1 SWAP2 SUB SWAP1 RETURN JUMPDEST PUSH2 0xC3 PUSH2 0x108 JUMP JUMPDEST PUSH1 0x40 MLOAD DUP1 DUP3 ISZERO ISZERO ISZERO ISZERO DUP2 MSTORE PUSH1 0x20 ADD SWAP2 POP POP PUSH1 0x40 MLOAD DUP1 SWAP2 SUB SWAP1 RETURN JUMPDEST PUSH1 0x0 DUP1 SWAP1 SLOAD SWAP1 PUSH2 0x100 EXP SWAP1 DIV PUSH20 0xFFFFFFFFFFFFFFFFFFFFFFFFFFFFFFFFFFFFFFFF AND DUP2 JUMP JUMPDEST PUSH1 0x1 SLOAD DUP2 JUMP JUMPDEST PUSH1 0x0 PUSH1 0x1 SLOAD CALLVALUE GT ISZERO PUSH2 0x1CC JUMPI PUSH1 0x0 DUP1 SWAP1 SLOAD SWAP1 PUSH2 0x100 EXP SWAP1 DIV PUSH20 0xFFFFFFFFFFFFFFFFFFFFFFFFFFFFFFFFFFFFFFFF AND PUSH20 0xFFFFFFFFFFFFFFFFFFFFFFFFFFFFFFFFFFFFFFFF AND PUSH2 0x8FC CALLVALUE SWAP1 DUP2 ISZERO MUL SWAP1 PUSH1 0x40 MLOAD PUSH1 0x0 PUSH1 0x40 MLOAD DUP1 DUP4 SUB DUP2 DUP6 DUP9 DUP9 CALL SWAP4 POP POP POP POP ISZERO DUP1 ISZERO PUSH2 0x17B JUMPI RETURNDATASIZE PUSH1 0x0 DUP1 RETURNDATACOPY RETURNDATASIZE PUSH1 0x0 REVERT JUMPDEST POP CALLER PUSH1 0x0 DUP1 PUSH2 0x100 EXP DUP2 SLOAD DUP2 PUSH20 0xFFFFFFFFFFFFFFFFFFFFFFFFFFFFFFFFFFFFFFFF MUL NOT AND SWAP1 DUP4 PUSH20 0xFFFFFFFFFFFFFFFFFFFFFFFFFFFFFFFFFFFFFFFF AND MUL OR SWAP1 SSTORE POP CALLVALUE PUSH1 0x1 DUP2 SWAP1 SSTORE POP PUSH1 0x1 SWAP1 POP PUSH2 0x1D1 JUMP JUMPDEST PUSH1 0x0 SWAP1 POP JUMPDEST SWAP1 JUMP INVALID LOG2 PUSH6 0x627A7A723158 KECCAK256 CODESIZE SELFDESTRUCT GASLIMIT 0x24 0xA6 DUP10 DUP13 0xE9 0xBF MULMOD 0xEA 0xEF 0xF7 0xC 0xE8 PUSH10 0xAA5AD472649D308FAE86 PUSH29 0xFF153605D864736F6C6343000511003200000000000000000000000000 "
				},
				"gasEstimates": {
					"creation": {
						"codeDepositCost": "104200",
						"executionCost": "41008",
						"totalCost": "145208"
					},
					"external": {
						"becomeRichest()": "infinite",
						"mostSent()": "1005",
						"richest()": "1031"
					}
				},
				"methodIdentifiers": {
					"becomeRichest()": "69934ee7",
					"mostSent()": "6886bf1c",
					"richest()": "02e26c38"
				}
			},
			"storageLayout": {
				"storage": [
					{
						"astId": 3,
						"contract": "pratical_no 2./Withdrawal_Pattern_Restricted_Access.sol:Test",
						"label": "richest",
						"offset": 0,
						"slot": "0",
						"type": "t_address_payable"
					},
					{
						"astId": 5,
						"contract": "pratical_no 2./Withdrawal_Pattern_Restricted_Access.sol:Test",
						"label": "mostSent",
						"offset": 0,
						"slot": "1",
						"type": "t_uint256"
					}
				],
				"types": {
					"t_address_payable": {
						"encoding": "inplace",
						"label": "address payable",
						"numberOfBytes": "20"
					},
					"t_uint256": {
						"encoding": "inplace",
						"label": "uint256",
						"numberOfBytes": "32"
					}
				}
			},
			"userdoc": {
				"methods": {}
			}
		}
	}
}