{
	"pratical_no 2./loops/do_while_loop.sol": {
		"Array": {
			"abi": [
				{
					"inputs": [],
					"name": "count",
					"outputs": [
						{
							"internalType": "uint256",
							"name": "",
							"type": "uint256"
						}
					],
					"stateMutability": "view",
					"type": "function"
				},
				{
					"inputs": [
						{
							"internalType": "uint256",
							"name": "",
							"type": "uint256"
						}
					],
					"name": "gfg_arr",
					"outputs": [
						{
							"internalType": "uint256",
							"name": "",
							"type": "uint256"
						}
					],
					"stateMutability": "view",
					"type": "function"
				},
				{
					"inputs": [],
					"name": "gfg_loop_func",
					"outputs": [],
					"stateMutability": "nonpayable",
					"type": "function"
				}
			],
			"devdoc": {
				"kind": "dev",
				"methods": {},
				"version": 1
			},
			"evm": {
				"assembly": "    /* \"pratical_no 2./loops/do_while_loop.sol\":70:270  contract Array{\r... */\n  mstore(0x40, 0x80)\n  callvalue\n  dup1\n  iszero\n  tag_1\n  jumpi\n  0x00\n  dup1\n  revert\ntag_1:\n  pop\n  dataSize(sub_0)\n  dup1\n  dataOffset(sub_0)\n  0x00\n  codecopy\n  0x00\n  return\nstop\n\nsub_0: assembly {\n        /* \"pratical_no 2./loops/do_while_loop.sol\":70:270  contract Array{\r... */\n      mstore(0x40, 0x80)\n      callvalue\n      dup1\n      iszero\n      tag_1\n      jumpi\n      0x00\n      dup1\n      revert\n    tag_1:\n      pop\n      jumpi(tag_2, lt(calldatasize, 0x04))\n      shr(0xe0, calldataload(0x00))\n      dup1\n      0xb7a480\n      eq\n      tag_3\n      jumpi\n      dup1\n      0x06661abd\n      eq\n      tag_4\n      jumpi\n      dup1\n      0x1fee1932\n      eq\n      tag_5\n      jumpi\n    tag_2:\n      0x00\n      dup1\n      revert\n        /* \"pratical_no 2./loops/do_while_loop.sol\":91:113  uint[6] public gfg_arr */\n    tag_3:\n      tag_6\n      0x04\n      dup1\n      calldatasize\n      sub\n      dup2\n      add\n      swap1\n      tag_7\n      swap2\n      swap1\n      tag_8\n      jump\t// in\n    tag_7:\n      tag_9\n      jump\t// in\n    tag_6:\n      mload(0x40)\n      tag_10\n      swap2\n      swap1\n      tag_11\n      jump\t// in\n    tag_10:\n      mload(0x40)\n      dup1\n      swap2\n      sub\n      swap1\n      return\n        /* \"pratical_no 2./loops/do_while_loop.sol\":116:133  uint public count */\n    tag_4:\n      tag_12\n      tag_13\n      jump\t// in\n    tag_12:\n      mload(0x40)\n      tag_14\n      swap2\n      swap1\n      tag_11\n      jump\t// in\n    tag_14:\n      mload(0x40)\n      dup1\n      swap2\n      sub\n      swap1\n      return\n        /* \"pratical_no 2./loops/do_while_loop.sol\":138:267  function gfg_loop_func() public\r... */\n    tag_5:\n      tag_15\n      tag_16\n      jump\t// in\n    tag_15:\n      stop\n        /* \"pratical_no 2./loops/do_while_loop.sol\":91:113  uint[6] public gfg_arr */\n    tag_9:\n      0x00\n      dup2\n      0x06\n      dup2\n      lt\n      tag_17\n      jumpi\n      0x00\n      dup1\n      revert\n    tag_17:\n      add\n      0x00\n      swap2\n      pop\n      swap1\n      pop\n      sload\n      dup2\n      jump\t// out\n        /* \"pratical_no 2./loops/do_while_loop.sol\":116:133  uint public count */\n    tag_13:\n      sload(0x06)\n      dup2\n      jump\t// out\n        /* \"pratical_no 2./loops/do_while_loop.sol\":138:267  function gfg_loop_func() public\r... */\n    tag_16:\n        /* \"pratical_no 2./loops/do_while_loop.sol\":175:264  do {\r... */\n    tag_20:\n        /* \"pratical_no 2./loops/do_while_loop.sol\":213:214  1 */\n      0x01\n        /* \"pratical_no 2./loops/do_while_loop.sol\":205:210  count */\n      sload(0x06)\n        /* \"pratical_no 2./loops/do_while_loop.sol\":205:214  count + 1 */\n      tag_23\n      swap2\n      swap1\n      tag_24\n      jump\t// in\n    tag_23:\n        /* \"pratical_no 2./loops/do_while_loop.sol\":188:195  gfg_arr */\n      0x00\n        /* \"pratical_no 2./loops/do_while_loop.sol\":196:201  count */\n      sload(0x06)\n        /* \"pratical_no 2./loops/do_while_loop.sol\":188:202  gfg_arr[count] */\n      0x06\n      dup2\n      lt\n      tag_25\n      jumpi\n      mstore(0x00, 0x4e487b7100000000000000000000000000000000000000000000000000000000)\n      mstore(0x04, 0x32)\n      revert(0x00, 0x24)\n    tag_25:\n      add\n        /* \"pratical_no 2./loops/do_while_loop.sol\":188:214  gfg_arr[count] = count + 1 */\n      dup2\n      swap1\n      sstore\n      pop\n        /* \"pratical_no 2./loops/do_while_loop.sol\":218:223  count */\n      0x06\n      0x00\n        /* \"pratical_no 2./loops/do_while_loop.sol\":218:225  count++ */\n      dup2\n      sload\n      dup1\n      swap3\n      swap2\n      swap1\n      tag_27\n      swap1\n      tag_28\n      jump\t// in\n    tag_27:\n      swap2\n      swap1\n      pop\n      sstore\n      pop\n        /* \"pratical_no 2./loops/do_while_loop.sol\":248:262  gfg_arr.length */\n      0x06\n        /* \"pratical_no 2./loops/do_while_loop.sol\":242:247  count */\n      dup1\n      sload\n        /* \"pratical_no 2./loops/do_while_loop.sol\":242:262  count<gfg_arr.length */\n      lt\n        /* \"pratical_no 2./loops/do_while_loop.sol\":175:264  do {\r... */\n      tag_20\n      jumpi\n        /* \"pratical_no 2./loops/do_while_loop.sol\":138:267  function gfg_loop_func() public\r... */\n      jump\t// out\n        /* \"#utility.yul\":7:146   */\n    tag_30:\n      0x00\n        /* \"#utility.yul\":91:97   */\n      dup2\n        /* \"#utility.yul\":78:98   */\n      calldataload\n        /* \"#utility.yul\":69:98   */\n      swap1\n      pop\n        /* \"#utility.yul\":107:140   */\n      tag_32\n        /* \"#utility.yul\":134:139   */\n      dup2\n        /* \"#utility.yul\":107:140   */\n      tag_33\n      jump\t// in\n    tag_32:\n        /* \"#utility.yul\":59:146   */\n      swap3\n      swap2\n      pop\n      pop\n      jump\t// out\n        /* \"#utility.yul\":152:414   */\n    tag_8:\n      0x00\n        /* \"#utility.yul\":260:262   */\n      0x20\n        /* \"#utility.yul\":248:257   */\n      dup3\n        /* \"#utility.yul\":239:246   */\n      dup5\n        /* \"#utility.yul\":235:258   */\n      sub\n        /* \"#utility.yul\":231:263   */\n      slt\n        /* \"#utility.yul\":228:230   */\n      iszero\n      tag_35\n      jumpi\n        /* \"#utility.yul\":276:277   */\n      0x00\n        /* \"#utility.yul\":273:274   */\n      dup1\n        /* \"#utility.yul\":266:278   */\n      revert\n        /* \"#utility.yul\":228:230   */\n    tag_35:\n        /* \"#utility.yul\":319:320   */\n      0x00\n        /* \"#utility.yul\":344:397   */\n      tag_36\n        /* \"#utility.yul\":389:396   */\n      dup5\n        /* \"#utility.yul\":380:386   */\n      dup3\n        /* \"#utility.yul\":369:378   */\n      dup6\n        /* \"#utility.yul\":365:387   */\n      add\n        /* \"#utility.yul\":344:397   */\n      tag_30\n      jump\t// in\n    tag_36:\n        /* \"#utility.yul\":334:397   */\n      swap2\n      pop\n        /* \"#utility.yul\":290:407   */\n      pop\n        /* \"#utility.yul\":218:414   */\n      swap3\n      swap2\n      pop\n      pop\n      jump\t// out\n        /* \"#utility.yul\":420:538   */\n    tag_37:\n        /* \"#utility.yul\":507:531   */\n      tag_39\n        /* \"#utility.yul\":525:530   */\n      dup2\n        /* \"#utility.yul\":507:531   */\n      tag_40\n      jump\t// in\n    tag_39:\n        /* \"#utility.yul\":502:505   */\n      dup3\n        /* \"#utility.yul\":495:532   */\n      mstore\n        /* \"#utility.yul\":485:538   */\n      pop\n      pop\n      jump\t// out\n        /* \"#utility.yul\":544:766   */\n    tag_11:\n      0x00\n        /* \"#utility.yul\":675:677   */\n      0x20\n        /* \"#utility.yul\":664:673   */\n      dup3\n        /* \"#utility.yul\":660:678   */\n      add\n        /* \"#utility.yul\":652:678   */\n      swap1\n      pop\n        /* \"#utility.yul\":688:759   */\n      tag_42\n        /* \"#utility.yul\":756:757   */\n      0x00\n        /* \"#utility.yul\":745:754   */\n      dup4\n        /* \"#utility.yul\":741:758   */\n      add\n        /* \"#utility.yul\":732:738   */\n      dup5\n        /* \"#utility.yul\":688:759   */\n      tag_37\n      jump\t// in\n    tag_42:\n        /* \"#utility.yul\":642:766   */\n      swap3\n      swap2\n      pop\n      pop\n      jump\t// out\n        /* \"#utility.yul\":772:1077   */\n    tag_24:\n      0x00\n        /* \"#utility.yul\":831:851   */\n      tag_44\n        /* \"#utility.yul\":849:850   */\n      dup3\n        /* \"#utility.yul\":831:851   */\n      tag_40\n      jump\t// in\n    tag_44:\n        /* \"#utility.yul\":826:851   */\n      swap2\n      pop\n        /* \"#utility.yul\":865:885   */\n      tag_45\n        /* \"#utility.yul\":883:884   */\n      dup4\n        /* \"#utility.yul\":865:885   */\n      tag_40\n      jump\t// in\n    tag_45:\n        /* \"#utility.yul\":860:885   */\n      swap3\n      pop\n        /* \"#utility.yul\":1019:1020   */\n      dup3\n        /* \"#utility.yul\":951:1017   */\n      0xffffffffffffffffffffffffffffffffffffffffffffffffffffffffffffffff\n        /* \"#utility.yul\":947:1021   */\n      sub\n        /* \"#utility.yul\":944:945   */\n      dup3\n        /* \"#utility.yul\":941:1022   */\n      gt\n        /* \"#utility.yul\":938:940   */\n      iszero\n      tag_46\n      jumpi\n        /* \"#utility.yul\":1025:1043   */\n      tag_47\n      tag_48\n      jump\t// in\n    tag_47:\n        /* \"#utility.yul\":938:940   */\n    tag_46:\n        /* \"#utility.yul\":1069:1070   */\n      dup3\n        /* \"#utility.yul\":1066:1067   */\n      dup3\n        /* \"#utility.yul\":1062:1071   */\n      add\n        /* \"#utility.yul\":1055:1071   */\n      swap1\n      pop\n        /* \"#utility.yul\":816:1077   */\n      swap3\n      swap2\n      pop\n      pop\n      jump\t// out\n        /* \"#utility.yul\":1083:1160   */\n    tag_40:\n      0x00\n        /* \"#utility.yul\":1149:1154   */\n      dup2\n        /* \"#utility.yul\":1138:1154   */\n      swap1\n      pop\n        /* \"#utility.yul\":1128:1160   */\n      swap2\n      swap1\n      pop\n      jump\t// out\n        /* \"#utility.yul\":1166:1399   */\n    tag_28:\n      0x00\n        /* \"#utility.yul\":1228:1252   */\n      tag_51\n        /* \"#utility.yul\":1246:1251   */\n      dup3\n        /* \"#utility.yul\":1228:1252   */\n      tag_40\n      jump\t// in\n    tag_51:\n        /* \"#utility.yul\":1219:1252   */\n      swap2\n      pop\n        /* \"#utility.yul\":1274:1340   */\n      0xffffffffffffffffffffffffffffffffffffffffffffffffffffffffffffffff\n        /* \"#utility.yul\":1267:1272   */\n      dup3\n        /* \"#utility.yul\":1264:1341   */\n      eq\n        /* \"#utility.yul\":1261:1263   */\n      iszero\n      tag_52\n      jumpi\n        /* \"#utility.yul\":1344:1362   */\n      tag_53\n      tag_48\n      jump\t// in\n    tag_53:\n        /* \"#utility.yul\":1261:1263   */\n    tag_52:\n        /* \"#utility.yul\":1391:1392   */\n      0x01\n        /* \"#utility.yul\":1384:1389   */\n      dup3\n        /* \"#utility.yul\":1380:1393   */\n      add\n        /* \"#utility.yul\":1373:1393   */\n      swap1\n      pop\n        /* \"#utility.yul\":1209:1399   */\n      swap2\n      swap1\n      pop\n      jump\t// out\n        /* \"#utility.yul\":1405:1585   */\n    tag_48:\n        /* \"#utility.yul\":1453:1530   */\n      0x4e487b7100000000000000000000000000000000000000000000000000000000\n        /* \"#utility.yul\":1450:1451   */\n      0x00\n        /* \"#utility.yul\":1443:1531   */\n      mstore\n        /* \"#utility.yul\":1550:1554   */\n      0x11\n        /* \"#utility.yul\":1547:1548   */\n      0x04\n        /* \"#utility.yul\":1540:1555   */\n      mstore\n        /* \"#utility.yul\":1574:1578   */\n      0x24\n        /* \"#utility.yul\":1571:1572   */\n      0x00\n        /* \"#utility.yul\":1564:1579   */\n      revert\n        /* \"#utility.yul\":1591:1713   */\n    tag_33:\n        /* \"#utility.yul\":1664:1688   */\n      tag_56\n        /* \"#utility.yul\":1682:1687   */\n      dup2\n        /* \"#utility.yul\":1664:1688   */\n      tag_40\n      jump\t// in\n    tag_56:\n        /* \"#utility.yul\":1657:1662   */\n      dup2\n        /* \"#utility.yul\":1654:1689   */\n      eq\n        /* \"#utility.yul\":1644:1646   */\n      tag_57\n      jumpi\n        /* \"#utility.yul\":1703:1704   */\n      0x00\n        /* \"#utility.yul\":1700:1701   */\n      dup1\n        /* \"#utility.yul\":1693:1705   */\n      revert\n        /* \"#utility.yul\":1644:1646   */\n    tag_57:\n        /* \"#utility.yul\":1634:1713   */\n      pop\n      jump\t// out\n\n    auxdata: 0xa2646970667358221220b225ca74cf85ea187a8f33077dddf0cd1ae4c18dd551707da3e090d2270f4fc464736f6c63430008000033\n}\n",
				"bytecode": {
					"linkReferences": {},
					"object": "608060405234801561001057600080fd5b506102bf806100206000396000f3fe608060405234801561001057600080fd5b50600436106100405760003560e01c8062b7a4801461004557806306661abd146100755780631fee193214610093575b600080fd5b61005f600480360381019061005a9190610147565b61009d565b60405161006c919061017f565b60405180910390f35b61007d6100b8565b60405161008a919061017f565b60405180910390f35b61009b6100be565b005b600081600681106100ad57600080fd5b016000915090505481565b60065481565b5b60016006546100ce919061019a565b60006006546006811061010a577f4e487b7100000000000000000000000000000000000000000000000000000000600052603260045260246000fd5b018190555060066000815480929190610122906101fa565b919050555060068054106100bf57565b60008135905061014181610272565b92915050565b60006020828403121561015957600080fd5b600061016784828501610132565b91505092915050565b610179816101f0565b82525050565b60006020820190506101946000830184610170565b92915050565b60006101a5826101f0565b91506101b0836101f0565b9250827fffffffffffffffffffffffffffffffffffffffffffffffffffffffffffffffff038211156101e5576101e4610243565b5b828201905092915050565b6000819050919050565b6000610205826101f0565b91507fffffffffffffffffffffffffffffffffffffffffffffffffffffffffffffffff82141561023857610237610243565b5b600182019050919050565b7f4e487b7100000000000000000000000000000000000000000000000000000000600052601160045260246000fd5b61027b816101f0565b811461028657600080fd5b5056fea2646970667358221220b225ca74cf85ea187a8f33077dddf0cd1ae4c18dd551707da3e090d2270f4fc464736f6c63430008000033",
					"opcodes": "PUSH1 0x80 PUSH1 0x40 MSTORE CALLVALUE DUP1 ISZERO PUSH2 0x10 JUMPI PUSH1 0x0 DUP1 REVERT JUMPDEST POP PUSH2 0x2BF DUP1 PUSH2 0x20 PUSH1 0x0 CODECOPY PUSH1 0x0 RETURN INVALID PUSH1 0x80 PUSH1 0x40 MSTORE CALLVALUE DUP1 ISZERO PUSH2 0x10 JUMPI PUSH1 0x0 DUP1 REVERT JUMPDEST POP PUSH1 0x4 CALLDATASIZE LT PUSH2 0x40 JUMPI PUSH1 0x0 CALLDATALOAD PUSH1 0xE0 SHR DUP1 PUSH3 0xB7A480 EQ PUSH2 0x45 JUMPI DUP1 PUSH4 0x6661ABD EQ PUSH2 0x75 JUMPI DUP1 PUSH4 0x1FEE1932 EQ PUSH2 0x93 JUMPI JUMPDEST PUSH1 0x0 DUP1 REVERT JUMPDEST PUSH2 0x5F PUSH1 0x4 DUP1 CALLDATASIZE SUB DUP2 ADD SWAP1 PUSH2 0x5A SWAP2 SWAP1 PUSH2 0x147 JUMP JUMPDEST PUSH2 0x9D JUMP JUMPDEST PUSH1 0x40 MLOAD PUSH2 0x6C SWAP2 SWAP1 PUSH2 0x17F JUMP JUMPDEST PUSH1 0x40 MLOAD DUP1 SWAP2 SUB SWAP1 RETURN JUMPDEST PUSH2 0x7D PUSH2 0xB8 JUMP JUMPDEST PUSH1 0x40 MLOAD PUSH2 0x8A SWAP2 SWAP1 PUSH2 0x17F JUMP JUMPDEST PUSH1 0x40 MLOAD DUP1 SWAP2 SUB SWAP1 RETURN JUMPDEST PUSH2 0x9B PUSH2 0xBE JUMP JUMPDEST STOP JUMPDEST PUSH1 0x0 DUP2 PUSH1 0x6 DUP2 LT PUSH2 0xAD JUMPI PUSH1 0x0 DUP1 REVERT JUMPDEST ADD PUSH1 0x0 SWAP2 POP SWAP1 POP SLOAD DUP2 JUMP JUMPDEST PUSH1 0x6 SLOAD DUP2 JUMP JUMPDEST JUMPDEST PUSH1 0x1 PUSH1 0x6 SLOAD PUSH2 0xCE SWAP2 SWAP1 PUSH2 0x19A JUMP JUMPDEST PUSH1 0x0 PUSH1 0x6 SLOAD PUSH1 0x6 DUP2 LT PUSH2 0x10A JUMPI PUSH32 0x4E487B7100000000000000000000000000000000000000000000000000000000 PUSH1 0x0 MSTORE PUSH1 0x32 PUSH1 0x4 MSTORE PUSH1 0x24 PUSH1 0x0 REVERT JUMPDEST ADD DUP2 SWAP1 SSTORE POP PUSH1 0x6 PUSH1 0x0 DUP2 SLOAD DUP1 SWAP3 SWAP2 SWAP1 PUSH2 0x122 SWAP1 PUSH2 0x1FA JUMP JUMPDEST SWAP2 SWAP1 POP SSTORE POP PUSH1 0x6 DUP1 SLOAD LT PUSH2 0xBF JUMPI JUMP JUMPDEST PUSH1 0x0 DUP2 CALLDATALOAD SWAP1 POP PUSH2 0x141 DUP2 PUSH2 0x272 JUMP JUMPDEST SWAP3 SWAP2 POP POP JUMP JUMPDEST PUSH1 0x0 PUSH1 0x20 DUP3 DUP5 SUB SLT ISZERO PUSH2 0x159 JUMPI PUSH1 0x0 DUP1 REVERT JUMPDEST PUSH1 0x0 PUSH2 0x167 DUP5 DUP3 DUP6 ADD PUSH2 0x132 JUMP JUMPDEST SWAP2 POP POP SWAP3 SWAP2 POP POP JUMP JUMPDEST PUSH2 0x179 DUP2 PUSH2 0x1F0 JUMP JUMPDEST DUP3 MSTORE POP POP JUMP JUMPDEST PUSH1 0x0 PUSH1 0x20 DUP3 ADD SWAP1 POP PUSH2 0x194 PUSH1 0x0 DUP4 ADD DUP5 PUSH2 0x170 JUMP JUMPDEST SWAP3 SWAP2 POP POP JUMP JUMPDEST PUSH1 0x0 PUSH2 0x1A5 DUP3 PUSH2 0x1F0 JUMP JUMPDEST SWAP2 POP PUSH2 0x1B0 DUP4 PUSH2 0x1F0 JUMP JUMPDEST SWAP3 POP DUP3 PUSH32 0xFFFFFFFFFFFFFFFFFFFFFFFFFFFFFFFFFFFFFFFFFFFFFFFFFFFFFFFFFFFFFFFF SUB DUP3 GT ISZERO PUSH2 0x1E5 JUMPI PUSH2 0x1E4 PUSH2 0x243 JUMP JUMPDEST JUMPDEST DUP3 DUP3 ADD SWAP1 POP SWAP3 SWAP2 POP POP JUMP JUMPDEST PUSH1 0x0 DUP2 SWAP1 POP SWAP2 SWAP1 POP JUMP JUMPDEST PUSH1 0x0 PUSH2 0x205 DUP3 PUSH2 0x1F0 JUMP JUMPDEST SWAP2 POP PUSH32 0xFFFFFFFFFFFFFFFFFFFFFFFFFFFFFFFFFFFFFFFFFFFFFFFFFFFFFFFFFFFFFFFF DUP3 EQ ISZERO PUSH2 0x238 JUMPI PUSH2 0x237 PUSH2 0x243 JUMP JUMPDEST JUMPDEST PUSH1 0x1 DUP3 ADD SWAP1 POP SWAP2 SWAP1 POP JUMP JUMPDEST PUSH32 0x4E487B7100000000000000000000000000000000000000000000000000000000 PUSH1 0x0 MSTORE PUSH1 0x11 PUSH1 0x4 MSTORE PUSH1 0x24 PUSH1 0x0 REVERT JUMPDEST PUSH2 0x27B DUP2 PUSH2 0x1F0 JUMP JUMPDEST DUP2 EQ PUSH2 0x286 JUMPI PUSH1 0x0 DUP1 REVERT JUMPDEST POP JUMP INVALID LOG2 PUSH5 0x6970667358 0x22 SLT KECCAK256 0xB2 0x25 0xCA PUSH21 0xCF85EA187A8F33077DDDF0CD1AE4C18DD551707DA3 0xE0 SWAP1 0xD2 0x27 0xF 0x4F 0xC4 PUSH5 0x736F6C6343 STOP ADDMOD STOP STOP CALLER "
				},
				"gasEstimates": {
					"creation": {
						"codeDepositCost": "140600",
						"executionCost": "183",
						"totalCost": "140783"
					},
					"external": {
						"count()": "1129",
						"gfg_arr(uint256)": "infinite",
						"gfg_loop_func()": "infinite"
					}
				},
				"methodIdentifiers": {
					"count()": "06661abd",
					"gfg_arr(uint256)": "00b7a480",
					"gfg_loop_func()": "1fee1932"
				}
			},
			"storageLayout": {
				"storage": [
					{
						"astId": 5,
						"contract": "pratical_no 2./loops/do_while_loop.sol:Array",
						"label": "gfg_arr",
						"offset": 0,
						"slot": "0",
						"type": "t_array(t_uint256)6_storage"
					},
					{
						"astId": 7,
						"contract": "pratical_no 2./loops/do_while_loop.sol:Array",
						"label": "count",
						"offset": 0,
						"slot": "6",
						"type": "t_uint256"
					}
				],
				"types": {
					"t_array(t_uint256)6_storage": {
						"base": "t_uint256",
						"encoding": "inplace",
						"label": "uint256[6]",
						"numberOfBytes": "192"
					},
					"t_uint256": {
						"encoding": "inplace",
						"label": "uint256",
						"numberOfBytes": "32"
					}
				}
			},
			"userdoc": {
				"kind": "user",
				"methods": {},
				"version": 1
			}
		}
	}
}