{
	"pratical_no 2./loops/Array.sol": {
		"Types": {
			"abi": [
				{
					"constant": false,
					"inputs": [],
					"name": "array_example",
					"outputs": [
						{
							"name": "",
							"type": "int256[5]"
						},
						{
							"name": "",
							"type": "uint256[6]"
						}
					],
					"payable": false,
					"stateMutability": "nonpayable",
					"type": "function"
				}
			],
			"devdoc": {
				"methods": {}
			},
			"evm": {
				"assembly": "    /* \"pratical_no 2./loops/Array.sol\":31:294  contract Types {\r... */\n  mstore(0x40, 0x80)\n  callvalue\n    /* \"--CODEGEN--\":8:17   */\n  dup1\n    /* \"--CODEGEN--\":5:7   */\n  iszero\n  tag_1\n  jumpi\n    /* \"--CODEGEN--\":30:31   */\n  0x0\n    /* \"--CODEGEN--\":27:28   */\n  dup1\n    /* \"--CODEGEN--\":20:32   */\n  revert\n    /* \"--CODEGEN--\":5:7   */\ntag_1:\n    /* \"pratical_no 2./loops/Array.sol\":31:294  contract Types {\r... */\n  pop\n  dataSize(sub_0)\n  dup1\n  dataOffset(sub_0)\n  0x0\n  codecopy\n  0x0\n  return\nstop\n\nsub_0: assembly {\n        /* \"pratical_no 2./loops/Array.sol\":31:294  contract Types {\r... */\n      mstore(0x40, 0x80)\n      jumpi(tag_1, lt(calldatasize, 0x4))\n      calldataload(0x0)\n      0x100000000000000000000000000000000000000000000000000000000\n      swap1\n      div\n      0xffffffff\n      and\n      dup1\n      0x67227992\n      eq\n      tag_2\n      jumpi\n    tag_1:\n      0x0\n      dup1\n      revert\n        /* \"pratical_no 2./loops/Array.sol\":78:291  function array_example() public returns (\r... */\n    tag_2:\n      callvalue\n        /* \"--CODEGEN--\":8:17   */\n      dup1\n        /* \"--CODEGEN--\":5:7   */\n      iszero\n      tag_3\n      jumpi\n        /* \"--CODEGEN--\":30:31   */\n      0x0\n        /* \"--CODEGEN--\":27:28   */\n      dup1\n        /* \"--CODEGEN--\":20:32   */\n      revert\n        /* \"--CODEGEN--\":5:7   */\n    tag_3:\n        /* \"pratical_no 2./loops/Array.sol\":78:291  function array_example() public returns (\r... */\n      pop\n      tag_4\n      jump(tag_5)\n    tag_4:\n      mload(0x40)\n      dup1\n      dup4\n      mul(0x20, 0x5)\n      dup1\n      dup4\n      dup4\n        /* \"--CODEGEN--\":23:24   */\n      0x0\n        /* \"--CODEGEN--\":8:108   */\n    tag_6:\n        /* \"--CODEGEN--\":33:36   */\n      dup4\n        /* \"--CODEGEN--\":30:31   */\n      dup2\n        /* \"--CODEGEN--\":27:37   */\n      lt\n        /* \"--CODEGEN--\":8:108   */\n      iszero\n      tag_7\n      jumpi\n        /* \"--CODEGEN--\":99:100   */\n      dup1\n        /* \"--CODEGEN--\":94:97   */\n      dup3\n        /* \"--CODEGEN--\":90:101   */\n      add\n        /* \"--CODEGEN--\":84:102   */\n      mload\n        /* \"--CODEGEN--\":80:81   */\n      dup2\n        /* \"--CODEGEN--\":75:78   */\n      dup5\n        /* \"--CODEGEN--\":71:82   */\n      add\n        /* \"--CODEGEN--\":64:103   */\n      mstore\n        /* \"--CODEGEN--\":52:54   */\n      0x20\n        /* \"--CODEGEN--\":49:50   */\n      dup2\n        /* \"--CODEGEN--\":45:55   */\n      add\n        /* \"--CODEGEN--\":40:55   */\n      swap1\n      pop\n        /* \"--CODEGEN--\":8:108   */\n      jump(tag_6)\n    tag_7:\n        /* \"--CODEGEN--\":12:26   */\n      pop\n        /* \"pratical_no 2./loops/Array.sol\":78:291  function array_example() public returns (\r... */\n      pop\n      pop\n      pop\n      swap1\n      pop\n      add\n      dup3\n      mul(0x20, 0x6)\n      dup1\n      dup4\n      dup4\n        /* \"--CODEGEN--\":23:24   */\n      0x0\n        /* \"--CODEGEN--\":8:108   */\n    tag_9:\n        /* \"--CODEGEN--\":33:36   */\n      dup4\n        /* \"--CODEGEN--\":30:31   */\n      dup2\n        /* \"--CODEGEN--\":27:37   */\n      lt\n        /* \"--CODEGEN--\":8:108   */\n      iszero\n      tag_10\n      jumpi\n        /* \"--CODEGEN--\":99:100   */\n      dup1\n        /* \"--CODEGEN--\":94:97   */\n      dup3\n        /* \"--CODEGEN--\":90:101   */\n      add\n        /* \"--CODEGEN--\":84:102   */\n      mload\n        /* \"--CODEGEN--\":80:81   */\n      dup2\n        /* \"--CODEGEN--\":75:78   */\n      dup5\n        /* \"--CODEGEN--\":71:82   */\n      add\n        /* \"--CODEGEN--\":64:103   */\n      mstore\n        /* \"--CODEGEN--\":52:54   */\n      0x20\n        /* \"--CODEGEN--\":49:50   */\n      dup2\n        /* \"--CODEGEN--\":45:55   */\n      add\n        /* \"--CODEGEN--\":40:55   */\n      swap1\n      pop\n        /* \"--CODEGEN--\":8:108   */\n      jump(tag_9)\n    tag_10:\n        /* \"--CODEGEN--\":12:26   */\n      pop\n        /* \"pratical_no 2./loops/Array.sol\":78:291  function array_example() public returns (\r... */\n      pop\n      pop\n      pop\n      swap1\n      pop\n      add\n      swap3\n      pop\n      pop\n      pop\n      mload(0x40)\n      dup1\n      swap2\n      sub\n      swap1\n      return\n    tag_5:\n        /* \"pratical_no 2./loops/Array.sol\":122:135  int[5] memory */\n      tag_12\n      jump\t// in(tag_13)\n    tag_12:\n        /* \"pratical_no 2./loops/Array.sol\":137:151  uint[6] memory */\n      tag_14\n      jump\t// in(tag_15)\n    tag_14:\n        /* \"pratical_no 2./loops/Array.sol\":161:179  int[5] memory data */\n      tag_17\n      jump\t// in(tag_13)\n    tag_17:\n        /* \"pratical_no 2./loops/Array.sol\":161:212  int[5] memory data\r... */\n      0xa0\n      mload(0x40)\n      swap1\n      dup2\n      add\n      0x40\n      mstore\n      dup1\n        /* \"pratical_no 2./loops/Array.sol\":190:192  50 */\n      0x32\n        /* \"pratical_no 2./loops/Array.sol\":161:212  int[5] memory data\r... */\n      dup2\n      mstore\n      0x20\n      add\n        /* \"pratical_no 2./loops/Array.sol\":195:198  -63 */\n      0xffffffffffffffffffffffffffffffffffffffffffffffffffffffffffffffc1\n        /* \"pratical_no 2./loops/Array.sol\":161:212  int[5] memory data\r... */\n      dup2\n      mstore\n      0x20\n      add\n        /* \"pratical_no 2./loops/Array.sol\":200:202  77 */\n      0x4d\n        /* \"pratical_no 2./loops/Array.sol\":161:212  int[5] memory data\r... */\n      dup2\n      mstore\n      0x20\n      add\n        /* \"pratical_no 2./loops/Array.sol\":204:207  -28 */\n      0xffffffffffffffffffffffffffffffffffffffffffffffffffffffffffffffe4\n        /* \"pratical_no 2./loops/Array.sol\":161:212  int[5] memory data\r... */\n      dup2\n      mstore\n      0x20\n      add\n        /* \"pratical_no 2./loops/Array.sol\":209:211  90 */\n      0x5a\n        /* \"pratical_no 2./loops/Array.sol\":161:212  int[5] memory data\r... */\n      dup2\n      mstore\n      pop\n      swap1\n      pop\n        /* \"pratical_no 2./loops/Array.sol\":217:258  data1\r... */\n      0xc0\n      mload(0x40)\n      swap1\n      dup2\n      add\n      0x40\n      mstore\n      dup1\n        /* \"pratical_no 2./loops/Array.sol\":234:236  10 */\n      0xa\n        /* \"pratical_no 2./loops/Array.sol\":217:258  data1\r... */\n      dup2\n      mstore\n      0x20\n      add\n        /* \"pratical_no 2./loops/Array.sol\":239:241  20 */\n      0x14\n        /* \"pratical_no 2./loops/Array.sol\":217:258  data1\r... */\n      dup2\n      mstore\n      0x20\n      add\n        /* \"pratical_no 2./loops/Array.sol\":243:245  30 */\n      0x1e\n        /* \"pratical_no 2./loops/Array.sol\":217:258  data1\r... */\n      dup2\n      mstore\n      0x20\n      add\n        /* \"pratical_no 2./loops/Array.sol\":247:249  40 */\n      0x28\n        /* \"pratical_no 2./loops/Array.sol\":217:258  data1\r... */\n      dup2\n      mstore\n      0x20\n      add\n        /* \"pratical_no 2./loops/Array.sol\":251:253  50 */\n      0x32\n        /* \"pratical_no 2./loops/Array.sol\":217:258  data1\r... */\n      dup2\n      mstore\n      0x20\n      add\n        /* \"pratical_no 2./loops/Array.sol\":255:257  60 */\n      0x3c\n        /* \"pratical_no 2./loops/Array.sol\":217:258  data1\r... */\n      dup2\n      mstore\n      pop\n        /* \"pratical_no 2./loops/Array.sol\":217:222  data1 */\n      0x0\n        /* \"pratical_no 2./loops/Array.sol\":217:258  data1\r... */\n      swap1\n      0x6\n      tag_18\n      swap3\n      swap2\n      swap1\n      jump\t// in(tag_19)\n    tag_18:\n      pop\n        /* \"pratical_no 2./loops/Array.sol\":275:279  data */\n      dup1\n        /* \"pratical_no 2./loops/Array.sol\":281:286  data1 */\n      0x0\n        /* \"pratical_no 2./loops/Array.sol\":267:287  return (data, data1) */\n      dup1\n      0x6\n      dup1\n      0x20\n      mul\n      mload(0x40)\n      swap1\n      dup2\n      add\n      0x40\n      mstore\n      dup1\n      swap3\n      swap2\n      swap1\n      dup3\n      0x6\n      dup1\n      iszero\n      tag_20\n      jumpi\n      0x20\n      mul\n      dup3\n      add\n      swap2\n    tag_21:\n      dup2\n      sload\n      dup2\n      mstore\n      0x20\n      add\n      swap1\n      0x1\n      add\n      swap1\n      dup1\n      dup4\n      gt\n      tag_21\n      jumpi\n    tag_20:\n      pop\n      pop\n      pop\n      pop\n      pop\n      swap1\n      pop\n      swap3\n      pop\n      swap3\n      pop\n      pop\n        /* \"pratical_no 2./loops/Array.sol\":78:291  function array_example() public returns (\r... */\n      swap1\n      swap2\n      jump\t// out\n        /* \"pratical_no 2./loops/Array.sol\":31:294  contract Types {\r... */\n    tag_13:\n      0xa0\n      mload(0x40)\n      swap1\n      dup2\n      add\n      0x40\n      mstore\n      dup1\n      0x5\n      swap1\n        /* \"--CODEGEN--\":29:31   */\n      0x20\n        /* \"--CODEGEN--\":21:27   */\n      dup3\n        /* \"--CODEGEN--\":17:32   */\n      mul\n        /* \"--CODEGEN--\":117:121   */\n      dup1\n        /* \"--CODEGEN--\":105:115   */\n      codesize\n        /* \"--CODEGEN--\":97:103   */\n      dup4\n        /* \"--CODEGEN--\":88:122   */\n      codecopy\n        /* \"--CODEGEN--\":148:152   */\n      dup1\n        /* \"--CODEGEN--\":140:146   */\n      dup3\n        /* \"--CODEGEN--\":136:153   */\n      add\n        /* \"--CODEGEN--\":126:153   */\n      swap2\n      pop\n        /* \"--CODEGEN--\":0:157   */\n      pop\n        /* \"pratical_no 2./loops/Array.sol\":31:294  contract Types {\r... */\n      swap1\n      pop\n      pop\n      swap1\n      jump\t// out\n    tag_15:\n      0xc0\n      mload(0x40)\n      swap1\n      dup2\n      add\n      0x40\n      mstore\n      dup1\n      0x6\n      swap1\n        /* \"--CODEGEN--\":29:31   */\n      0x20\n        /* \"--CODEGEN--\":21:27   */\n      dup3\n        /* \"--CODEGEN--\":17:32   */\n      mul\n        /* \"--CODEGEN--\":117:121   */\n      dup1\n        /* \"--CODEGEN--\":105:115   */\n      codesize\n        /* \"--CODEGEN--\":97:103   */\n      dup4\n        /* \"--CODEGEN--\":88:122   */\n      codecopy\n        /* \"--CODEGEN--\":148:152   */\n      dup1\n        /* \"--CODEGEN--\":140:146   */\n      dup3\n        /* \"--CODEGEN--\":136:153   */\n      add\n        /* \"--CODEGEN--\":126:153   */\n      swap2\n      pop\n        /* \"--CODEGEN--\":0:157   */\n      pop\n        /* \"pratical_no 2./loops/Array.sol\":31:294  contract Types {\r... */\n      swap1\n      pop\n      pop\n      swap1\n      jump\t// out\n    tag_19:\n      dup3\n      0x6\n      dup2\n      add\n      swap3\n      dup3\n      iszero\n      tag_22\n      jumpi\n      swap2\n      0x20\n      mul\n      dup3\n      add\n    tag_23:\n      dup3\n      dup2\n      gt\n      iszero\n      tag_24\n      jumpi\n      dup3\n      mload\n      dup3\n      sstore\n      swap2\n      0x20\n      add\n      swap2\n      swap1\n      0x1\n      add\n      swap1\n      jump(tag_23)\n    tag_24:\n    tag_22:\n      pop\n      swap1\n      pop\n      tag_25\n      swap2\n      swap1\n      jump\t// in(tag_26)\n    tag_25:\n      pop\n      swap1\n      jump\t// out\n    tag_26:\n      tag_27\n      swap2\n      swap1\n    tag_28:\n      dup1\n      dup3\n      gt\n      iszero\n      tag_29\n      jumpi\n      0x0\n      dup2\n      0x0\n      swap1\n      sstore\n      pop\n      0x1\n      add\n      jump(tag_28)\n    tag_29:\n      pop\n      swap1\n      jump\n    tag_27:\n      swap1\n      jump\t// out\n\n    auxdata: 0xa165627a7a72305820c494b671ba7ce2989d0403c6c4cba5230b0ccb598bb851c3f8062c053f01e2780029\n}\n",
				"bytecode": {
					"linkReferences": {},
					"object": "608060405234801561001057600080fd5b506102b4806100206000396000f3fe608060405260043610610041576000357c0100000000000000000000000000000000000000000000000000000000900463ffffffff1680636722799214610046575b600080fd5b34801561005257600080fd5b5061005b6100c8565b6040518083600560200280838360005b8381101561008657808201518184015260208101905061006b565b5050505090500182600660200280838360005b838110156100b4578082015181840152602081019050610099565b505050509050019250505060405180910390f35b6100d06101dd565b6100d8610200565b6100e06101dd565b60a060405190810160405280603281526020017fffffffffffffffffffffffffffffffffffffffffffffffffffffffffffffffc18152602001604d81526020017fffffffffffffffffffffffffffffffffffffffffffffffffffffffffffffffe48152602001605a815250905060c060405190810160405280600a815260200160148152602001601e81526020016028815260200160328152602001603c8152506000906006610191929190610223565b50806000806006806020026040519081016040528092919082600680156101cd576020028201915b8154815260200190600101908083116101b9575b5050505050905092509250509091565b60a060405190810160405280600590602082028038833980820191505090505090565b60c060405190810160405280600690602082028038833980820191505090505090565b8260068101928215610252579160200282015b82811115610251578251825591602001919060010190610236565b5b50905061025f9190610263565b5090565b61028591905b80821115610281576000816000905550600101610269565b5090565b9056fea165627a7a72305820c494b671ba7ce2989d0403c6c4cba5230b0ccb598bb851c3f8062c053f01e2780029",
					"opcodes": "PUSH1 0x80 PUSH1 0x40 MSTORE CALLVALUE DUP1 ISZERO PUSH2 0x10 JUMPI PUSH1 0x0 DUP1 REVERT JUMPDEST POP PUSH2 0x2B4 DUP1 PUSH2 0x20 PUSH1 0x0 CODECOPY PUSH1 0x0 RETURN INVALID PUSH1 0x80 PUSH1 0x40 MSTORE PUSH1 0x4 CALLDATASIZE LT PUSH2 0x41 JUMPI PUSH1 0x0 CALLDATALOAD PUSH29 0x100000000000000000000000000000000000000000000000000000000 SWAP1 DIV PUSH4 0xFFFFFFFF AND DUP1 PUSH4 0x67227992 EQ PUSH2 0x46 JUMPI JUMPDEST PUSH1 0x0 DUP1 REVERT JUMPDEST CALLVALUE DUP1 ISZERO PUSH2 0x52 JUMPI PUSH1 0x0 DUP1 REVERT JUMPDEST POP PUSH2 0x5B PUSH2 0xC8 JUMP JUMPDEST PUSH1 0x40 MLOAD DUP1 DUP4 PUSH1 0x5 PUSH1 0x20 MUL DUP1 DUP4 DUP4 PUSH1 0x0 JUMPDEST DUP4 DUP2 LT ISZERO PUSH2 0x86 JUMPI DUP1 DUP3 ADD MLOAD DUP2 DUP5 ADD MSTORE PUSH1 0x20 DUP2 ADD SWAP1 POP PUSH2 0x6B JUMP JUMPDEST POP POP POP POP SWAP1 POP ADD DUP3 PUSH1 0x6 PUSH1 0x20 MUL DUP1 DUP4 DUP4 PUSH1 0x0 JUMPDEST DUP4 DUP2 LT ISZERO PUSH2 0xB4 JUMPI DUP1 DUP3 ADD MLOAD DUP2 DUP5 ADD MSTORE PUSH1 0x20 DUP2 ADD SWAP1 POP PUSH2 0x99 JUMP JUMPDEST POP POP POP POP SWAP1 POP ADD SWAP3 POP POP POP PUSH1 0x40 MLOAD DUP1 SWAP2 SUB SWAP1 RETURN JUMPDEST PUSH2 0xD0 PUSH2 0x1DD JUMP JUMPDEST PUSH2 0xD8 PUSH2 0x200 JUMP JUMPDEST PUSH2 0xE0 PUSH2 0x1DD JUMP JUMPDEST PUSH1 0xA0 PUSH1 0x40 MLOAD SWAP1 DUP2 ADD PUSH1 0x40 MSTORE DUP1 PUSH1 0x32 DUP2 MSTORE PUSH1 0x20 ADD PUSH32 0xFFFFFFFFFFFFFFFFFFFFFFFFFFFFFFFFFFFFFFFFFFFFFFFFFFFFFFFFFFFFFFC1 DUP2 MSTORE PUSH1 0x20 ADD PUSH1 0x4D DUP2 MSTORE PUSH1 0x20 ADD PUSH32 0xFFFFFFFFFFFFFFFFFFFFFFFFFFFFFFFFFFFFFFFFFFFFFFFFFFFFFFFFFFFFFFE4 DUP2 MSTORE PUSH1 0x20 ADD PUSH1 0x5A DUP2 MSTORE POP SWAP1 POP PUSH1 0xC0 PUSH1 0x40 MLOAD SWAP1 DUP2 ADD PUSH1 0x40 MSTORE DUP1 PUSH1 0xA DUP2 MSTORE PUSH1 0x20 ADD PUSH1 0x14 DUP2 MSTORE PUSH1 0x20 ADD PUSH1 0x1E DUP2 MSTORE PUSH1 0x20 ADD PUSH1 0x28 DUP2 MSTORE PUSH1 0x20 ADD PUSH1 0x32 DUP2 MSTORE PUSH1 0x20 ADD PUSH1 0x3C DUP2 MSTORE POP PUSH1 0x0 SWAP1 PUSH1 0x6 PUSH2 0x191 SWAP3 SWAP2 SWAP1 PUSH2 0x223 JUMP JUMPDEST POP DUP1 PUSH1 0x0 DUP1 PUSH1 0x6 DUP1 PUSH1 0x20 MUL PUSH1 0x40 MLOAD SWAP1 DUP2 ADD PUSH1 0x40 MSTORE DUP1 SWAP3 SWAP2 SWAP1 DUP3 PUSH1 0x6 DUP1 ISZERO PUSH2 0x1CD JUMPI PUSH1 0x20 MUL DUP3 ADD SWAP2 JUMPDEST DUP2 SLOAD DUP2 MSTORE PUSH1 0x20 ADD SWAP1 PUSH1 0x1 ADD SWAP1 DUP1 DUP4 GT PUSH2 0x1B9 JUMPI JUMPDEST POP POP POP POP POP SWAP1 POP SWAP3 POP SWAP3 POP POP SWAP1 SWAP2 JUMP JUMPDEST PUSH1 0xA0 PUSH1 0x40 MLOAD SWAP1 DUP2 ADD PUSH1 0x40 MSTORE DUP1 PUSH1 0x5 SWAP1 PUSH1 0x20 DUP3 MUL DUP1 CODESIZE DUP4 CODECOPY DUP1 DUP3 ADD SWAP2 POP POP SWAP1 POP POP SWAP1 JUMP JUMPDEST PUSH1 0xC0 PUSH1 0x40 MLOAD SWAP1 DUP2 ADD PUSH1 0x40 MSTORE DUP1 PUSH1 0x6 SWAP1 PUSH1 0x20 DUP3 MUL DUP1 CODESIZE DUP4 CODECOPY DUP1 DUP3 ADD SWAP2 POP POP SWAP1 POP POP SWAP1 JUMP JUMPDEST DUP3 PUSH1 0x6 DUP2 ADD SWAP3 DUP3 ISZERO PUSH2 0x252 JUMPI SWAP2 PUSH1 0x20 MUL DUP3 ADD JUMPDEST DUP3 DUP2 GT ISZERO PUSH2 0x251 JUMPI DUP3 MLOAD DUP3 SSTORE SWAP2 PUSH1 0x20 ADD SWAP2 SWAP1 PUSH1 0x1 ADD SWAP1 PUSH2 0x236 JUMP JUMPDEST JUMPDEST POP SWAP1 POP PUSH2 0x25F SWAP2 SWAP1 PUSH2 0x263 JUMP JUMPDEST POP SWAP1 JUMP JUMPDEST PUSH2 0x285 SWAP2 SWAP1 JUMPDEST DUP1 DUP3 GT ISZERO PUSH2 0x281 JUMPI PUSH1 0x0 DUP2 PUSH1 0x0 SWAP1 SSTORE POP PUSH1 0x1 ADD PUSH2 0x269 JUMP JUMPDEST POP SWAP1 JUMP JUMPDEST SWAP1 JUMP INVALID LOG1 PUSH6 0x627A7A723058 KECCAK256 0xc4 SWAP5 0xb6 PUSH18 0xBA7CE2989D0403C6C4CBA5230B0CCB598BB8 MLOAD 0xc3 0xf8 MOD 0x2c SDIV EXTCODEHASH ADD 0xe2 PUSH25 0x290000000000000000000000000000000000000000000000 "
				},
				"gasEstimates": {
					"creation": {
						"codeDepositCost": "138400",
						"executionCost": "183",
						"totalCost": "138583"
					},
					"external": {
						"array_example()": "infinite"
					}
				},
				"methodIdentifiers": {
					"array_example()": "67227992"
				}
			},
			"userdoc": {
				"methods": {}
			}
		}
	}
}